:020000040000fa
:080000000002040000000000f2
:020000040000fa
:0400080000030000f1
:020000040000fa
:04000c0000030000ed
:020000040000fa
:0400100000030000e9
:020000040000fa
:0400140000030000e5
:020000040000fa
:0400180000030000e1
:020000040000fa
:04001c0000030000dd
:020000040000fa
:0400200000030000d9
:020000040000fa
:0400240000030000d5
:020000040000fa
:0400280000030000d1
:020000040000fa
:04002c0000030000cd
:020000040000fa
:0400300000030000c9
:020000040000fa
:04003400c8020000fe
:020000040000fa
:04003800cc020000f6
:020000040000fa
:04003c0000030000bd
:020000040000fa
:0400400000030000b9
:020000040000fa
:0400440000030000b5
:020000040000fa
:0400480000030000b1
:020000040000fa
:04004c0000030000ad
:020000040000fa
:0400500000030000a9
:020000040000fa
:0400540000030000a5
:020000040000fa
:0400580000030000a1
:020000040000fa
:04005c00000300009d
:020000040000fa
:04006000f4020000a6
:020000040000fa
:040064000003000095
:020000040000fa
:040068000003000091
:020000040000fa
:04006c00000300008d
:020000040000fa
:040070000003000089
:020000040000fa
:040074000003000085
:020000040000fa
:040078000003000081
:020000040000fa
:04007c00000300007d
:020000040000fa
:040080000003000079
:020000040000fa
:040084000003000075
:020000040000fa
:040088000003000071
:020000040000fa
:04008c00000300006d
:020000040000fa
:040090000003000069
:020000040000fa
:040094000003000065
:020000040000fa
:040098000003000061
:020000040000fa
:04009c00000300005d
:020000040000fa
:0400a0000003000059
:020000040000fa
:0400a4000003000055
:020000040000fa
:0400a8000003000051
:020000040000fa
:0400ac00000300004d
:020000040000fa
:0400b0000003000049
:020000040000fa
:0400b4000003000045
:020000040000fa
:0400b8000003000041
:020000040000fa
:0400bc00000300003d
:020000040000fa
:0400c0000003000039
:020000040000fa
:0400c4000003000035
:020000040000fa
:0400c8000003000031
:020000040000fa
:0400cc00000300002d
:020000040000fa
:0400d0000003000029
:020000040000fa
:0400d4000003000025
:020000040000fa
:0400d8000003000021
:020000040000fa
:0400dc00000300001d
:020000040000fa
:0400e0000003000019
:020000040000fa
:0400e4000003000015
:020000040000fa
:0400e8000003000011
:020000040000fa
:0400ec00000300000d
:020000040000fa
:0400f0000003000009
:020000040000fa
:0400f4000003000005
:020000040000fa
:0400f8000003000001
:020000040000fa
:0400fc0000030000fd
:020000040000fa
:0401000000030000f8
:020000040000fa
:0401040000030000f4
:020000040000fa
:0401080000030000f0
:020000040000fa
:04010c0000030000ec
:020000040000fa
:0401100000030000e8
:020000040000fa
:0401140000030000e4
:020000040000fa
:0401180000030000e0
:020000040000fa
:04011c0000030000dc
:020000040000fa
:0401200000030000d8
:020000040000fa
:0401240000030000d4
:020000040000fa
:0401280000030000d0
:020000040000fa
:04012c0000030000cc
:020000040000fa
:0401300000030000c8
:020000040000fa
:0401340000030000c4
:020000040000fa
:0401380000030000c0
:020000040000fa
:04013c0000030000bc
:020000040000fa
:0401400000030000b8
:020000040000fa
:0401440000030000b4
:020000040000fa
:0401480000030000b0
:020000040000fa
:04014c0000030000ac
:020000040000fa
:0401500000030000a8
:020000040000fa
:0401540000030000a4
:020000040000fa
:0401580000030000a0
:020000040000fa
:04015c00000300009c
:020000040000fa
:040160000003000098
:020000040000fa
:040164000003000094
:020000040000fa
:0402080000030000ef
:020000040000fa
:04020c0000030000eb
:020000040000fa
:0402100000030000e7
:020000040000fa
:0402140000030000e3
:020000040000fa
:0402180000030000df
:020000040000fa
:04021c0000030000db
:020000040000fa
:0402200000030000d7
:020000040000fa
:0402240000030000d3
:020000040000fa
:0402280000030000cf
:020000040000fa
:04022c0000030000cb
:020000040000fa
:0402300000030000c7
:020000040000fa
:0402340000030000c3
:020000040000fa
:0402380000030000bf
:020000040000fa
:04023c0000030000bb
:020000040000fa
:0402400000030000b7
:020000040000fa
:0402440000030000b3
:020000040000fa
:0402480000030000af
:020000040000fa
:04024c0000030000ab
:020000040000fa
:0402500000030000a7
:020000040000fa
:0402540000030000a3
:020000040000fa
:04025800000300009f
:020000040000fa
:04025c00000300009b
:020000040000fa
:040260000003000097
:020000040000fa
:040264000003000093
:020000040000fa
:04026800000300008f
:020000040000fa
:04026c00000300008b
:020000040000fa
:040270000003000087
:020000040000fa
:040274000003000083
:020000040000fa
:04027800000300007f
:020000040000fa
:04027c00000300007b
:020000040000fa
:040280000003000077
:020000040000fa
:040284000003000073
:020000040000fa
:04028800000300006f
:020000040000fa
:04028c00000300006b
:020000040000fa
:040290000003000067
:020000040000fa
:040294000003000063
:020000040000fa
:04029800000300005f
:020000040000fa
:04029c00000300005b
:020000040000fa
:0402a0000003000057
:020000040000fa
:0402a4000003000053
:020000040000fa
:0402a800000300004f
:020000040000fa
:0402ac00000300004b
:020000040000fa
:0402b0000003000047
:020000040000fa
:0402b4000003000043
:020000040000fa
:0402b800000300003f
:020000040000fa
:0402bc00000300003b
:020000040000fa
:0402c0000003000037
:020000040000fa
:0402c4000003000033
:020000040000fa
:0402c800000300002f
:020000040000fa
:0402cc00000300002b
:020000040000fa
:0402d0000003000027
:020000040000fa
:0402d4000003000023
:020000040000fa
:0402d800000300001f
:020000040000fa
:0402dc00000300001b
:020000040000fa
:0402e0000003000017
:020000040000fa
:0402e4000003000013
:020000040000fa
:0402e800000300000f
:020000040000fa
:0402ec00000300000b
:020000040000fa
:0402f0000003000007
:020000040000fa
:0402f4000003000003
:020000040000fa
:0402f80000030000ff
:020000040000fa
:0402fc0000030000fb
:020000040000fa
:0403000000030000f6
:020000040000fa
:0403040000030000f2
:020000040000fa
:0403080000030000ee
:020000040000fa
:04030c0000030000ea
:020000040000fa
:0403100000030000e6
:020000040000fa
:0403140000030000e2
:020000040000fa
:0403180000030000de
:020000040000fa
:04031c0000030000da
:020000040000fa
:0403200000030000d6
:020000040000fa
:0403240000030000d2
:020000040000fa
:0403280000030000ce
:020000040000fa
:04032c0000030000ca
:020000040000fa
:0403300000030000c6
:020000040000fa
:0403340000030000c2
:020000040000fa
:0403380000030000be
:020000040000fa
:04033c0000030000ba
:020000040000fa
:0403400000030000b6
:020000040000fa
:0403440000030000b2
:020000040000fa
:0403480000030000ae
:020000040000fa
:04034c0000030000aa
:020000040000fa
:0403500000030000a6
:020000040000fa
:0403540000030000a2
:020000040000fa
:04035800000300009e
:020000040000fa
:04035c00000300009a
:020000040000fa
:040360000003000096
:020000040000fa
:040364000003000092
:020000040000fa
:10040000ef2b23000ebf23000e0188000000000028
:10041000000020000000e000020032000001200087
:100420002002880014000700480207000000e000d6
:1004300003003a0080be20000100200002003700c7
:100440000000200001002000810f70000100320038
:1004500014000700000020000000e000020032004d
:100460000000020000000000b225020000000000b1
:100470000040da000000fe004440a9000000200017
:100480000000e0000300320000002000a00188000e
:100490004440a800000006008a1f78008b1f7800e7
:1004a0000000060091018800800478000000eb0045
:1004b0001a003700e284440032a0b4009905ba0063
:1004c000e284440032a0b4009906ba00e2844400f9
:1004d00032a0b4000006eb00476fde00fd07b2005b
:1004e000636ce10003003a00ebff07000000eb0043
:1004f0000a003700606ce10004003a00005deb0088
:100500008b05e900fdff3e00040037006168e10053
:10051000010032000086eb000b00070019c7ba008b
:100520001905ba000e04e00003003a000a00e000da
:10053000e0ff3a0000000600fe07b2009e018800be
:100540008a047800f5ff3700395dba008b05e900b1
:100550000c003200295dba008b05e900080032006a
:100560000c00e00003003a00e284440032a0b40032
:10057000f5ff370019ddba008b05e900faff3a00f4
:100580008904e800e184440032a0b40000000600c1
:100590008460a90000400600809fbe00821f780092
:1005a0008480a9002016800000407800614060002f
:1005b0000004a200614060000080fb006100600058
:1005c00022168000e1ff2f00810061000100700011
:1005d0002016880010002000708088004f017800ed
:1005e0004f00be0000400600801f780085c0a900b3
:1005f00010002000608088004f0078000040060056
:100600000040da000000fe00889fbe008a9fbe0006
:100610008c9fbe0000057800810678000a00e90082
:10062000cf80de00c00207000001be00b0fd200048
:10063000910c24002e020700800578000106780046
:100640000a00e000130034008d0478000004eb0081
:100650006140b900b40207000b0178008c017800fa
:1006600011030700200207000200200003f02b0006
:100670000d0307000200200003f02300b50107006e
:10068000e9000700801c78000804e800880f550086
:10069000efff3c000d0078004f06be004f05be0086
:1006a0004f04be0000000600f6874700889fbe008a
:1006b0008a9fbe008c9fbe008e1f7800f1af9f0006
:1006c00082047800180020000040dd004f04de00a6
:1006d000000044000084d1000000200001f8230045
:1006e000d1000700ffa89700800878000000eb0009
:1006f000900098006140b9008b0207000001be0025
:10070000b0fd200091042400f90107008005780065
:10071000010578000b0078008a007800f2010700dc
:10072000b0b79f00a1b79f000900e000940032001d
:100730000a01be00030078008200780077030700fa
:100740000006be000883e90086003300ffab970077
:10075000648543008c0478000d047800bfb59700d1
:100760002fb797000b0078008e00780086bf9f009f
:10077000ad000700000d78000900780088007800bf
:10078000a90007001005980064054500bfb0970058
:100790002fb0970001017800800178000b007800ed
:1007a0008e007800c00207000002be000c01be00ef
:1007b000c8b79f000900780088007800e4b79f0060
:1007c000f5b79f00b80207000001be006fb29700a6
:1007d000ffb297000400be005d01070090b79f00c4
:1007e00081b79f00bfb097002fb09700010178003c
:1007f00080017800090278008800780004047800fd
:10080000810478000800be00a70207008004780079
:10081000010478000c01be000b0278008e00780005
:10082000c4b79f00d1b79f004fb09700dfb09700cb
:100830009d0207000902780088017800040478000e
:10084000830478000801be0042010700800478009c
:10085000010478000fbb97000603e9004100330054
:100860009fb597000fb797000b0078008e007800b7
:1008700086bf9f006c000700000d7800090078001b
:10088000880078006800070010059800640545009e
:10089000bfb097002fb09700010178008001780069
:1008a0000b0078008e0078007f0207000002be0077
:1008b0000c01be00c8b79f000900780088007800ce
:1008c000e4b79f00f5b79f00770207000001be0064
:1008d0006fb29700ffb297000400be001c01070032
:1008e00090b79f0081b79f00bfb097002fb09700cf
:1008f0000101780080017800090278008800780002
:1009000004047800810478000800be006602070035
:1009100080047800010478000c01be000b0278000e
:100920008e007800c4b79f00d1b79f004fb09700ea
:10093000dfb097005c0207000902780088017800a8
:1009400004047800830478000801be000101070058
:1009500080047800010478000fbb97000603e900cb
:10096000bfff3b007fa897004f0778004f06be00ef
:100970004f05be004f04be006f01b100000006002d
:100980000a01be000300780082007800e30207003d
:100990000006be000df0a2006aff3700810178005a
:1009a0000000e90000800900b21878000300780018
:1009b000000006004400f800040f20002402880014
:1009c000811f78000000e900030278000080080021
:1009d00002000000b20278001301c0003100cd0017
:1009e0004f0078004400f900000006004400f800c1
:1009f000040f200024028800010278000000e900b2
:100a00000080080004000000b20278000500ca005f
:100a1000b30278000500c9003100cc000400780062
:100a20004400f90000000600e8874700889fbe00e8
:100a30008a9fbe008c9fbe008e1f78000005be00fe
:100a400002002000037024001702070080047800d1
:100a5000010478006011b8000a00be008f01070091
:100a60000000e000370035000900780088007800b9
:100a7000b00107008b0107000005be000a00be00a0
:100a8000a90107000006be000200200003f02300b9
:100a9000050207000007780081bf9f000101780070
:100aa0000e00780082007800a2010700e0b79f00e6
:100ab000f1b79f000c01be000902780088007800a1
:100ac00004037800810378000600be00a000070040
:100ad0000004be000200200003f023000800be0056
:100ae0006e0107000000e0007b00340002002000df
:100af00003f823000c00be00960007006901070000
:100b00000005be008a0178000b0178000300780020
:100b100082007800f3ff2700830f5000e08f580019
:100b200002003400f0ff2700010020004f0778008a
:100b30004f06be004f05be004f04be008f00b1003f
:100b4000000006000900780088007800de00070039
:100b5000540107000006be000c00be007201070031
:100b60000005be0009017800880178000a00be0077
:100b7000780107000000e0000900320002002000b8
:100b800003f823000a00be007100070045010700ba
:100b90000006be000c00be00630107000005be0099
:100ba0000200200003f023000a00be00be0107007f
:100bb0000007780081bf9f00010178000e007800d7
:100bc000820078005b010700e0b79f00f1b79f004b
:100bd0000a01be000902780088007800040378004a
:100be000810378000600be00590007000004be0023
:100bf0000200200003f023000800be0027010700c8
:100c00000000e000170034000200200003f8230079
:100c10000a00be004f000700220107000006be00c8
:100c20008c0178000d0178000300780082007800c4
:100c300002002800f3ff2f00820f5000838f58001e
:100c4000baff3d000200be004f0778004f06be000d
:100c50004f05be004f04be008f00b100000006002b
:100c6000b8ff37000200200003f02300880078005e
:100c70000900780001027800800278000400be00bc
:100c8000040107000000e000e5ff3a006fb19700a3
:100c9000ffb197008e0278000fba97000500780028
:100ca000840078002a0007000001be002900070028
:100cb000fc0007000000e000d9ff32000200200025
:100cc00003f823000a00be0022000700f500070019
:100cd0000006be00d2ff37000200200003f0230010
:100ce000880078000900780001027800800278000e
:100cf0000400be00e70007000000e00081ff3a00aa
:100d00006fb19700ffb197008e0278000fba97007d
:100d100005007800840078000d0007000001be0087
:100d20000c000700df0007000000e00075ff320044
:100d30000200200003f823000c00be00050007009d
:100d4000d80007000005be006eff37000000050058
:100d500003f0a200889fbe008a9fbe008c1f78000f
:100d600039010700400133006450e1004f003200b8
:100d70006420e1005200320003826c0007003b0057
:100d80000905d0000306d000820f54000c065d0058
:100d90000200390002003200890178000306780061
:100da0008582550004003d000003fd008103fd0025
:100db0008502ea008b854200840f720002003b002e
:100dc00060001000e08018006011b8000005eb0022
:100dd0007a28e1000a00390006007800c75ddd00ce
:100de000f707b200878075002d00370082817100ff
:100df0000a017800610560008180d1000080d30085
:100e00008502e900f9ff3b000604400087844800a2
:100e100002003b0060041400e0841c000988a30069
:100e2000070032008a8171008281710061016400d3
:100e30008904d1000884d3008b05e800170037002f
:100e40000978a30013003a000b00e00013003400ff
:100e50008b05e9000804440089844c000a447400ae
:100e60000978a3000d003a000b00e00007003400f1
:100e70008b05e9000804440089844c0001003a0015
:100e80000b0020000978a300f7ff32000001eb00ff
:100e900002003700828171000a017800af0007006c
:100ea0000cf0a70001f0a000f80037006420e1007a
:100eb00002003a00838f6c00f80033000801be0086
:100ec0000200be00f10037000001eb004a000700fd
:100ed000040032000200200003f8230001f0a60005
:100ee0009cff0700000006000081eb002201370094
:100ef000889fbe008a9fbe008c1f7800d20007002a
:100f0000d900330003866c006450e1002e003200eb
:100f10006420e100330032006150e1002f00320014
:100f20006120e1003100320085855500eb07b000fb
:100f300009002000080420000500370008044400d0
:100f400089844c000a0031000603430087834b006c
:100f50000001530081815b00f8ff33000203be00f3
:100f60000800a0000804440089844c00f6ff390002
:100f7000c639dd0083017300010032001300200038
:100f80008904d1000884d3000998a3000500320029
:100f90000800a7000300a0008904d1000884d30042
:100fa0008b05e8008904d1000884d3000001eb0020
:100fb0000281d2006900070001f0a1000cf0a70037
:100fc00001f0a000b10037006420e100b30032005e
:100fd0000801be000200be00f7ff37006120e100fb
:100fe000ae0032006000b800f3ff370000002000c0
:100ff00001f82700f0ff3700889fbe008a9fbe00df
:101000000003be007b000700850578008281520046
:10101000020020006220e10004003a00f307b10062
:10102000040035007718e100040035000600be001a
:10103000140037006000b8000f003700f50f2000e3
:10104000faff2f008502d1000a85d3008301e90051
:10105000fcff3b008184620000046500890f74007e
:10106000f2ff32008582ea000a85ea00818462008c
:10107000000465003900070007f0a70001f0a00098
:101080000081eb000200e0004f05be004f04be00ef
:10109000000006001400200022013700f4ff2f009a
:1010a000200137000001be00520007000470a700b5
:1010b00003f0a1006509b100160032000d003500f3
:1010c0006828e10006003500f0ff2f00f1ff27003f
:1010d0000300e00013003b000100280000000500b1
:1010e00000004000818048008502e900fcff3a00d2
:1010f00008003700f88f420002003c008000eb003f
:10110000000005008100d1000080d3008502e800c6
:10111000fcff3a000300e00002003b00600010000a
:10112000e0801800000006004f89de008201780090
:10113000170137000001eb00afff07000400320089
:101140000200200003f8230001f0a70000ff0700c1
:101150000000060004002000f2003700810020009b
:10116000618055000b003d000b00200061fe2f0048
:101170000100e1001d003400828171006101640002
:101180008904d1000884d3000000e800faff3a0087
:101190007100200061006400030070000200600024
:1011a0000900320061044400e0844c000988a50075
:1011b000050032008b05e8006808e10002003a00f3
:1011c0008904d1000884d300f20f20000258e10006
:1011d00005003d00c75ddd00f907b200898075009c
:1011e00008007800000006000bf827008b0078004c
:1011f00000000500c70ade00f107b200f50fb200db
:1012000008003200e1cf4200020032000170a0006d
:1012100024000500810f7000010032000408050061
:1012200044000500810f700002003a001400050020
:101230008502e9000000400081c04800fcff3b003f
:101240000170a000240005000004be00e9ff0700b3
:101250000003be000405be000200be00e5ff07005b
:10126000844f7500000006000200be006450e100db
:10127000050036006420e100020036000968a30082
:1012800001003a000800be000160a0004f0678008f
:101290004f05be004f04be0000000600f0ff2f0007
:1012a000f1ff2700f9ff3700889fbe008a9fbe002c
:1012b0008c1f7800e4ff0700ebff330003866c000f
:1012c0006450e100240032006420e1002700320075
:1012d0006150e100220032006120e1002100320073
:1012e0008b854200eb07b1000134b800003ab8002a
:1012f0000804420089844a00013ab8000030b8006e
:101300008880400009014a000400330000004000ca
:1013100081804800020149008b05e900c909dd0010
:10132000830170000100320013002000c814de00a9
:101330004814dd004709de001200b200c808de00d4
:101340000884700085ff070001f0a1000cf0a700e1
:1013500001f0a000cdff37006120e100cfff320097
:101360000801be000200be00f7ff37006150e10037
:10137000fcff3a00c9ff3700889fbe008a9fbe006d
:101380008c9fbe00820578000004be0099ff070014
:101390000800be006420e1000700390002003a00a6
:1013a000f1ff2700f0ff2f000160a00012022000d3
:1013b00002408800550037006120e10003003a0038
:1013c0000b00a70001f823005000370001f0a10036
:1013d00002002100936424002eff07000800be00d5
:1013e00004003500b2fd2000930c2400a700070084
:1013f0000004be000005eb000b00a6004f0dde0050
:1014000001f0a1000004be0032982f0023ea23005f
:10141000a5ff07000001eb0003f023000b00a7006d
:1014200003f823004bfe07001eff07000000a70083
:101430000a00a2003cff07000b00e000030032009e
:101440000200200003f0230041fe070001f0a2008b
:101450000006be00020020009304240092ff070053
:101460000801be003bfe0700809fbe000c00be00ce
:1014700022a22a00d3a723008bff07004f01be0042
:1014800034fe07000004be0001f0a10002002000ad
:1014900003982300fffe07000800be001900350076
:1014a0000001be0080ff07000006be00b2c5290093
:1014b000e36223007cff070022222b00f3942b0021
:1014c00024fe07000c01be0077ff0700e27328002e
:1014d00083c023001ffe07000c01be0072ff07003f
:1014e00042aa2a00a3e22b001afe07000c01be004c
:1014f0006dff07000801be006bff07000801be007a
:1015000014fe07000a00a70001f0a2004f06be006b
:101510004f05be004f04be00000006000001eb00b6
:1015200095ff3700889fbe008a9fbe00841f780009
:1015300045ff07004f00780011003300f0ff2f0037
:10154000838f6c0006003b00040565000a00a700bd
:101550000800370009f0a60010002000080037003e
:10156000820f5400838f5c000300390010002000bc
:1015700001003e000000200009f0a7000000ea0082
:101580004f05be004f04be000000e0000000060052
:10159000881f7800030478000300e00007003d0086
:1015a00060001000e080180060011900e08119005f
:1015b00002003b0001f02d0003003700040007008b
:1015c00008f0a70001f0a0004f047800000006001a
:1015d000889fbe008a9fbe000082700004027100d6
:1015e00004827100260032000004be000200be002a
:1015f0006011b8006b092000950220000182cf0025
:101600000a0039000541b1000082cf00070039000f
:101610000541b1000982cf00040039000541b10045
:101620000882cf00010039000541b1000542520097
:10163000120032000a003b008281710061016400e7
:101640008100d1000080d3008984d3000884d300b6
:101650008b05e8000442e800f7ff3a000700370076
:101660000804440089844c00000048008180480040
:101670008b05e9000442e900f9ff3a00b7fe0700d4
:101680004f05be004f04be0000000600040020000d
:1016900000003700889fbe008a9fbe008c1f780024
:1016a0004f26dd00e8fe0700effe33006120e10079
:1016b000430032006250e10041003e003e0039002c
:1016c0006420e1003c003200058255000f003b0021
:1016d0000402e80038003a00800f5300818f5b005d
:1016e000350034000800be0003f0a10001f0a600a0
:1016f00003f0a0000cf0a70096fd0700e3fe370002
:101700000603430087834b000c4646000005530048
:1017100081855b00020033000a03be000c00a000bc
:101720000402e900f6ff3b0085057800060243004d
:1017300087824b0004003a006000b80009f0a7005f
:1017400001f0a000d1fe37000002520081825a0051
:101750000704e000040033000603430087834b00c6
:101760008b05e900faff3700090578000604be0082
:101770000203be006011b80078fe0700e00f5200bf
:10178000e08f5a000700350002003c000c08a3005f
:10179000040032000601be0003f0a0000cf0a70018
:1017a0006cfd07000a85680001f0a1000af0a7009f
:1017b00001f0a000b5fe37000800be00b3fe370000
:1017c000100220000cf0a60000408800b3fe370095
:020000040000fa
:1017d000702200002e0800000200000000008100be
:1017e0000001010082010200028302000303840061
:1017f000030404008504050005860500060687002d
:1018000006070700880708000889080009098a00f8
:10181000090a0a008b0a0b000b8c0b000c0c8d00c4
:101820000c0d0d008e0d0e000e8f0e000f0f900090
:101830000f1010009110110011921100121293005c
:101840001213130094131400149514001515960028
:1018500015161600971617001798170018189900f4
:10186000181919009a191a001a9b1a001b1b9c00c0
:101870001b1c1c009d1c1d001d9e1d001e1e9f008c
:101880001e1f1f00a01f200020a120002121a20058
:1018900021222200a322230023a423002424a50024
:1018a00024252500a625260026a726002727a800f0
:1018b00027282800a928290029aa29002a2aab00bc
:1018c0002a2b2b00ac2b2c002cad2c002d2dae0088
:1018d0002d2e2e00af2e2f002fb02f003030b10054
:1018e00030313100b231320032b332003333b40020
:1018f00033343400b534350035b635003636b700ec
:1019000036373700b837380038b938003939ba00b7
:10191000393a3a00bb3a3b003bbc3b003c3cbd0083
:101920003c3d3d00be3d3e003ebf3e003f3fc0004f
:101930003f404000c140410041c241004242c3001b
:1019400042434300c443440044c544004545c600e7
:1019500045464600c746470047c847004848c900b3
:1019600048494900ca494a004acb4a004b4bcc007f
:101970004b4c4c00cd4c4d004dce4d004e4ecf004b
:101980004e4f4f00d04f500050d150005151d20017
:1019900051525200d352530053d453005454d500e3
:1019a00054555500d655560056d756005757d800af
:1019b00057585800d958590059da59005a5adb007b
:1019c0005a5b5b00dc5b5c005cdd5c005d5dde0047
:1019d0005d5e5e00df5e5f005fe05f006060e10013
:1019e00060616100e261620062e362006363e400df
:1019f00063646400e564650065e665006666e700ab
:101a000066676700e867680068e968006969ea0076
:101a1000696a6a00eb6a6b006bec6b006c6ced0042
:101a20006c6d6d00ee6d6e006eef6e006f6ff0000e
:101a30006f707000f170710071f271007272f300da
:101a400072737300f473740074f574007575f600a6
:101a500075767600f776770077f877007878f90072
:101a600078797900fa797a007afb7a007b7bfc003e
:101a70007b7c7c00fd7c7d007dfe7d007e7eff000a
:101a80007e7f7f0000800000008100000101820055
:101a900001020200830203000384030004048500a2
:101aa000040505008605060006870600070788006e
:101ab0000708080089080900098a09000a0a8b003a
:101ac0000a0b0b008c0b0c000c8d0c000d0d8e0006
:101ad0000d0e0e008f0e0f000f900f0010109100d2
:101ae000101111009211120012931200131394009e
:101af000131414009514150015961500161697006a
:101b000016171700981718001899180019199a0035
:101b1000191a1a009b1a1b001b9c1b001c1c9d0001
:101b20001c1d1d009e1d1e001e9f1e001f1fa000cd
:101b30001f202000a120210021a221002222a30099
:101b400022232300a423240024a524002525a60065
:101b500025262600a726270027a827002828a90031
:101b600028292900aa292a002aab2a002b2bac00fd
:101b70002b2c2c00ad2c2d002dae2d002e2eaf00c9
:101b80002e2f2f00b02f300030b130003131b20095
:101b900031323200b332330033b433003434b50061
:101ba00034353500b635360036b736003737b8002d
:101bb00037383800b938390039ba39003a3abb00f9
:101bc0003a3b3b00bc3b3c003cbd3c003d3dbe00c5
:101bd0003d3e3e00bf3e3f003fc03f004040c10091
:101be00040414100c241420042c342004343c4005d
:101bf00043444400c544450045c645004646c70029
:101c000046474700c847480048c948004949ca00f4
:101c1000494a4a00cb4a4b004bcc4b004c4ccd00c0
:101c20004c4d4d00ce4d4e004ecf4e004f4fd0008c
:101c30004f505000d150510051d251005252d30058
:101c400052535300d453540054d554005555d60024
:101c500055565600d756570057d857005858d900f0
:101c600058595900da595a005adb5a005b5bdc00bc
:101c70005b5c5c00dd5c5d005dde5d005e5edf0088
:101c80005e5f5f00e05f600060e160006161e20054
:101c900061626200e362630063e463006464e50020
:101ca00064656500e665660066e766006767e800ec
:101cb00067686800e968690069ea69006a6aeb00b8
:101cc0006a6b6b00ec6b6c006ced6c006d6dee0084
:101cd0006d6e6e00ef6e6f006ff06f007070f10050
:101ce00070717100f271720072f372007373f4001c
:101cf00073747400f574750075f675007676f700e8
:101d000076777700f877780078f978007979fa00b3
:101d1000797a7a00fb7a7b007bfc7b007c7cfd007f
:101d20007c7d7d00fe7d7e007eff7e007f7f00004b
:101d300080003c000000ae003d0000005c3f000061
:101d4000000a41000000b8004200000066440000a4
:101d5000001446000000c200470000007049000067
:101d6000001e4b000000cc004c0000007a4e00002a
:101d7000002850000000d6005100000084530000ed
:101d8000003255000000e000560000008e580000b0
:101d9000003c5a000000ea005b000000985d000073
:101da00000465f000000f40060000000a262000036
:101db000005064000000fe0065000000ac670000f9
:101dc000005a6900000008006b000000b66c0000bb
:101dd00000646e000000120070000000c07100007e
:101de000006e730000001c0075000000ca76000041
:101df00000787800000026007a000000d47b000004
:101e000000827d00000030007f000000de800000c6
:101e1000008c820000003a0084000000e885000089
:101e2000009687000000440089000000f28a00004c
:101e300000a08c0000004e008e000000fc8f00000f
:101e400000aa9100000058009300000006950000d1
:101e500000b496000000620098000000109a000094
:101e600000be9b0000006c009d0000001a9f000057
:101e700000c8a00000007600a200000024a400001a
:101e800000d2a50000008000a70000002ea90000dd
:101e900000dcaa0000008a00ac00000038ae0000a0
:101ea00000e6af0000009400b100000042b3000063
:101eb00000f0b40000009e00b60000004cb8000026
:101ec00000fab9000000a800bb00000056bd0000e9
:101ed0000004bf000000b200c000000060c20000ab
:101ee000000ec4000000bc00c50000006ac700006e
:101ef0000018c9000000c600ca00000074cc000031
:101f00000022ce000000d000cf0000007ed10000f3
:101f1000002cd3000000da00d400000088d60000b6
:101f20000036d8000000e400d900000092db000079
:101f30000040dd000000ee00de0000009ce000003c
:101f4000004ae2000000f800e3000000a6e50000ff
:101f50000054e70000000200e9000000b0ea0000c1
:101f6000005eec0000000c00ee000000baef000084
:101f70000068f10000001600f3000000c4f4000047
:101f80000072f60000002000f8000000cef900000a
:101f9000007cfb0000002a00fd000000d8fe0000cd
:101fa000008600000100340002010000e20301008d
:101fb0000090050001003e0007010000ec08010050
:101fc000009a0a00010048000c010000f60d010013
:101fd00000a40f00010052001101000000130100d5
:101fe00000ae140001005c00160100000a18010098
:101ff00000b81900010066001b010000141d01005b
:1020000000c21e0001007000200100001e2201001d
:1020100000cc230001007a002501000028270100e0
:1020200000d62800010084002a010000322c0100a3
:1020300000e02d0001008e002f0100003c31010066
:1020400000ea320001009800340100004636010029
:1020500000f437000100a20039010000503b0100ec
:1020600000fe3c000100ac003e0100005a400100af
:10207000000842000100b600430100006445010071
:10208000001247000100c000480100006e4a010034
:10209000001c4c000100ca004d010000784f0100f7
:1020a000002651000100d4005201000082540100ba
:1020b000003056000100de00570100008c5901007d
:1020c000003a5b000100e8005c010000965e010040
:1020d000004460000100f20061010000a063010003
:1020e000004e65000100fc0066010000aa680100c6
:1020f00000586a00010006006c010000b46d010088
:1021000000626f000100100071010000be7201004a
:10211000006c740001001a0076010000c87701000d
:1021200000767900010024007b010000d27c0100d0
:1021300000807e0001002e0080010000dc81010093
:10214000008a83000100380085010000e686010056
:1021500000948800010042008a010000f08b010019
:10216000009e8d0001004c008f010000fa900100dc
:1021700000a892000100560094010000049601009e
:1021800000b2970001006000990100000e9b010061
:1021900000bc9c0001006a009e01000018a0010024
:1021a00000c6a10001007400a301000022a50100e7
:1021b00000d0a60001007e00a80100002caa0100aa
:1021c00000daab0001008800ad01000036af01006d
:1021d00000e4b00001009200b201000040b4010030
:1021e00000eeb50001009c00b70100004ab90100f3
:1021f00000f8ba000100a600bc01000054be0100b6
:102200000002c0000100b000c10100005ec3010077
:10221000000cc5000100ba00c601000068c801003a
:102220000016ca000100c400cb01000072cd0100fd
:102230000020cf000100ce00d00100007cd20100c0
:10224000002ad4000100d800d501000086d7010083
:102250000034d9000100e200da01000090dc010046
:10226000003ede000100ec00df0100009ae1010009
:102270000048e3000100f600e4010000a4e60100cc
:102280000016e800010001000000400000400000ce
:10229000800080003200b4005f0000006400010094
:1022a00002030100020301000000c800ffff01005b
:1022b00000010000010000003c00000001000100de
:1022c00000020000000e000070140000000000007a
:1022d0000046000000020000000000000044000072
:1022e00000020000000000000042000000020000a8
:1022f000000000000040000000020000000000009c
:10230000003c00000002000000000000000a000085
:102310000002000000000000000c000000020000ad
:10232000000000009e2a00002008000002000000bb
:1023300000002000004000006000810000a10000bb
:10234000c100e10000010100210141000161010023
:102350008201a20001c20100e20102000222020089
:102360004202620002830200a302c30002e30200f1
:1023700003032300034303006303840003a4030057
:10238000c403e400030404002404440004640400bf
:102390008504a50004c50400e50405000525050025
:1023a0004505650005860500a605c60005e605008d
:1023b00006062600064606006606870006a70600f3
:1023c000c706e7000607070027074700076707005b
:1023d0008807a80007c80700e807080008280800c1
:1023e0004808680008890800a908c90008e9080029
:1023f000090929000949090069098a0009aa09008f
:10240000ca09ea00090a0a002a0a4a000a6a0a00f6
:102410008b0aab000acb0a00eb0a0b000b2b0b005c
:102420004b0b6b000b8c0b00ac0bcc000bec0b00c4
:102430000c0c2c000c4c0c006c0c8d000cad0c002a
:10244000cd0ced000c0d0d002d0d4d000d6d0d0092
:102450008e0dae000dce0d00ee0d0e000e2e0e00f8
:102460004e0e6e000e8f0e00af0ecf000eef0e0060
:102470000f0f2f000f4f0f006f0f90000fb00f00c6
:10248000d00ff0000f10100030105000107010002e
:102490009110b10010d11000f11011001131110094
:1024a0005111710011921100b211d20011f21100fc
:1024b00012123200125212007212930012b3120062
:1024c000d312f300121313003313530013731300ca
:1024d0009413b40013d41300f41314001434140030
:1024e0005414740014951400b514d50014f5140098
:1024f00015153500155515007515960015b61500fe
:10250000d615f60015161600361656001676160065
:102510009716b70016d71600f716170017371700cb
:102520005717770017981700b817d80017f8170033
:1025300018183800185818007818990018b9180099
:10254000d918f90018191900391959001979190001
:102550009a19ba0019da1900fa191a001a3a1a0067
:102560005a1a7a001a9b1a00bb1adb001afb1a00cf
:102570001b1b3b001b5b1b007b1b9c001bbc1b0035
:10258000dc1bfc001b1c1c003c1c5c001c7c1c009d
:102590009d1cbd001cdd1c00fd1c1d001d3d1d0003
:1025a0005d1d7d001d9e1d00be1dde001dfe1d006b
:1025b0001e1e3e001e5e1e007e1e9f001ebf1e00d1
:1025c000df1eff001e1f1f003f1f5f001f7f1f0039
:1025d000a01fc0001fe01f000020000020202000de
:1025e0004020600020812000a120c10020e12000c7
:1025f00001212100214121006121820021a221002d
:10260000c221e20021022200222242002262220094
:102610008322a30022c32200e322030023232300fa
:102620004323630023842300a423c40023e4230062
:1026300004242400244424006424850024a52400c8
:10264000c524e50024052500252545002565250030
:102650008625a60025c62500e62506002626260096
:102660004626660026872600a726c70026e72600fe
:1026700007272700274727006727880027a8270064
:10268000c827e800270828002828480028682800cc
:102690008928a90028c92800e92809002929290032
:1026a00049296900298a2900aa29ca0029ea29009a
:1026b0000a2a2a002a4a2a006a2a8b002aab2a0000
:1026c000cb2aeb002a0b2b002b2b4b002b6b2b0068
:1026d0008c2bac002bcc2b00ec2b0c002c2c2c00ce
:1026e0004c2c6c002c8d2c00ad2ccd002ced2c0036
:1026f0000d2d2d002d4d2d006d2d8e002dae2d009c
:10270000ce2dee002d0e2e002e2e4e002e6e2e0003
:102710008f2eaf002ecf2e00ef2e0f002f2f2f0069
:102720004f2f6f002f902f00b02fd0002ff02f00d1
:1027300010303000305030007030910030b1300037
:10274000d130f1003011310031315100317131009f
:102750009231b20031d23100f23112003232320005
:102760005232720032933200b332d30032f332006d
:1027700013333300335333007333940033b43300d3
:10278000d433f4003314340034345400347434003b
:102790009534b50034d53400f534150035353500a1
:1027a0005535750035963500b635d60035f6350009
:1027b00016363600365636007636970036b736006f
:1027c000d736f700361737003737570037773700d7
:1027d0009837b80037d83700f8371800383838003d
:1027e0005838780038993800b938d90038f93800a5
:1027f000193939003959390079399a0039ba39000b
:10280000da39fa00391a3a003a3a5a003a7a3a0072
:102810009b3abb003adb3a00fb3a1b003b3b3b00d8
:102820005b3b7b003b9c3b00bc3bdc003bfc3b0040
:102830001c3c3c003c5c3c007c3c9d003cbd3c00a6
:10284000dd3cfd003c1d3d003d3d5d003d7d3d000e
:102850009e3dbe003dde3d00fe3d1e003e3e3e0074
:102860005e3e7e003e9f3e00bf3edf003eff3e00dc
:102870001f3f3f003f5f3f007f3fa0003fc03f0042
:10288000e03f000040004000204040004060400029
:102890008140a10040c14000e140010041214100d0
:1028a0004141610041824100a241c20041e2410038
:1028b00002422200424242006242830042a342009e
:1028c000c342e30042034300234343004363430006
:1028d0008443a40043c44300e4430400442444006c
:1028e0004444640044854400a544c50044e54400d4
:1028f00005452500454545006545860045a645003a
:10290000c645e600450646002646460046664600a1
:102910008746a70046c74600e74607004727470007
:102920004747670047884700a847c80047e847006f
:1029300008482800484848006848890048a94800d5
:10294000c948e9004809490029494900496949003d
:102950008a49aa0049ca4900ea490a004a2a4a00a3
:102960004a4a6a004a8b4a00ab4acb004aeb4a000b
:102970000b4b2b004b4b4b006b4b8c004bac4b0071
:10298000cc4bec004b0c4c002c4c4c004c6c4c00d9
:102990008d4cad004ccd4c00ed4c0d004d2d4d003f
:1029a0004d4d6d004d8e4d00ae4dce004dee4d00a7
:1029b0000e4e2e004e4e4e006e4e8f004eaf4e000d
:1029c000cf4eef004e0f4f002f4f4f004f6f4f0075
:1029d000904fb0004fd04f00f04f100050305000db
:1029e0005050700050915000b150d10050f1500043
:1029f00011513100515151007151920051b25100a9
:102a0000d251f20051125200325252005272520010
:102a10009352b30052d35200f35213005333530076
:102a20005353730053945300b453d40053f45300de
:102a300014543400545454007454950054b5540044
:102a4000d554f500541555003555550055755500ac
:102a50009655b60055d65500f65516005636560012
:102a60005656760056975600b756d70056f756007a
:102a700017573700575757007757980057b85700e0
:102a8000d857f80057185800385858005878580048
:102a90009958b90058d95800f958190059395900ae
:102aa00059597900599a5900ba59da0059fa590016
:102ab0001a5a3a005a5a5a007a5a9b005abb5a007c
:102ac000db5afb005a1b5b003b5b5b005b7b5b00e4
:102ad0009c5bbc005bdc5b00fc5b1c005c3c5c004a
:102ae0005c5c7c005c9d5c00bd5cdd005cfd5c00b2
:102af0001d5d3d005d5d5d007d5d9e005dbe5d0018
:102b0000de5dfe005d1e5e003e5e5e005e7e5e007f
:102b10009f5ebf005edf5e00ff5e1f005f3f5f00e5
:102b20005f5f7f005fa05f00c05fe0005f0060004c
:102b300000602000604060006060810060a1600073
:102b4000c160e100600161002161410061616100db
:102b50008261a20061c26100e26102006222620041
:102b60004262620062836200a362c30062e36200a9
:102b700003632300634363006363840063a463000f
:102b8000c463e40063046400246444006464640077
:102b90008564a50064c56400e564050065256500dd
:102ba0004565650065866500a665c60065e6650045
:102bb00006662600664666006666870066a76600ab
:102bc000c766e70066076700276747006767670013
:102bd0008867a80067c86700e86708006828680079
:102be0004868680068896800a968c90068e96800e1
:102bf000096929006949690069698a0069aa690047
:102c0000ca69ea00690a6a002a6a4a006a6a6a00ae
:102c10008b6aab006acb6a00eb6a0b006b2b6b0014
:102c20004b6b6b006b8c6b00ac6bcc006bec6b007c
:102c30000c6c2c006c4c6c006c6c8d006cad6c00e2
:102c4000cd6ced006c0d6d002d6d4d006d6d6d004a
:102c50008e6dae006dce6d00ee6d0e006e2e6e00b0
:102c60004e6e6e006e8f6e00af6ecf006eef6e0018
:102c70000f6f2f006f4f6f006f6f90006fb06f007e
:102c8000d06ff0006f1070003070500070707000e6
:102c90009170b10070d17000f1701100713171004c
:102ca0005171710071927100b271d20071f27100b4
:102cb00012723200725272007272930072b372001a
:102cc000d372f30072137300337353007373730082
:102cd0009473b40073d47300f473140074347400e8
:102ce0005474740074957400b574d50074f5740050
:102cf00015753500755575007575960075b67500b6
:102d0000d675f6007516760036765600767676001d
:102d10009776b70076d77600f77617007737770083
:102d20005777770077987700b877d80077f87700eb
:102d300018783800785878007878990078b9780051
:102d4000d978f900781979003979590079797900b9
:102d50009a79ba0079da7900fa791a007a3a7a001f
:102d60005a7a7a007a9b7a00bb7adb007afb7a0087
:102d70001b7b3b007b5b7b007b7b9c007bbc7b00ed
:102d8000dc7bfc007b1c7c003c7c5c007c7c7c0055
:102d90009d7cbd007cdd7c00fd7c1d007d3d7d00bb
:102da0005d7d7d007d9e7d00be7dde007dfe7d0023
:102db0001e7e3e007e5e7e007e7e9f007ebf7e0089
:102dc000df7eff007e1f7f003f7f5f007f7f7f00f1
:102dd000a07fc0007fe07f000080000080007000c6
:102de0000060000050004000003000002000100093
:102df0000010000020003000004000005000600083
:102e000000700000800000000008000002000000c8
:082e10000000000000000000ba
:020000040000fa
:102e18004382a9004362a9004342a9004302a800d3
:102e280042e2a90042c2a90042a2a8004322a90086
:102e38001112800030fe2f00008060004001b300b6
:102e480010128800101280003000b30010128800a1
:102e58004422ef00000006000400fa0000c4b3009a
:102e6800c0ff9f00cc62a9002000200001002000c4
:102e7800ee08070040c2a90041e2a8004012800005
:102e8800f0bf9f00100020004012880000000000e2
:102e980000128000610060000000e000fcff3200ca
:102ea800cff897000180fb00401288000000000066
:102eb80000128000610060000000e000fcff3200aa
:102ec80040128000f0bf9f00500020004012880090
:102ed8000000000000128000610060000000e000b7
:102ee800fcff32004822ef000000000000128000c2
:102ef800610060000000e000fcff3200401280002a
:102f0800f0bf9f00cc62a8000080fa000000060015
:102f18001200fa00c0bf9f00d2bf9f00e3bf9f000e
:102f2800f1bf9f000040eb00e0ef9f000040eb0086
:102f3800f0ef9f000040eb0080f79f007fb89700fc
:102f48004880de0090bf9f00ffb89700f00f200078
:102f580000806000a0bf9f000000eb00b0bf9f0092
:102f68005fb89700efb897004008de00e0ef9f00d9
:102f78005fb89700efb897004809dd004800de0009
:102f880000007100c808de00f0ef9f005fb89700ee
:102f980080f79f004fb897000000e00002003a0059
:102fa800cc62a9000b0037004fb89700e10f500022
:102fb80002003a00cca2a900060037004fb89700db
:102fc800e20f500002003a00c482a9000100370055
:102fd800cc82a90040c2a90041e2a80040128000aa
:102fe800b0bf9f00200020004012880000000000b1
:102ff80000128000610060000000e000fcff320069
:1030080040c2a90040128000b0bf9f00efe89700bf
:103018000100fb0040128800000000000012800040
:10302800610060000000e000fcff320040c2a9001f
:1030380040128000b0bf9f007fe897000000fb00af
:10304800401288000000000000128000610060004b
:103058000000e000fcff320040c2a90040128000de
:10306800b0bf9f000ff097000000fb0040128800df
:103078000000000000128000610060000000e00015
:10308800fcff320040c2a90040128000b0bf9f0080
:103098001fb897004012880000000000001280004e
:1030a800610060000000e000fcff320040c2a9009f
:1030b80040128000b0bf9f002fb8970040128800d0
:1030c8000000000000128000610060000000e000c5
:1030d800fcff32004fb897000000e00002003a0001
:1030e800cc62a8000b0037004fb89700e10f5000e2
:1030f80002003a00cca2a800060037004fb897009b
:10310800e20f500002003a00c482a8000100370014
:10311800cc82a8000080fa00000006001400fa0023
:10312800c0bf9f00d2bf9f00e3bf9f00f1bf9f00b9
:103138000040eb00e0ef9f000040eb00f0ef9f0045
:103148000040eb0080f79f000000eb0090bf9f005d
:103158000000eb00a0bf9f000000eb00b0bf9f0085
:103168005fb89700efb897004008de00e0ef9f00d7
:103178005fb89700efb897004809dd004800de0007
:1031880000007100c808de00f0ef9f005fb89700ec
:1031980080f79f004fb897000000e00002003a0057
:1031a800cc62a9000b0037004fb89700e10f500020
:1031b80002003a00cca2a900060037004fb89700d9
:1031c800e20f500002003a00c482a9000100370053
:1031d800cc82a90040c2a90041e2a80040128000a8
:1031e800b0bf9f00200020004012880000000000af
:1031f80000128000610060000000e000fcff320067
:1032080040c2a90040128000b0bf9f006fe897003d
:103218000000fb004012880000000000001280003f
:10322800610060000000e000fcff320040c2a9001d
:1032380040128000b0bf9f007fe897000000fb00ad
:103248004012880000000000001280006100600049
:103258000000e000fcff320040c2a90040128000dc
:10326800b0bf9f000ff097000000fb0040128800dd
:103278000000000000128000610060000000e00013
:10328800fcff32000000eb00e0b79f00260037008b
:103298006fb0970000004000ffb897000080400022
:1032a800100078004880de0090bf9f006fb0970044
:1032b80000004000ffb897000080400090007800b0
:1032c800f00f200000806000a0bf9f0040c2a9004e
:1032d80040128000b0bf9f001fb8970040128800be
:1032e8000000000000128000610060000000e000a3
:1032f800fcff320040c2a90040128000b0bf9f000e
:103308002fb89700401288000000000000128000cb
:10331800610060000000e000fcff3200efb09700a1
:103328008100e800e1b79f00f00f2000efb09700a0
:10333800808f5000d6ff34004fb897000000e0009f
:1033480002003a00cc62a8000b0037004fb8970083
:10335800e10f500002003a00cca2a8000600370096
:103368004fb89700e20f500002003a00c482a8004c
:1033780001003700cc82a8000080fa000000060097
:103388001000fa00d0bf9f00e2bf9f00f3bf9f006c
:103398000040eb0080f79f000040eb0090f79f0093
:1033a8000040eb00a0f79f000000eb00a0bf9f00cb
:1033b8000000eb00b0bf9f000000eb00c0bf9f0003
:1033c8006fb89700ffb897004008de0080f79f00ad
:1033d8006fb89700ffb897004809dd004800de0085
:1033e80000007100c808de0090f79f006fb89700d2
:1033f800a0f79f005fb897000000e00002003a00c5
:10340800cc62a9000b0037005fb89700e10f5000ad
:1034180002003a00cca2a900060037005fb8970066
:10342800e20f500002003a00c482a90001003700f0
:10343800cc82a90040c2a90041e2a8004012800045
:10344800a0bf9f003000200040128800000000004c
:1034580000128000610060000000e000fcff320004
:1034680040c2a90040128000a0bf9f008ff09700c3
:103478000100fb00401288000000000000128000dc
:10348800610060000000e000fcff320040c2a900bb
:1034980040128000a0bf9f001ff097000000fb00b3
:1034a80040128800000000000012800061006000e7
:1034b8000000e000fcff320040c2a900401280007a
:1034c800a0bf9f002ff097000000fb00401288006b
:1034d8000000000000128000610060000000e000b1
:1034e800fcff320040128000a0bf9f004822ef007e
:1034f8000000000000128000610060000000e00091
:10350800fcff320040128000b0bf9f004822ef004d
:103518000000000000128000610060000000e00070
:10352800fcff320040128000c0bf9f005fb89700c8
:103538000000e00002003a00cc62a8000b0037004f
:103548005fb89700e10f500002003a00cca2a80033
:10355800060037005fb89700e20f500002003a00fb
:10356800c482a80001003700cc82a8003fb89700a9
:10357800c800dd004fb8970001007000a0bf9f0091
:103588002fb897000080fa00000006001600fa0025
:10359800b0bf9f00c2bf9f00d3bf9f00e1bf9f0085
:1035a800f4bf9f000040eb00c0ef9f000040eb001d
:1035b800d0ef9f000040eb00e0ef9f000000eb0021
:1035c80080bf9f000000eb0090bf9f000000eb0051
:1035d800a0bf9f004fb89700dfb897004008de00f3
:1035e800c0ef9f004fb89700dfb897004809dd008b
:1035f8004800de0000007100c808de00d0ef9f0020
:103608004fb89700e0ef9f003fb897000000e00038
:1036180002003a00cc62a9000b0037003fb89700bf
:10362800e10f500002003a00cca2a90006003700c2
:103638003fb89700e20f500002003a00c482a90088
:1036480001003700cc82a90040c2a90041e2a800cd
:103658004012800080bf9f00300020004012880088
:103668000000000000128000610060000000e0001f
:10367800fcff320040c2a9004012800080bf9f00ba
:103688004fe897000000fb0040128800000000008f
:1036980000128000610060000000e000fcff3200c2
:1036a80040c2a9004012800080bf9f005fe89700d9
:1036b8000000fb004012880000000000001280009b
:1036c800610060000000e000fcff320040c2a90079
:1036d8004012800080bf9f006fe897000000fb0049
:1036e80040128800000000000012800061006000a5
:1036f8000000e000fcff32000000eb00d0b79f00a4
:103708001e0037004012800080bf9f004822ef0053
:103718000000000000128000610060000000e0006e
:10372800fcff32004012800090bf9f004822ef004b
:103738000000000000128000610060000000e0004e
:10374800fcff320040128000a0bf9f005fb09700ce
:1037580000004000efb89700008040009fb8970035
:103768004809dd00afb89700828070000108780032
:10377800dfb097008100e800d1b79f007fb89700bd
:10378800dfb09700808f5000deff35003fb897000c
:103798000000e00002003a00cc62a8000b003700ed
:1037a8003fb89700e10f500002003a00cca2a800f1
:1037b800060037003fb89700e20f500002003a00b9
:1037c800c482a80001003700cc82a8000080fa005b
:1037d800000006002600fa00b0bf9f00c2bf9f008d
:1037e800d3bf9f00e1bf9f00e4ff9f000040eb00b4
:1037f800a0df9f000040eb00b0df9f000040eb001f
:10380800c0df9f0002e02f00130020004fb8970090
:10381800dfb8970000005100818059008100d10075
:103828000080d300a0b79f00b1b79f00021020000e
:10383800030020002fb09700bfb097000000510090
:1038480081805900c0b79f00d1b79f00afb09700e3
:103858004fb0970091bf9f00a0bf9f000000eb00f2
:10386800e0b79f000000eb00f0b79f000000eb00fe
:1038780080bf9f000000eb0080b79f000000eb00b6
:1038880090b79f004fb89700dfb897004008de0058
:10389800a0df9f004fb89700dfb897004809dd0008
:1038a8004800de0000007100c808de00b0df9f009d
:1038b8004fb89700c0df9f009e0037003fb89700c1
:1038c8000000e00002003a00cc62a9000b003700bb
:1038d8003fb89700e10f500002003a00cca2a900bf
:1038e800060037003fb89700e20f500002003a0088
:1038f800c482a90001003700cc82a9001fb097003c
:103908000000e000060034000040eb00a0df9f004c
:103918000040eb00b0df9f000040eb00c0df9f00dd
:1039280040c2a90041e2a80040128000e0b79f0011
:1039380030002000401288000000000000128000c3
:10394800610060000000e000fcff320040c2a900f6
:1039580040128000e0b79f00afd897000100fb003d
:103968004012880000000000001280006100600022
:103978000000e000fcff320040c2a90040128000b5
:10398800e0b79f003fd897000000fb004012880076
:103998000000000000128000610060000000e000ec
:1039a800fcff320040c2a90040128000e0b79f002f
:1039b8004fd897000000fb0040128800000000006c
:1039c80000128000610060000000e000fcff32008f
:1039d8000000eb00f0af9f0021003700401280008c
:1039e800e0b79f004822ef000000000000128000ae
:1039f800610060000000e000fcff3200401280001f
:103a0800f0b79f004822ef0000000000001280007d
:103a1800610060000000e000fcff320040128000fe
:103a280080bf9f000fb0970000004000efb89700dc
:103a380000804000ffb097004809dd008fb897006c
:103a480082807000010878000fb097000000e8003d
:103a580080b79f007fa897000000e800f0af9f00a4
:103a68001fb0970000004000ee8057000080400023
:103a7800900078007fa89700808f5000d7ff3c0007
:103a88003fb897000000e00002003a00cc62a800ae
:103a98000b0037003fb89700e10f500002003a00d2
:103aa800cca2a800060037003fb89700e20f5000ec
:103ab80002003a00c482a80001003700cc82a800a6
:103ac8003fb897000000e800b0bf9f001fb0970004
:103ad8000000e80090b79f006ff897000004e0002e
:103ae80006003a003fb89700e10f5000110034007b
:103af80010002000b0bf9f000e0037006ff897003d
:103b0800e14f500006003a003fb89700e20f50001e
:103b18000800340020002000b0bf9f0005003700d7
:103b28003fb89700e30f5000020034003000200037
:103b3800b0bf9f001fb09700e10f50005fff340037
:103b48000080fa00000006000600fa00c0ff9f008f
:103b5800d1ff9f00f2bf9f004ff897000000fb00c5
:103b68000000400000407800804078000104a00078
:103b7800a1ff9f000602a80000000000301080008e
:103b8800610060000000e000fcff3a00aff8970019
:103b98000100fb00101088000000000041108000a8
:103ba80000002400008060000000e000fbff3a00f5
:103bb8004110800000002800008060000000e00044
:103bc800080032000642a800000000003010800003
:103bd800640060000000e000fcff3a000080eb0099
:103be800210037005ff897000000fb0010108800e4
:103bf80000000000411080000000240000806000e8
:103c08000000e000fbff3a0041108000000028009f
:103c1800008060000000e000080032000642a800b2
:103c28000000000030108000640060000000e00028
:103c3800fcff3a000080eb000b003700001080000a
:103c4800804078007fb89700014878000642a800b5
:103c58000000000030108000640060000000e000f8
:103c6800fcff3a00100020000080fa000000060067
:103c780007e2a90007a2a9000762a9000742a90054
:103c88000722a8000702a90010002000030007006f
:103c98002010880007e2a800000006000200fa00d1
:103ca800f0bf9f007fb897000000e00002003200dc
:103cb800b016200001003700f00320000080fa0051
:103cc800000006000600fa00c0ff9f00d1ff9f0019
:103cd800e2ff9f004ff897000000fb000000400043
:103ce800a0ff9f000602a80000000000301080001e
:103cf800610060000000e000fcff3a00aff89700a8
:103d08000100fb0010108800000000004110800036
:103d180000002400008060000000e000fbff3a0083
:103d28004110800000002800008060000000e000d2
:103d3800080032000642a800000000003010800091
:103d4800640060000000e000fcff3a000080eb0027
:103d5800330037005ff897000000fb001010880060
:103d68000000000041108000000024000080600076
:103d78000000e000fbff3a0041108000000028002e
:103d8800008060000000e000080032000642a80041
:103d98000000000030108000640060000000e000b7
:103da800fcff3a000080eb001d0037006ff8970019
:103db8000000fb0010108800000000004110800087
:103dc80000002400008060000000e000fbff3a00d3
:103dd8004110800000002800008060000000e00022
:103de800080032000642a8000000000030108000e1
:103df800640060000000e000fcff3a000080eb0077
:103e0800070037000642a8000000000030108000bc
:103e1800640060000000e000fcff3a001000200091
:103e28000080fa00000006000600fa00c0ff9f00ac
:103e3800d1ff9f00f2bf9f004ff897000000fb00e2
:103e480000004000a0ff9f004ff897000000fb0013
:103e580000004000004078000004a000b0ff9f0070
:103e68000602a80000000000301080006100600019
:103e78000000e000fcff3a00aff897000100fb00eb
:103e8800101088000000000041108000000024008d
:103e9800008060000000e000fbff3a004110800055
:103ea80000002800008060000000e00008003200e8
:103eb8000642a80000000000301080006400600086
:103ec8000000e000fcff3a000080eb0043003700f0
:103ed8005ff897000000fb00101088000000000049
:103ee8004110800000002400008060000000e00015
:103ef800fbff3a00411080000000280000806000ad
:103f08000000e000080032000642a800000000009f
:103f180030108000640060000000e000fcff3a0000
:103f28000080eb002d0037000622a80000000000ea
:103f380030108000620060000000e000fcff3a00e2
:103f48003ff897000000fb001010880000000000f8
:103f58004110800000002400008060000000e000a4
:103f6800fbff3a004110800000002800008060003c
:103f78000000e000080032000642a800000000002f
:103f880030108000640060000000e000fcff3a0090
:103f98000080eb00110037000662a8000000000056
:103fa80040108000620060000000e000fcff32006a
:103fb80000108000804078007fb8970001487800a2
:103fc8000642a80000000000301080006400600075
:103fd8000000e000fcff3a00100020000080fa001a
:103fe800000006000400fa00c0ff9f00f1bf9f0018
:103ff800cff897000104a000c1ff9f000602a800a7
:104008000000000030108000610060000000e00047
:10401800fcff3a00cff897000100fb001010880061
:1040280000000000411080000000240000806000b3
:104038000000e000fbff3a0041108000000028006b
:10404800008060000000e000080032000642a8007e
:104058000000000030108000640060000000e000f4
:10406800fcff3a000080eb00110037000662a80050
:104078000000000040108000620060000000e000c6
:10408800fcff320000108000804078007fb8970065
:10409800014878000642a8000000000030108000a7
:1040a800640060000000e000fcff3a0010002000ff
:1040b8000080fa00000006001a06fa00889fbe0079
:1040c800a8602000299e2f008f84440008844400a3
:1040d800000c7800c0602000289e2f000f044400c8
:1040e8000000440001087800e0602000299e2f00ad
:1040f8008f8444000080440002087800006120009a
:10410800219e2f008f804000008040000308780027
:1041180020612000229e2f000f0141000000410075
:104128000488be0060612000239e2f008f8141001b
:10413800008041000688be000000eb000003780004
:10414800249e2f000f024200060a78000000eb00b0
:1041580080047800479e2f008f834300890b7800e6
:104168006000b8000001be00649e2f000f024200ec
:10417800021a780003127800069d2f000f034300ef
:1041880016047800080078000000e00038003400c9
:10419800449d2f000f02420034017800a4017800ea
:1041a8000200be000020b0000180b0000003be0085
:1041b800689e2f000f044400061c7800071478003e
:1041c800669e2f000f03430036027800a60278008f
:1041d8000401be0000e02f0011002000800f5100f4
:1041e800818f59000f003e00c8be2f00088047008d
:1041f8000410200080007800489d2f000f04440020
:1042080038037800a80378000601be00259d2f001a
:104218008f8242009503780007007800dbfc0700d6
:1042280013003700889d2f000f0444009840780041
:10423800014078008000fb00c2be2f0002804700ca
:104248000102780080007800489d2f000f04440088
:1042580038037800a80378000601be00259d2f00ca
:104268008f824200950378000700780059fd070007
:1042780020612000289e2f000f0444000000440005
:104288001000be000020b0000180b0000001be0098
:10429800649e2f000f024200021a78000312780071
:1042a800689e2f000f04440038037800a8037800a4
:1042b8000601be0000e02f0011002000800f510011
:1042c800818f590012003e0020612000219e2f009e
:1042d8008f804000008040001001be00c0602000b8
:1042e800249e2f000f02420080004200e060200060
:1042f800259e2f008f82420000804200041020007b
:104308009100780010007800a0fc07001600370024
:10431800869d2f000f03430016447800084078005c
:104328008001fb00c0602000299e2f008f8444007c
:104338008080440020612000249e2f000f0242004c
:1043480000014200e0602000259e2f008f8242007d
:104358000080420003027800910078001201be003c
:10436800100078001bfd0700069d2f000f03430077
:1043780016047800080078000000e0003e003400d1
:10438800099d2f008f8444001901780002007800ed
:104398000000e90080027800a39e2f008f81410071
:1043a80085097800a69e2f000f03430016047800a5
:1043b8000800780080004000e029230000804000c9
:1043c80010017800c0602000299e2f008f844400cf
:1043d80080804400c0602000239e2f008f81410010
:1043e8000080410082017800110178009000780077
:1043f800001020006df10700a49e2f000f0242005c
:10440800140378000600780080004000e02a2300aa
:104418000080400010017800c7be2f008780470049
:10442800c8be2f000880470082017800010178008b
:1044380080007800001020005cf10700c9be2f0042
:1044480009814700c0602000239e2f008f81410012
:1044580080804100c0602000249e2f000f0242008f
:104468000000420082017800110178009000780075
:10447800001020005bf10700c0602000259e2f007f
:104488008f82420080804200c69e2f00068047002f
:10449800a79d2f008f834300970478008901780037
:1044a8001101780080007800001020003ff107001b
:1044b800c19e2f0001814700a0602000239e2f008d
:1044c8008f81410080804100c49e2f0004804700f6
:1044d8008201780011017800800078000010200027
:1044e80040f1070060612000259e2f008f82420066
:1044f800008042001001be00c69e2f0006804700c3
:1045080001612000279e2f008f8343000182430012
:10451800800078001400780000fb07004f04be00fc
:104528000080fa00000006001002fa0080bf9f0019
:1045380091bf9f00a2bf9f00b3bf9f00c4bf9f0051
:10454800d6bf9f00e7bf9f00f5bf9f005fb99700e8
:10455800efb997000410200001df2f008f80400082
:104568003fb8970009fc070000df2f000f0040004c
:10457800800178001fb9970001df2f008f8040006d
:104588000010200009f10700ffb997001fb9970034
:1045980001df2f008f8040000010200003f107008a
:1045a80003df2f008f8141000fb9970001df2f0033
:1045b8008f804000001020000af107003fb19500ed
:1045c800cfb1950001df2f008f8040004fb89700d2
:1045d800d2fa07000080fa00000006000e00fa0078
:1045e80090bf9f00a1bf9f00b2bf9f00c3bf9f00a5
:1045f800d4bf9f00e5bf9f00f6bf9f00cfb99700cb
:104608001fb997009fb8970000102000e7f0070037
:10461800dfb997002fb99700afb8970000102000b6
:10462800e2f00700efb997003fb99700bfb89700cd
:1046380000102000ddf00700afb997001fb9970000
:10464800ffb8970000102000e6f00700bfb99700f8
:104658007fb99700ffb8970000102000e1f007002d
:104668000080fa00000006000400fa00e0bf9f0086
:10467800f1bf9f006fb99700ffb8970000102000a6
:10468800c4f007000080fa000000060050548100c2
:10469800615481000020b0000180b00050548900ae
:1046a8006154890050548100615481000001be00aa
:1046b80000c02f0011002000800f5100818f590089
:1046c800100036006000b800505489006154890019
:1046d800805481000000e8008054890020a822004e
:1046e800104078008000fb0080548100808f5000cb
:1046f80004003d0050a82200104078000000fb0094
:104708008054890000000600889fbe008a1f780038
:1047180051808000301f2000808f500004003c0032
:10472800508080000000e800508088006c0037004e
:10473800805381000000e0002900320063e020007f
:1047480042e0200001a42100002024007c02070090
:10475800ea80800097548100a4c18000b5c1800020
:10476800965381005254810063548100c0c1800077
:10477800d1c1800089548100785481008a1f780053
:10478800871f7800849fbe000002eb00841f78001a
:10479800861f78000203be000002be00890178006f
:1047a800080178004102210000a4210042fe070010
:1047b800ec875700c1538100b05381000660240084
:1047c8008002eb0001027800800178000284210059
:1047d800412221004002210080ff07002800370005
:1047e80063e0200042e0200001a421000000240032
:1047f80053020700ea80800097548100a4c180001a
:10480800b5c18000965381005254810063548100e1
:10481800c0c18000d1c180008954810078548100d2
:104828008a1f7800871f7800849fbe000002eb0073
:10483800841f7800861f78000203be000002be00b5
:1048480089017800080178004102210000a42100b4
:1048580019fe0700ec875700c1538100b05381004f
:10486800064024008002eb000102780080017800f5
:1048780002842100412221004002210057ff070045
:10488800e08080000000e000140034009080800088
:104898000000e8009080880090808000e20f5000bf
:1048a8000e0034000000eb0090808800e08080005b
:1048b8000000e800e0808800e0808000e80f5000f9
:1048c800060034000000eb00e0808800c080800013
:1048d800d1808000e0538900f15389006bff070005
:1048e8004f0578004f04be00000006000001eb00f1
:1048f80001a020008000200069ef070012002000be
:1049080001c020008000200065ef070001c02300df
:10491800001020003aef070000000600a70007007b
:104928000d010700c900070027010700d0fc070098
:104938002d010700ba0107006f01070034f90700cd
:104948004d0107008d01070081002100800a200029
:10495800a4fd0700408080000054890000548100b5
:10496800c200dd0000672200008040001000be0089
:10497800e0538900f15389009901070000000600ff
:104988001000fa006000b80080bf9f0091bf9f0030
:104998006000b800a0bf9f00b1bf9f00d0cc2c0022
:1049a800c1d42300c0bf9f00d1bf9f004fb997005b
:1049b800dfb997000000200001f82300e2f00700ab
:1049c800e0bf9f00f1bf9f0081002100000a200086
:1049d80084fd0700408080008000400000272200fe
:1049e8000080400010007800905389008100210069
:1049f800400a20007bfd07004080800080004000c6
:104a0800004722000080400010007800b053890061
:104a180081002100800a200072fd0700408080008c
:104a28000054890000548100c200dd0000672200a4
:104a3800008040001000be00a0808800b18088007f
:104a4800e2538100f3538100a0808000b180800090
:104a5800000051008180590080bf9f0091bf9f00d6
:104a68000fb897009fb89700e00f5000e08f5800ec
:104a780007003400e0538100f153810066005000c4
:104a8800e0805800e0538900f15389000b0037009b
:104a98000fb897009fb89700e00f5000e08f5800bc
:104aa80006003d00e0538100f1538100660040009c
:104ab800e0804800e0538900f15389005054810098
:104ac800615481000001be00e0538100f153810070
:104ad8000000510081805900c0c18800d1c1880000
:104ae8008054810070548900c0c18000d1c1800009
:104af800e00f5000e08f580016003d00c0c1800054
:104b0800d1c180000001be0000e02f00110020008c
:104b18000200400083804800c0c18800d1c18800dd
:104b2800705481000000e9007054890050a82200e8
:104b3800104078008000fb0070548100808f500086
:104b48000400340020a82200104078000000fb0078
:104b5800705489000080fa00000006006fff07000b
:104b6800c422a900c402a9000000eb0060808800ec
:104b78000000eb0070808800010037000000000092
:104b88006180800070808000008060000000e0008c
:104b9800faff3200dcfe0700805381000000a2000b
:104ba800805389000000eb00608088000000eb0063
:104bb8007080880072ff0700f1ff3700213a8000fb
:104bc80000fe2f00008060000010a000203a88003e
:104bd800313a800000e02f0000806000e001b3005f
:104be800303a8800213a8000f0f32f0000806000fe
:104bf800203a88003200200080072000a109200008
:104c0800337420008049780081497800824978000f
:104c18001200200060042000710520002374200089
:104c280080497800814978008249780000000000b6
:104c3800113a8000000027008080600000002300f7
:104c4800808f5000faff3a00000006000080eb0059
:104c5800601988002c63a8002c83a800c002a90052
:104c6800c022a900c082a900c862a900c842a80041
:104c7800c882a900c8a2a900c8c2a900c8e2a900a0
:104c8800c402a800c422a900c482a800cc62a8005b
:104c9800cc82a800cca2a800ccc2a900cce2a90072
:104ca8000136800000fe2f00008060007000b30015
:104cb8000036880001368000f00f2e00008060006a
:104cc80000b0a000003688004135800000fe2f00ab
:104cd800008060000010a0004035880091358000f9
:104ce80000fe2f0000806000f000b30090358800bf
:104cf80081358000f00f2e008080600000e02000e9
:104d080001007000803588008135800000fe2f008a
:104d180000806000d000b3008035880061368000d4
:104d280000fe2f0000806000d000b30060368800cd
:104d3800103a8000000178000260a00060042000a2
:104d4800710520002374200080497800814978008b
:104d580082497800000006008420ef008620ef00da
:104d68008820ef008a20ef008c20ef009420ef00cd
:104d78009620ef009820ef009a20ef009c20ef008b
:104d8800000006000421a90021088000000320007b
:104d9800010070002008880004c1a90005a1a9002d
:104da80021058000f0ff28008080600000002500b9
:104db80001007000200588008460a9009460a800a4
:104dc80005e1a8000000060081e0a9008b80a90089
:104dd8008b60a90011028000f0f12f0000806000b4
:104de800100288000000060000a8210061002000d1
:104df8000e010700ccc2a80000982a00310020004c
:104e08000a01070032002000710020000001200084
:104e1800acfb0700920420001100200000012000d4
:104e2800a8fb070002062000210020000001200046
:104e3800a4fb0700420320006100200000012000bd
:104e4800a0fb0700220020007100200000012000c4
:104e58009cfb070000a8210061002000f300070068
:104e680007e2a9000000eb008cfb07002010880077
:104e780007e2a800000006000600fa000000eb00a8
:104e8800d0bf9f000000eb00e0bf9f000000eb00d8
:104e9800f0bf9f000000eb00d0bf9f00110037005b
:104ea8000000eb00e0bf9f00080037006fb89700d4
:104eb8006101b900ffb897005fb8970014f80700c0
:104ec8006fb897000000e800e0bf9f006fb8970038
:104ed8000000e000f5ff3d00dfb897008100e80022
:104ee800d1bf9f005fb89700e20f5000ecff34007d
:104ef8000080fa000000060081e2a90081a2a90052
:104f08008162a9008142a8008122a8008102a8002c
:104f180080e2a90080c2a90080a2a9000114800033
:104f2800c0ff2f00008060000000a000001488006f
:104f380011148000f03f2f000080600010148800da
:104f480011148000f0e12f0080806000000620002e
:104f5800010070001014880010148000f000b300e5
:104f6800101488008422ef008822ef008c22ef00c2
:104f78008842a8008c42a800000006000200fa003f
:104f88000000eb00f0bf9f000f0037007fb89700cc
:104f98008000400000602400008040008000eb009a
:104fa800010878007fb89700800040000040240086
:104fb800008040008000eb0001087800ffb89700ef
:104fc8008100e800f1bf9f00f00f2000ffb89700b4
:104fd800808f5000edff36000080fa0000000600c8
:104fe80083e3a80000000000111c800000002800d6
:104ff800008060000000e000fbff3a0083e3a800a7
:1050080000000000111c80000000280000806000e3
:105018000000e000fbff3a0081e2a8000000060063
:1050280081c3a90081a3a800011c8000f0fc2f0007
:1050380000806000001c8800011c8000c0ff2f0059
:10504800008060000010a000001c88008183a90077
:105058008163a90083e3a900111c800000f82f00d8
:1050680080806000c003200001007000101c8800d0
:1050780000602000201c880000402000301c8800b0
:1050880080292000401c8800f00f2000501c880058
:105098008480a9003105800080ff2f000080600017
:1050a8006000b300300588009480a8008dc3a90073
:1050b8008da3a9008d83a9008d63a900611c8000c0
:1050c800f0fc2f0000806000601c8800611c8000dc
:1050d800c0ff2f00008060000010a000601c880046
:1050e8008fe3a900711c800000f82f008080600009
:1050f800c003200001007000701c88000020200000
:10510800801c880000002000901c880000292000d6
:10511800a01c8800f00f2000b01c880085c0a900e2
:1051280051058000007020000100700050058800c3
:1051380095c0a80081e3a8008de3a8000000060040
:105148000c00fa00c0bf9f00d1bf9f00e2bf9f00c4
:10515800f3bf9f000000eb00b0bf9f000000eb0012
:10516800a0bf9f002b003700ffb89700b1bf9f007a
:105178003fb89700cf80de00e9ef0700626626009f
:1051880063f6230046f00700c4ef0700b0bf9f0096
:105198006fb89700bfb8970000805000b0bf9f005d
:1051a8002fb8970000004000dfb8970080804000cb
:1051b8002fb89700000040004fb997000000410049
:1051c800100178003fb8970000004100800878007f
:1051d8002fb8970000004000dfb89700008040001b
:1051e800900078007fb89700010878002fb89700e2
:1051f80000004000cfb89700008040009000780081
:105208006fb8970001087800afb897008100e800f0
:10521800a1bf9f00f00f2000afb89700808f50000b
:0c522800d1ff34000080fa0000000600f6
:020000040000fa
:10523400f03fb1000180b10006003500ee03090023
:1052440000000000403fb1000180b100fbff3d00c1
:105254001000b000203fb0000200350000800900bb
:0852640000000000000006003c
:020000040000fa
:0200000401f009
:04000000ffff0000fe
:020000040000fa
:0200000401f009
:04000400ffff0000fa
:020000040000fa
:0200000401f009
:04000800ffff0000f6
:020000040000fa
:0200000401f009
:04000c0000000000f0
:020000040000fa
:0200000401f009
:0400100046000000a6
:020000040000fa
:0200000401f009
:040014005f00000089
:020000040000fa
:0200000401f009
:04001800f7000000ed
:020000040000fa
:0200000401f009
:04001c00deff000003
:00000001FF
