:020000040000fa
:080000000002040000000000f2
:020000040000fa
:04000800e002000012
:020000040000fa
:04000c00e00200000e
:020000040000fa
:04001000e00200000a
:020000040000fa
:04001400e002000006
:020000040000fa
:04001800e002000002
:020000040000fa
:04001c00e0020000fe
:020000040000fa
:04002000e0020000fa
:020000040000fa
:04002400e0020000f6
:020000040000fa
:04002800e0020000f2
:020000040000fa
:04002c00e0020000ee
:020000040000fa
:04003000e0020000ea
:020000040000fa
:04003400e0020000e6
:020000040000fa
:04003800c8020000fa
:020000040000fa
:04003c00e0020000de
:020000040000fa
:04004000e0020000da
:020000040000fa
:04004400e0020000d6
:020000040000fa
:04004800e0020000d2
:020000040000fa
:04004c00e0020000ce
:020000040000fa
:04005000e0020000ca
:020000040000fa
:04005400e0020000c6
:020000040000fa
:04005800e0020000c2
:020000040000fa
:04005c00e0020000be
:020000040000fa
:04006000d4020000c6
:020000040000fa
:04006400e0020000b6
:020000040000fa
:04006800e0020000b2
:020000040000fa
:04006c00e0020000ae
:020000040000fa
:04007000e0020000aa
:020000040000fa
:04007400e0020000a6
:020000040000fa
:04007800e0020000a2
:020000040000fa
:04007c00e00200009e
:020000040000fa
:04008000e00200009a
:020000040000fa
:04008400e002000096
:020000040000fa
:04008800e002000092
:020000040000fa
:04008c00e00200008e
:020000040000fa
:04009000e00200008a
:020000040000fa
:04009400e002000086
:020000040000fa
:04009800e002000082
:020000040000fa
:04009c00e00200007e
:020000040000fa
:0400a000e00200007a
:020000040000fa
:0400a400e002000076
:020000040000fa
:0400a800e002000072
:020000040000fa
:0400ac00e00200006e
:020000040000fa
:0400b000e00200006a
:020000040000fa
:0400b400e002000066
:020000040000fa
:0400b800e002000062
:020000040000fa
:0400bc00e00200005e
:020000040000fa
:0400c000e00200005a
:020000040000fa
:0400c400e002000056
:020000040000fa
:0400c800e002000052
:020000040000fa
:0400cc00e00200004e
:020000040000fa
:0400d000e00200004a
:020000040000fa
:0400d400e002000046
:020000040000fa
:0400d800e002000042
:020000040000fa
:0400dc00e00200003e
:020000040000fa
:0400e000e00200003a
:020000040000fa
:0400e400e002000036
:020000040000fa
:0400e800e002000032
:020000040000fa
:0400ec00e00200002e
:020000040000fa
:0400f000e00200002a
:020000040000fa
:0400f400e002000026
:020000040000fa
:0400f800e002000022
:020000040000fa
:0400fc00e00200001e
:020000040000fa
:04010000e002000019
:020000040000fa
:04010400e002000015
:020000040000fa
:04010800e002000011
:020000040000fa
:04010c00e00200000d
:020000040000fa
:04011000e002000009
:020000040000fa
:04011400e002000005
:020000040000fa
:04011800e002000001
:020000040000fa
:04011c00e0020000fd
:020000040000fa
:04012000e0020000f9
:020000040000fa
:04012400e0020000f5
:020000040000fa
:04012800e0020000f1
:020000040000fa
:04012c00e0020000ed
:020000040000fa
:04013000e0020000e9
:020000040000fa
:04013400e0020000e5
:020000040000fa
:04013800e0020000e1
:020000040000fa
:04013c00e0020000dd
:020000040000fa
:04014000e0020000d9
:020000040000fa
:04014400e0020000d5
:020000040000fa
:04014800e0020000d1
:020000040000fa
:04014c00e0020000cd
:020000040000fa
:04015000e0020000c9
:020000040000fa
:04015400e0020000c5
:020000040000fa
:04015800e0020000c1
:020000040000fa
:04015c00e0020000bd
:020000040000fa
:04016000e0020000b9
:020000040000fa
:04016400e0020000b5
:020000040000fa
:04020800e002000010
:020000040000fa
:04020c00e00200000c
:020000040000fa
:04021000e002000008
:020000040000fa
:04021400e002000004
:020000040000fa
:04021800e002000000
:020000040000fa
:04021c00e0020000fc
:020000040000fa
:04022000e0020000f8
:020000040000fa
:04022400e0020000f4
:020000040000fa
:04022800e0020000f0
:020000040000fa
:04022c00e0020000ec
:020000040000fa
:04023000e0020000e8
:020000040000fa
:04023400e0020000e4
:020000040000fa
:04023800e0020000e0
:020000040000fa
:04023c00e0020000dc
:020000040000fa
:04024000e0020000d8
:020000040000fa
:04024400e0020000d4
:020000040000fa
:04024800e0020000d0
:020000040000fa
:04024c00e0020000cc
:020000040000fa
:04025000e0020000c8
:020000040000fa
:04025400e0020000c4
:020000040000fa
:04025800e0020000c0
:020000040000fa
:04025c00e0020000bc
:020000040000fa
:04026000e0020000b8
:020000040000fa
:04026400e0020000b4
:020000040000fa
:04026800e0020000b0
:020000040000fa
:04026c00e0020000ac
:020000040000fa
:04027000e0020000a8
:020000040000fa
:04027400e0020000a4
:020000040000fa
:04027800e0020000a0
:020000040000fa
:04027c00e00200009c
:020000040000fa
:04028000e002000098
:020000040000fa
:04028400e002000094
:020000040000fa
:04028800e002000090
:020000040000fa
:04028c00e00200008c
:020000040000fa
:04029000e002000088
:020000040000fa
:04029400e002000084
:020000040000fa
:04029800e002000080
:020000040000fa
:04029c00e00200007c
:020000040000fa
:0402a000e002000078
:020000040000fa
:0402a400e002000074
:020000040000fa
:0402a800e002000070
:020000040000fa
:0402ac00e00200006c
:020000040000fa
:0402b000e002000068
:020000040000fa
:0402b400e002000064
:020000040000fa
:0402b800e002000060
:020000040000fa
:0402bc00e00200005c
:020000040000fa
:0402c000e002000058
:020000040000fa
:0402c400e002000054
:020000040000fa
:0402c800e002000050
:020000040000fa
:0402cc00e00200004c
:020000040000fa
:0402d000e002000048
:020000040000fa
:0402d400e002000044
:020000040000fa
:0402d800e002000040
:020000040000fa
:0402dc00e00200003c
:020000040000fa
:0402e000e002000038
:020000040000fa
:0402e400e002000034
:020000040000fa
:0402e800e002000030
:020000040000fa
:0402ec00e00200002c
:020000040000fa
:0402f000e002000028
:020000040000fa
:0402f400e002000024
:020000040000fa
:0402f800e002000020
:020000040000fa
:0402fc00e00200001c
:020000040000fa
:04030000e002000017
:020000040000fa
:04030400e002000013
:020000040000fa
:04030800e00200000f
:020000040000fa
:04030c00e00200000b
:020000040000fa
:04031000e002000007
:020000040000fa
:04031400e002000003
:020000040000fa
:04031800e0020000ff
:020000040000fa
:04031c00e0020000fb
:020000040000fa
:04032000e0020000f7
:020000040000fa
:04032400e0020000f3
:020000040000fa
:04032800e0020000ef
:020000040000fa
:04032c00e0020000eb
:020000040000fa
:04033000e0020000e7
:020000040000fa
:04033400e0020000e3
:020000040000fa
:04033800e0020000df
:020000040000fa
:04033c00e0020000db
:020000040000fa
:04034000e0020000d7
:020000040000fa
:04034400e0020000d3
:020000040000fa
:04034800e0020000cf
:020000040000fa
:04034c00e0020000cb
:020000040000fa
:04035000e0020000c7
:020000040000fa
:04035400e0020000c3
:020000040000fa
:04035800e0020000bf
:020000040000fa
:04035c00e0020000bb
:020000040000fa
:04036000e0020000b7
:020000040000fa
:04036400e0020000b3
:020000040000fa
:10040000cf2922000ebf23000e018800000000004b
:10041000000020000000e000020032000001200087
:100420002002880014000700460207000000e000d8
:1004300003003a00005326000100200002003700ac
:100440000000200001002000810f70000100320038
:1004500014000700000020000000e000020032004d
:100460000000020000000000ca600200000000005e
:100470000040da000000fe004440a90000402400d3
:100480000000e0000300320000002000a00188000e
:100490004440a800000006008a1f78008b1f7800e7
:1004a0000000060091018800800478000000eb0045
:1004b0001a003700e284440032a0b4009905ba0063
:1004c000e284440032a0b4009906ba00e2844400f9
:1004d00032a0b4000006eb00476fde00fd07b2005b
:1004e000636ce10003003a00ebff07000000eb0043
:1004f0000a003700606ce10004003a00005deb0088
:100500008b05e900fdff3e00040037006168e10053
:10051000010032000086eb000b00070019c7ba008b
:100520001905ba000e04e00003003a000a00e000da
:10053000e0ff3a0000000600fe07b2009e018800be
:100540008a047800f5ff3700395dba008b05e900b1
:100550000c003200295dba008b05e900080032006a
:100560000c00e00003003a00e284440032a0b40032
:10057000f5ff370019ddba008b05e900faff3a00f4
:100580008904e800e184440032a0b40000000600c1
:10059000801f78008480a9001000200060818800fe
:1005a0004f00780000400600801f780085c0a90039
:1005b00010002000508188004f00780000400600a5
:1005c0000040da000000fe00889fbe008a9fbe0047
:1005d0008c9fbe0000057800810678000a00e900c3
:1005e000cf80de00dd0207000001be00b0fd20006c
:1005f000910c24003c020700800578000106780079
:100600000a00e000130034008d0478000004eb00c1
:100610006140b900d10207000b0178008c0178001d
:10062000300307002e0207000200200003f02b0019
:100630002c0307000200200003f02300c301070081
:10064000f7000700801c78000804e800880f5500b8
:10065000efff3c000d0078004f06be004f05be00c6
:100660004f04be0000000600f6874700889fbe00ca
:100670008a9fbe008c9fbe008e1f7800f1af9f0046
:1006800082047800180020000040dd004f04de00e6
:10069000000044000084d1000000200001f8230085
:1006a000df000700ffa89700800878000000eb003b
:1006b000900098006140b900a80207000001be0048
:1006c000b0fd200091042400070207008005780097
:1006d000010578000b0078008a007800000207000e
:1006e000b0b79f00a1b79f000900e000940032005e
:1006f0000a01be000300780082007800960307001c
:100700000006be000883e90086003300ffab9700b7
:10071000648543008c0478000d047800bfb5970011
:100720002fb797000b0078008e00780086bf9f00df
:10073000bb000700000d78000900780088007800f1
:10074000b70007001005980064054500bfb097008a
:100750002fb0970001017800800178000b0078002d
:100760008e007800df0207000002be000c01be0010
:10077000c8b79f000900780088007800e4b79f00a0
:10078000f5b79f00d70207000001be006fb29700c7
:10079000ffb297000400be006b01070090b79f00f6
:1007a00081b79f00bfb097002fb09700010178007c
:1007b000800178000902780088007800040478003d
:1007c000810478000800be00c6020700800478009b
:1007d000010478000c01be000b0278008e00780046
:1007e000c4b79f00d1b79f004fb09700dfb097000c
:1007f000bc02070009027800880178000404780030
:10080000830478000801be005001070080047800ce
:10081000010478000fbb97000603e9004100330094
:100820009fb597000fb797000b0078008e007800f7
:1008300086bf9f007a000700000d7800090078004d
:1008400088007800760007001005980064054500d0
:10085000bfb097002fb097000101780080017800a9
:100860000b0078008e0078009e0207000002be0098
:100870000c01be00c8b79f0009007800880078000e
:10088000e4b79f00f5b79f00960207000001be0085
:100890006fb29700ffb297000400be002a01070064
:1008a00090b79f0081b79f00bfb097002fb097000f
:1008b0000101780080017800090278008800780042
:1008c00004047800810478000800be008502070057
:1008d00080047800010478000c01be000b0278004f
:1008e0008e007800c4b79f00d1b79f004fb097002b
:1008f000dfb097007b0207000902780088017800ca
:1009000004047800830478000801be000f0107008a
:1009100080047800010478000fbb97000603e9000b
:10092000bfff3b007fa897004f0778004f06be002f
:100930004f05be004f04be006f01b100000006006d
:100940000a01be000300780082007800020307005d
:100950000006be000df0a2006aff3700810178009a
:100960000000e90000800900b21878000300780058
:10097000000006004400f800040f20002402880054
:10098000811f78000000e900030278000080080061
:1009900002000000b20278001301c0003100cd0057
:1009a0004f0078004400f900000006004400f80001
:1009b000040f200024028800010278000000e900f2
:1009c0000080080004000000b20278000500ca00a0
:1009d000b30278000500c9003100cc0004007800a3
:1009e0004400f900000006004400f800040f200055
:1009f00024028800811f78000000e90000800800c0
:100a00000300000032027800b30278001301c00036
:100a10003100cd004f0078004400f90000000600ce
:100a2000e8874700889fbe008a9fbe008c9fbe005b
:100a30008e1f78000005be00020020000370240015
:100a40002802070080047800010478006011b800d3
:100a50000a00be009e0107000000e00037003500dc
:100a60000900780088007800c10107009a0107009a
:100a70000005be000a00be00b80107000006be0067
:100a80000200200003f02300160207000007780090
:100a900081bf9f00010178000e007800820078007d
:100aa000b3010700e0b79f00f1b79f000c01be0043
:100ab0000902780088007800040378008103780038
:100ac0000600be00a00007000004be0002002000d7
:100ad00003f023000800be007d0107000000e000d5
:100ae0007b0034000200200003f823000c00be004d
:100af00096000700780107000005be008a01780013
:100b00000b0178000300780082007800f3ff2700d3
:100b1000830f5000e08f580002003400f0ff2700e0
:100b2000010020004f0778004f06be004f05be00b1
:100b30004f04be008f00b1000000060009007800dd
:100b400088007800de000700630107000006be0091
:100b50000c00be00810107000005be0009017800fd
:100b6000880178000a00be00890107000000e0004b
:100b7000090032000200200003f823000a00be0032
:100b800071000700540107000006be000c00be0003
:100b9000720107000005be000200200003f02300e0
:100ba0000a00be00cf0107000007780081bf9f0048
:100bb000010178000e007800820078006c010700c7
:100bc000e0b79f00f1b79f000a01be00090278005c
:100bd0008800780004037800810378000600be00d6
:100be000590007000004be000200200003f02300ab
:100bf0000800be00360107000000e00017003400c6
:100c00000200200003f823000a00be004f00070086
:100c1000310107000006be008c0178000d0178004c
:100c2000030078008200780002002800f3ff2f0004
:100c3000820f5000838f5800baff3d000200be00b3
:100c40004f0778004f06be004f05be004f04be00a0
:100c50008f00b10000000600b8ff3700020020003e
:100c600003f0230088007800090078000102780072
:100c7000800278000400be00130107000000e000bd
:100c8000e5ff3a006fb19700ffb197008e02780040
:100c90000fba970005007800840078002a0007004a
:100ca0000001be00290007000b0107000000e00062
:100cb000d9ff32000200200003f823000a00be0022
:100cc00022000700040107000006be00d2ff370023
:100cd0000200200003f0230088007800090078005b
:100ce00001027800800278000400be00f6000700d0
:100cf0000000e00081ff3a006fb19700ffb197005c
:100d00008e0278000fba9700050078008400780002
:100d10000d0007000001be000c000700ee000700f8
:100d20000000e00075ff32000200200003f82300fd
:100d30000c00be0005000700e70007000005be002c
:100d40006eff37000000050003f0a200889fbe0080
:100d50008a9fbe008c1f78004a01070051013300b2
:100d60006450e1004f0032006420e1005200320084
:100d700003826c0007003b000905d0000306d00089
:100d8000820f54000c065d000200390002003200a0
:100d900089017800030678008582550004003d0033
:100da0000003fd008103fd008502ea008b854200ff
:100db000840f720002003b0060001000e080180009
:100dc0006011b8000005eb007a28e1000a00390044
:100dd00006007800c75ddd00f707b2008780750068
:100de0002d003700828171000a01780061056000e2
:100df0008180d1000080d3008502e900f9ff3b002b
:100e0000060440008784480002003b006004140090
:100e1000e0841c000988a300070032008a81710069
:100e200082817100610164008904d1000884d300cb
:100e30008b05e800170037000978a30013003a007b
:100e40000b00e000130034008b05e90008044400a7
:100e500089844c000a4474000978a3000d003a000c
:100e60000b00e000070034008b05e9000804440093
:100e700089844c0001003a000b0020000978a3008f
:100e8000f7ff32000001eb000200370082817100a1
:100e90000a017800c00007000cf0a70001f0a000d4
:100ea000090137006420e10002003a00838f6c00e2
:100eb000090133000801be000200be000201370034
:100ec0000001eb005900070004003200020020007e
:100ed00003f8230001f0a6009cff070000000600b5
:100ee0000081eb0033013700889fbe008a9fbe005f
:100ef0008c1f7800e3000700ea00330003866c00d3
:100f00006450e1002e0032006420e1003300320022
:100f10006150e1002f0032006120e1003100320019
:100f200085855500eb07b00009002000080420006b
:100f3000050037000804440089844c000a00310091
:100f40000603430087834b000001530081815b004f
:100f5000f8ff33000203be000800a00008044400ac
:100f600089844c00f6ff3900c639dd008301730027
:100f700001003200130020008904d1000884d3004e
:100f80000998a300050032000800a7000300a00094
:100f90008904d1000884d3008b05e8008904d100be
:100fa0000884d3000001eb000281d2007a00070020
:100fb00001f0a1000cf0a70001f0a000c200370072
:100fc0006420e100c40032000801be000200be003f
:100fd000f7ff37006120e100bf0032006000b80079
:100fe000f3ff37000000200001f82700f0ff370072
:100ff000839f68000100e00002003d0060001000d7
:10100000e08018000300e00002003d0060011100d4
:10101000e0811900520107004f00e00002003b0090
:1010200060001000e080180000000600889fbe00ed
:101030008a9fbe000003be007d0007008505780082
:1010400082815200020020006220e10004003a0088
:10105000f307b100040035007718e1000400350003
:101060000600be00140037006000b8000f00370013
:10107000f50f2000faff2f008502d1000a85d3006a
:101080008301e900fcff3b008184620000046500ed
:10109000890f7400f2ff32008582ea000a85ea00b7
:1010a00081846200000465003b00070007f0a70090
:1010b00001f0a0000081eb000200e0004f05be003f
:1010c0004f04be0000000600140020003401370069
:1010d000f4ff2f00320137000001be00540007006a
:1010e0000470a70003f0a1006509b10016003200ea
:1010f0000d0035006828e10006003500f0ff2f00e4
:10110000f1ff27000300e00013003b00010028006e
:101110000000050000004000818048008502e900d1
:10112000fcff3a0008003700f88f420002003c0044
:101130008000eb00000005008100d1000080d3009a
:101140008502e800fcff3a000300e00002003b00db
:1011500060001000e0801800000006004f89de00eb
:1011600082017800290137006011b800370137008b
:101170000001eb00adff0700040032000200200078
:1011800003f8230001f0a700effe070000000600af
:10119000040020000201370081002000618055001a
:1011a0000b003d000b00200061fe2f000100e1005c
:1011b0001d00340082817100610164008904d10046
:1011c0000884d3000000e800faff3a007100200014
:1011d000610064000300700002006000090032003a
:1011e00061044400e0844c000988a5000500320039
:1011f0008b05e8006808e10002003a008904d1008c
:101200000884d300f20f20000258e10005003d00e1
:10121000c75ddd00f907b20089807500080078001d
:10122000000006000bf827008b0078000000050086
:10123000c70ade00f107b200f50fb2000800320065
:10124000e1cf4200020032000170a000240005003e
:10125000810f700001003200040805004400050001
:10126000810f700002003a00140005008502e900b9
:101270000000400081c04800fcff3b000170a0005e
:10128000240005000004be00e9ff07000003be00c3
:101290000405be000200be00e5ff0700844f750094
:1012a000000006000200be006450e10005003600a8
:1012b0006420e100020036000968a30001003a0042
:1012c0000800be000160a0004f0678004f05be0078
:1012d0004f04be0000000600f0ff2f00f1ff2700c2
:1012e000f9ff3700889fbe008a9fbe008c1f7800e0
:1012f000e4ff0700ebff330003866c006450e1005d
:10130000240032006420e100270032006150e10037
:10131000220032006120e100210032008b85420072
:10132000eb07b1000134b800003ab80008044200ed
:1013300089844a00013ab8000030b8008880400033
:1013400009014a0004003300000040008180480089
:10135000020149008b05e900c909dd008301700025
:101360000100320013002000c814de004814dd0024
:101370004709de001200b200c808de0008847000d1
:1013800085ff070001f0a1000cf0a70001f0a0000c
:10139000cdff37006120e100cfff32000801be0021
:1013a0000200be00f7ff37006150e100fcff3a0089
:1013b000c9ff3700889fbe008a9fbe008c9fbe0079
:1013c000820578000004be0099ff07000800be00f7
:1013d0006420e1000700390002003a00f1ff270015
:1013e000f0ff2f000160a0001202200002408800e0
:1013f000550037006120e10003003a000b00a70010
:1014000001f823005000370001f0a1000200210084
:10141000936424002cff07000800be000400350080
:10142000b2fd2000930c2400b70007000004be00aa
:101430000005eb000b00a6004f0dde0001f0a1003f
:101440000004be0032982f0023ea2300a5ff070006
:101450000001eb0003f023000b00a70003f82300ba
:101460003afe07001cff07000000a7000a00a200c8
:101470003aff07000b00e0000300320002002000ea
:1014800003f0230030fe070001f0a2000006be00ba
:10149000020020009304240092ff07000801be0010
:1014a0002afe0700809fbe000c00be0022a22a0078
:1014b000d3a723008bff07004f01be0023fe0700c8
:1014c0000004be0001f0a1000200200003982300e8
:1014d000fdfe07000800be00190035000001be0037
:1014e00080ff07000006be00b2c52900e3622300aa
:1014f0007cff070022222b00f3942b0013fe070031
:101500000c01be0077ff0700e273280083c02300b0
:101510000efe07000c01be0072ff070042aa2a005f
:10152000a3e22b0009fe07000c01be006dff0700bf
:101530000801be006bff07000801be0003fe0700a4
:101540000a00a70001f0a2004f06be004f05be0032
:101550004f04be00000006000001eb0095ff3700bd
:101560006022b800060220000000d0008180d20076
:101570000482d2008582d2000000a0000202520044
:1015800083825a00030031000202420083824a0033
:101590000000a1000603e900f3ff3a000000060086
:1015a000889fbe008a9fbe00841f780035ff070019
:1015b0004f00780011003300f0ff2f00838f6c0084
:1015c00006003b00040565000a00a700080037007c
:1015d00009f0a6001000200008003700820f540018
:1015e000838f5c00030039001000200001003e00e2
:1015f0000000200009f0a7000000ea004f05be002f
:101600004f04be000000e00000000600881f7800c4
:10161000030478000300e00007003d0060001000b4
:10162000e080180060011900e081190002003b0011
:1016300001f02d00030037000400070008f0a700a8
:1016400001f0a0004f04780000000600889fbe0053
:101650008a9fbe0000827000040271000482710043
:10166000260032000004be000200be006011b80077
:101670006b092000950220000182cf000a0039008a
:101680000541b1000082cf00070039000541b100db
:101690000982cf00040039000541b1000882cf0063
:1016a000010039000541b10005425200120032002c
:1016b0000a003b0082817100610164008100d10059
:1016c0000080d3008984d3000884d3008b05e80010
:1016d0000442e800f7ff3a0007003700080444001e
:1016e00089844c0000004800818048008b05e90097
:1016f0000442e900f9ff3a00a7fe07004f05be00cb
:101700004f04be0000000600040020000000370067
:10171000889fbe008a9fbe008c1f78004f26dd0088
:10172000d8fe0700dffe33006120e10043003200f5
:101730006250e10041003e003e0039006420e100bb
:101740003c003200058255000f003b000402e80017
:1017500038003a00800f5300818f5b003500340061
:101760000800be0003f0a10001f0a60003f0a000f5
:101770000cf0a70075fd0700d3fe370006034300f9
:1017800087834b000c4646000005530081855b00b3
:10179000020033000a03be000c00a0000402e900ae
:1017a000f6ff3b00850578000602430087824b0068
:1017b00004003a006000b80009f0a70001f0a000a2
:1017c000c1fe37000002520081825a000704e00087
:1017d000040033000603430087834b008b05e900b8
:1017e000faff3700090578000604be000203be00b8
:1017f0006011b80068fe0700e00f5200e08f5a0049
:101800000700350002003c000c08a3000400320071
:101810000601be0003f0a0000cf0a7004bfd07007e
:101820000a85680001f0a1000af0a70001f0a000fd
:10183000a5fe37000800be00a3fe370010022000fe
:0c1840000cf0a60000408800a3fe37005a
:020000040000fa
:10184c000000000081000000010100008201000086
:10185c000202000083020000030300008403000066
:10186c000404000085040000050500008605000046
:10187c000606000087060000070700008807000026
:10188c000808000089080000090900008a09000006
:10189c000a0a00008b0a00000b0b00008c0b0000e6
:1018ac000c0c00008d0c00000d0d00008e0d0000c6
:1018bc000e0e00008f0e00000f0f0000900f0000a6
:1018cc001010000091100000111100009211000086
:1018dc001212000093120000131300009413000066
:1018ec001414000095140000151500009615000046
:1018fc001616000097160000171700009817000026
:10190c001818000099180000191900009a19000005
:10191c001a1a00009b1a00001b1b00009c1b0000e5
:10192c001c1c00009d1c00001d1d00009e1d0000c5
:10193c001e1e00009f1e00001f1f0000a01f0000a5
:10194c0020200000a120000021210000a221000085
:10195c0022220000a322000023230000a423000065
:10196c0024240000a524000025250000a625000045
:10197c0026260000a726000027270000a827000025
:10198c0028280000a928000029290000aa29000005
:10199c002a2a0000ab2a00002b2b0000ac2b0000e5
:1019ac002c2c0000ad2c00002d2d0000ae2d0000c5
:1019bc002e2e0000af2e00002f2f0000b02f0000a5
:1019cc0030300000b130000031310000b231000085
:1019dc0032320000b332000033330000b433000065
:1019ec0034340000b534000035350000b635000045
:1019fc0036360000b736000037370000b837000025
:101a0c0038380000b938000039390000ba39000004
:101a1c003a3a0000bb3a00003b3b0000bc3b0000e4
:101a2c003c3c0000bd3c00003d3d0000be3d0000c4
:101a3c003e3e0000bf3e00003f3f0000c03f0000a4
:101a4c0040400000c140000041410000c241000084
:101a5c0042420000c342000043430000c443000064
:101a6c0044440000c544000045450000c645000044
:101a7c0046460000c746000047470000c847000024
:101a8c0048480000c948000049490000ca49000004
:101a9c004a4a0000cb4a00004b4b0000cc4b0000e4
:101aac004c4c0000cd4c00004d4d0000ce4d0000c4
:101abc004e4e0000cf4e00004f4f0000d04f0000a4
:101acc0050500000d150000051510000d251000084
:101adc0052520000d352000053530000d453000064
:101aec0054540000d554000055550000d655000044
:101afc0056560000d756000057570000d857000024
:101b0c0058580000d958000059590000da59000003
:101b1c005a5a0000db5a00005b5b0000dc5b0000e3
:101b2c005c5c0000dd5c00005d5d0000de5d0000c3
:101b3c005e5e0000df5e00005f5f0000e05f0000a3
:101b4c0060600000e160000061610000e261000083
:101b5c0062620000e362000063630000e463000063
:101b6c0064640000e564000065650000e665000043
:101b7c0066660000e766000067670000e867000023
:101b8c0068680000e968000069690000ea69000003
:101b9c006a6a0000eb6a00006b6b0000ec6b0000e3
:101bac006c6c0000ed6c00006d6d0000ee6d0000c3
:101bbc006e6e0000ef6e00006f6f0000f06f0000a3
:101bcc0070700000f170000071710000f271000083
:101bdc0072720000f372000073730000f473000063
:101bec0074740000f574000075750000f675000043
:101bfc0076760000f776000077770000f877000023
:101c0c0078780000f978000079790000fa79000002
:101c1c007a7a0000fb7a00007b7b0000fc7b0000e2
:101c2c007c7c0000fd7c00007d7d0000fe7d0000c2
:101c3c007e7e0000ff7e00007f7f000000800000a1
:101c4c000000000081000000010100008201000082
:101c5c000202000083020000030300008403000062
:101c6c000404000085040000050500008605000042
:101c7c000606000087060000070700008807000022
:101c8c000808000089080000090900008a09000002
:101c9c000a0a00008b0a00000b0b00008c0b0000e2
:101cac000c0c00008d0c00000d0d00008e0d0000c2
:101cbc000e0e00008f0e00000f0f0000900f0000a2
:101ccc001010000091100000111100009211000082
:101cdc001212000093120000131300009413000062
:101cec001414000095140000151500009615000042
:101cfc001616000097160000171700009817000022
:101d0c001818000099180000191900009a19000001
:101d1c001a1a00009b1a00001b1b00009c1b0000e1
:101d2c001c1c00009d1c00001d1d00009e1d0000c1
:101d3c001e1e00009f1e00001f1f0000a01f0000a1
:101d4c0020200000a120000021210000a221000081
:101d5c0022220000a322000023230000a423000061
:101d6c0024240000a524000025250000a625000041
:101d7c0026260000a726000027270000a827000021
:101d8c0028280000a928000029290000aa29000001
:101d9c002a2a0000ab2a00002b2b0000ac2b0000e1
:101dac002c2c0000ad2c00002d2d0000ae2d0000c1
:101dbc002e2e0000af2e00002f2f0000b02f0000a1
:101dcc0030300000b130000031310000b231000081
:101ddc0032320000b332000033330000b433000061
:101dec0034340000b534000035350000b635000041
:101dfc0036360000b736000037370000b837000021
:101e0c0038380000b938000039390000ba39000000
:101e1c003a3a0000bb3a00003b3b0000bc3b0000e0
:101e2c003c3c0000bd3c00003d3d0000be3d0000c0
:101e3c003e3e0000bf3e00003f3f0000c03f0000a0
:101e4c0040400000c140000041410000c241000080
:101e5c0042420000c342000043430000c443000060
:101e6c0044440000c544000045450000c645000040
:101e7c0046460000c746000047470000c847000020
:101e8c0048480000c948000049490000ca49000000
:101e9c004a4a0000cb4a00004b4b0000cc4b0000e0
:101eac004c4c0000cd4c00004d4d0000ce4d0000c0
:101ebc004e4e0000cf4e00004f4f0000d04f0000a0
:101ecc0050500000d150000051510000d251000080
:101edc0052520000d352000053530000d453000060
:101eec0054540000d554000055550000d655000040
:101efc0056560000d756000057570000d857000020
:101f0c0058580000d958000059590000da590000ff
:101f1c005a5a0000db5a00005b5b0000dc5b0000df
:101f2c005c5c0000dd5c00005d5d0000de5d0000bf
:101f3c005e5e0000df5e00005f5f0000e05f00009f
:101f4c0060600000e160000061610000e26100007f
:101f5c0062620000e362000063630000e46300005f
:101f6c0064640000e564000065650000e66500003f
:101f7c0066660000e766000067670000e86700001f
:101f8c0068680000e968000069690000ea690000ff
:101f9c006a6a0000eb6a00006b6b0000ec6b0000df
:101fac006c6c0000ed6c00006d6d0000ee6d0000bf
:101fbc006e6e0000ef6e00006f6f0000f06f00009f
:101fcc0070700000f170000071710000f27100007f
:101fdc0072720000f372000073730000f47300005f
:101fec0074740000f574000075750000f67500003f
:101ffc0076760000f776000077770000f87700001f
:10200c0078780000f978000079790000fa790000fe
:10201c007a7a0000fb7a00007b7b0000fc7b0000de
:10202c007c7c0000fd7c00007d7d0000fe7d0000be
:10203c007e7e0000ff7e00007f7f0000008000009d
:10204c0000020000000000005a0200000000000026
:10205c00b4020000000000000e03000000000000ad
:10206c006803000000000000c20300000000000034
:10207c001c040000000000007604000000000000ba
:10208c00d0040000000000002a0500000000000041
:10209c008305000000000000dd05000000000000ca
:1020ac003606000000000000900600000000000052
:1020bc00e9060000000000004307000000000000db
:1020cc009c07000000000000f50700000000000065
:1020dc004e08000000000000a708000000000000ef
:1020ec000009000000000000590900000000000079
:1020fc00b2090000000000000b0a00000000000004
:10210c00640a000000000000bd0a0000000000008e
:10211c00150b0000000000006e0b0000000000001a
:10212c00c60b0000000000001f0c000000000000a7
:10213c00770c000000000000d00c00000000000034
:10214c00280d000000000000800d000000000000c1
:10215c00d90d000000000000310e0000000000004e
:10216c00890e000000000000e10e000000000000dd
:10217c00390f000000000000910f0000000000006b
:10218c00e90f0000000000004010000000000000fb
:10219c009810000000000000f0100000000000008b
:1021ac0047110000000000009f110000000000001b
:1021bc00f6110000000000004e12000000000000ac
:1021cc00a512000000000000fc120000000000003e
:1021dc005413000000000000ab13000000000000ce
:1021ec000214000000000000591400000000000060
:1021fc00b0140000000000000715000000000000f3
:10220c005e15000000000000b51500000000000085
:10221c000c16000000000000621600000000000018
:10222c00b9160000000000001017000000000000ac
:10223c006617000000000000bd1700000000000041
:10224c0013180000000000006918000000000000d6
:10225c00c01800000000000016190000000000006b
:10226c006c19000000000000c21900000000000002
:10227c00181a0000000000006e1a00000000000098
:10228c00c41a0000000000001a1b0000000000002f
:10229c00701b000000000000c61b000000000000c6
:1022ac001c1c000000000000711c0000000000005d
:1022bc00c71c0000000000001c1d000000000000f6
:1022cc00721d000000000000c71d0000000000008f
:1022dc001d1e000000000000721e00000000000027
:1022ec00c71e0000000000001c1f000000000000c2
:1022fc00721f000000000000c71f0000000000005b
:10230c001c200000000000007120000000000000f4
:10231c00c6200000000000001b210000000000008f
:10232c006f21000000000000c4210000000000002c
:10233c0019220000000000006d22000000000000c7
:10234c00c222000000000000162300000000000064
:10235c006b23000000000000bf2300000000000001
:10236c00142400000000000068240000000000009d
:10237c00bc2400000000000010250000000000003c
:10238c006525000000000000b925000000000000d9
:10239c000d26000000000000612600000000000077
:1023ac00b426000000000000082700000000000018
:1023bc005c27000000000000b027000000000000b7
:1023cc000328000000000000572800000000000057
:1023dc00ab28000000000000fe28000000000000f8
:1023ec005129000000000000a52900000000000099
:1023fc00f8290000000000004b2a0000000000003b
:10240c009f2a000000000000f22a000000000000db
:10241c00452b000000000000982b0000000000007d
:10242c00eb2b0000000000003e2c00000000000020
:10243c00912c000000000000e42c000000000000c3
:10244c00362d000000000000892d00000000000067
:10245c00dc2d0000000000002e2e0000000000000b
:10246c00812e000000000000d32e000000000000b0
:10247c00262f000000000000782f00000000000054
:10248c00ca2f0000000000001d30000000000000fa
:10249c006f30000000000000c130000000000000a0
:1024ac001331000000000000653100000000000046
:1024bc00b7310000000000000932000000000000ed
:1024cc005b32000000000000ad3200000000000094
:1024dc00ff3200000000000050330000000000003c
:1024ec00a233000000000000f333000000000000e5
:1024fc00453400000000000096340000000000008d
:10250c00e834000000000000393500000000000035
:10251c008b35000000000000dc35000000000000de
:10252c002d360000000000007e3600000000000088
:10253c00cf36000000000000203700000000000033
:10254c007137000000000000c237000000000000de
:10255c001338000000000000643800000000000088
:10256c00b538000000000000053900000000000034
:10257c005639000000000000a739000000000000e0
:10258c00f739000000000000483a0000000000008d
:10259c00983a000000000000e93a0000000000003a
:1025ac00393b000000000000893b000000000000e7
:1025bc00d93b0000000000002a3c00000000000095
:1025cc007a3c000000000000ca3c00000000000043
:1025dc001a3d0000000000006a3d000000000000f1
:1025ec00ba3d000000000000093e000000000000a1
:1025fc00593e000000000000a93e00000000000051
:10260c00f93e000000000000483f00000000000000
:10261c00983f000000000000e73f000000000000b1
:10262c003740000000000000864000000000000061
:10263c00d640000000000000254100000000000012
:10264c007441000000000000c341000000000000c5
:10265c001342000000000000624200000000000075
:10266c00b142000000000000004300000000000028
:10267c004f430000000000009d43000000000000dc
:10268c00ec430000000000003b4400000000000090
:10269c008a44000000000000d84400000000000044
:1026ac0027450000000000007645000000000000f7
:1026bc00c4450000000000001346000000000000ac
:1026cc006146000000000000af4600000000000062
:1026dc00fe460000000000004c4700000000000017
:1026ec009a47000000000000e847000000000000ce
:1026fc003648000000000000844800000000000084
:10270c00d24800000000000020490000000000003a
:10271c006e49000000000000bc49000000000000f1
:10272c000a4a000000000000574a000000000000a8
:10273c00a54a000000000000f34a00000000000061
:10274c00404b0000000000008e4b00000000000019
:10275c00db4b000000000000284c000000000000d3
:10276c00764c000000000000c34c0000000000008c
:10277c00104d0000000000005e4d00000000000045
:10278c00ab4d000000000000f84d00000000000000
:10279c00454e000000000000924e000000000000ba
:1027ac00df4e0000000000002c4f00000000000075
:1027bc00784f000000000000c54f00000000000032
:1027cc0012500000000000005f50000000000000ec
:1027dc00ab50000000000000f850000000000000aa
:1027ec004451000000000000915100000000000066
:1027fc00dd51000000000000295200000000000024
:10280c007652000000000000c252000000000000e0
:10281c000e530000000000005a530000000000009e
:10282c00a653000000000000f3530000000000005d
:10283c003f540000000000008a540000000000001b
:10284c00d6540000000000002255000000000000db
:10285c006e55000000000000ba550000000000009a
:10286c00055600000000000051560000000000005a
:10287c009d56000000000000e8560000000000001b
:10288c0034570000000000007f57000000000000db
:10289c00ca5700000000000016580000000000009d
:1028ac006158000000000000ac580000000000005f
:1028bc00f758000000000000435900000000000021
:1028cc008e59000000000000d959000000000000e3
:1028dc00245a0000000000006f5a000000000000a5
:1028ec00b95a000000000000045b0000000000006a
:1028fc004f5b0000000000009a5b0000000000002d
:10290c00e45b0000000000002f5c000000000000f1
:10291c007a5c000000000000c45c000000000000b5
:10292c000f5d000000000000595d00000000000079
:10293c00a35d000000000000ee5d00000000000040
:10294c00385e000000000000825e00000000000005
:10295c00cc5e000000000000165f000000000000cc
:10296c00605f000000000000aa5f00000000000093
:10297c00f45f0000000000003e600000000000005a
:10298c008860000000000000d26000000000000021
:10299c001c610000000000006661000000000000e7
:1029ac00af61000000000000f961000000000000b1
:1029bc0042620000000000008c6200000000000079
:1029cc00d5620000000000001f6300000000000042
:1029dc006863000000000000b1630000000000000c
:1029ec00fb630000000000004464000000000000d5
:1029fc008d64000000000000d664000000000000a0
:102a0c001f65000000000000686500000000000069
:102a1c00b165000000000000fa6500000000000035
:102a2c0043660000000000008c66000000000000ff
:102a3c00d5660000000000001d67000000000000cb
:102a4c006667000000000000af6700000000000097
:102a5c00f767000000000000406800000000000064
:102a6c008868000000000000d16800000000000031
:102a7c0019690000000000006169000000000000fe
:102a8c00aa69000000000000f269000000000000cc
:102a9c003a6a000000000000826a0000000000009a
:102aac00ca6a000000000000126b00000000000069
:102abc005a6b000000000000a26b00000000000038
:102acc00ea6b000000000000326c00000000000007
:102adc007a6c000000000000c26c000000000000d6
:102aec00096d000000000000516d000000000000a6
:102afc00986d000000000000e06d00000000000078
:102b0c00276e0000000000006f6e00000000000047
:102b1c00b66e000000000000fe6e00000000000019
:102b2c00456f0000000000008c6f000000000000ea
:102b3c00d36f0000000000001b70000000000000bc
:102b4c006270000000000000a9700000000000008e
:102b5c00f070000000000000377100000000000061
:102b6c007e71000000000000c57100000000000034
:102b7c000b72000000000000527200000000000008
:102b8c009972000000000000e072000000000000dc
:102b9c0026730000000000006d73000000000000b0
:102bac00b373000000000000fa7300000000000086
:102bbc00407400000000000087740000000000005a
:102bcc00cd74000000000000137500000000000030
:102bdc005a75000000000000a07500000000000005
:102bec00e6750000000000002c76000000000000dc
:102bfc007276000000000000b876000000000000b3
:102c0c00fe76000000000000447700000000000089
:102c1c008a77000000000000d07700000000000060
:102c2c0016780000000000005b7800000000000037
:102c3c00a178000000000000e77800000000000010
:102c4c002c790000000000007279000000000000e8
:102c5c00b779000000000000fd79000000000000c2
:102c6c00427a000000000000877a0000000000009b
:102c7c00cd7a000000000000127b00000000000074
:102c8c00577b0000000000009c7b0000000000004f
:102c9c00e27b000000000000277c00000000000028
:102cac006c7c000000000000b17c00000000000003
:102cbc00f67c0000000000003a7d000000000000df
:102ccc007f7d000000000000c47d000000000000bb
:102cdc00097e0000000000004e7e00000000000095
:102cec00927e000000000000d77e00000000000073
:102cfc001b7f000000000000607f0000000000004f
:102d0c00a47f000000000000e97f0000000000002c
:102d1c002d80000000000000718000000000000009
:102d2c00b680000000000000fa80000000000000e7
:102d3c003e810000000000008281000000000000c5
:102d4c00c6810000000000000a82000000000000a4
:102d5c004e82000000000000928200000000000083
:102d6c00d6820000000000001a8300000000000062
:102d7c005e83000000000000a28300000000000041
:102d8c00e683000000000000298400000000000021
:102d9c006d84000000000000b08400000000000002
:102dac00f4840000000000003885000000000000e2
:102dbc007b85000000000000be85000000000000c4
:102dcc0002860000000000004586000000000000a4
:102ddc008886000000000000cc8600000000000087
:102dec000f87000000000000528700000000000068
:102dfc009587000000000000d8870000000000004c
:102e0c001b880000000000005e880000000000002d
:102e1c00a188000000000000e48800000000000011
:102e2c0027890000000000006989000000000000f4
:102e3c00ac89000000000000ef89000000000000d9
:102e4c00318a000000000000748a000000000000bd
:102e5c00b78a000000000000f98a000000000000a2
:102e6c003c8b0000000000007e8b00000000000086
:102e7c00c08b000000000000038c0000000000006c
:102e8c00458c000000000000878c00000000000052
:102e9c00c98c0000000000000c8d00000000000038
:102eac004e8d000000000000908d0000000000001e
:102ebc00d28d000000000000148e00000000000005
:102ecc00568e000000000000978e000000000000ed
:102edc00d98e0000000000001b8f000000000000d5
:102eec005d8f0000000000009f8f000000000000bc
:102efc00e08f0000000000002290000000000000a5
:102f0c006390000000000000a5900000000000008d
:102f1c00e690000000000000289100000000000076
:102f2c006991000000000000ab910000000000005f
:102f3c00ec910000000000002d9200000000000049
:102f4c006e92000000000000af9200000000000034
:102f5c00f19200000000000032930000000000001d
:102f6c007393000000000000b49300000000000008
:102f7c00f5930000000000003694000000000000f3
:102f8c007694000000000000b794000000000000e0
:102f9c00f8940000000000003995000000000000cb
:102fac007995000000000000ba95000000000000b8
:102fbc00fb950000000000003b96000000000000a4
:102fcc007c96000000000000bc9600000000000091
:102fdc00fd960000000000003d970000000000007e
:102fec007d97000000000000be970000000000006c
:102ffc00fe970000000000003e980000000000005a
:10300c007e98000000000000be9800000000000048
:10301c00fe980000000000003e9900000000000037
:10302c007e99000000000000be9900000000000026
:10303c00fe990000000000003e9a00000000000015
:10304c007e9a000000000000be9a00000000000004
:10305c00fd9a0000000000003d9b000000000000f5
:10306c007d9b000000000000bc9b000000000000e5
:10307c00fc9b0000000000003b9c000000000000d6
:10308c007b9c000000000000ba9c000000000000c7
:10309c00fa9c000000000000399d000000000000b8
:1030ac00789d000000000000b89d000000000000aa
:1030bc00f79d000000000000369e0000000000009c
:1030cc00759e000000000000b49e0000000000008f
:1030dc00f39e000000000000329f00000000000082
:1030ec00719f000000000000b09f00000000000075
:1030fc00ef9f0000000000002ea000000000000068
:10310c006da0000000000000aba00000000000005b
:10311c00eaa000000000000029a10000000000004f
:10312c0067a1000000000000a6a100000000000044
:10313c00e4a100000000000023a200000000000039
:10314c0061a2000000000000a0a20000000000002e
:10315c00dea20000000000001ca300000000000024
:10316c005ba300000000000099a300000000000019
:10317c00d7a300000000000015a400000000000010
:10318c0053a400000000000091a400000000000007
:10319c00cfa40000000000000da5000000000000fe
:1031ac004ba500000000000089a5000000000000f5
:1031bc00c7a500000000000005a6000000000000ec
:1031cc0043a600000000000080a6000000000000e4
:1031dc00bea6000000000000fca6000000000000dd
:1031ec0039a700000000000077a7000000000000d5
:1031fc00b4a7000000000000f2a7000000000000cf
:10320c002fa80000000000006da8000000000000c6
:10321c00aaa8000000000000e7a8000000000000c1
:10322c0025a900000000000062a9000000000000b9
:10323c009fa9000000000000dca9000000000000b5
:10324c0019aa00000000000056aa000000000000af
:10325c0094aa000000000000d0aa000000000000aa
:10326c000dab0000000000004aab000000000000a5
:10327c0087ab000000000000c4ab000000000000a1
:10328c0001ac0000000000003eac0000000000009b
:10329c007aac000000000000b7ac00000000000099
:1032ac00f3ac00000000000030ad00000000000096
:1032bc006dad000000000000a9ad00000000000092
:1032cc00e6ad00000000000022ae0000000000008f
:1032dc005eae0000000000009bae0000000000008d
:1032ec00d7ae00000000000013af0000000000008b
:1032fc004faf0000000000008caf00000000000089
:10330c00c8af00000000000004b000000000000086
:10331c0040b00000000000007cb000000000000085
:10332c00b8b0000000000000f4b000000000000085
:10333c0030b10000000000006bb100000000000084
:10334c00a7b1000000000000e3b100000000000085
:10335c001fb20000000000005ab200000000000084
:10336c0096b2000000000000d2b200000000000085
:10337c000db300000000000049b300000000000085
:10338c0084b3000000000000c0b300000000000087
:10339c00fbb300000000000036b400000000000089
:1033ac0072b4000000000000adb40000000000008a
:1033bc00e8b400000000000023b50000000000008d
:1033cc005eb50000000000009ab50000000000008f
:1033dc00d5b500000000000010b600000000000091
:1033ec004bb600000000000086b600000000000094
:1033fc00c1b6000000000000fbb600000000000099
:10340c0036b700000000000071b70000000000009b
:10341c00acb7000000000000e7b70000000000009f
:10342c0021b80000000000005cb8000000000000a3
:10343c0096b8000000000000d1b8000000000000a9
:10344c000cb900000000000046b9000000000000ac
:10345c0080b9000000000000bbb9000000000000b3
:10346c00f5b90000000000002fba000000000000b9
:10347c006aba000000000000a4ba000000000000be
:10348c00deba00000000000018bb000000000000c5
:10349c0052bb0000000000008dbb000000000000cb
:1034ac00c7bb00000000000001bc000000000000d1
:1034bc003bbc00000000000075bc000000000000d8
:1034cc00aebc000000000000e8bc000000000000e2
:1034dc0022bd0000000000005cbd000000000000e8
:1034ec0096bd000000000000cfbd000000000000f1
:1034fc0009be00000000000043be000000000000f8
:10350c007cbe000000000000b6be00000000000001
:10351c00efbe00000000000029bf0000000000000a
:10352c0062bf0000000000009bbf00000000000014
:10353c00d5bf0000000000000ec00000000000001d
:10354c0047c000000000000080c000000000000028
:10355c00bac0000000000000f3c000000000000032
:10356c002cc100000000000065c10000000000003c
:10357c009ec1000000000000d7c100000000000048
:10358c0010c200000000000049c200000000000052
:10359c0082c2000000000000bbc20000000000005e
:1035ac00f3c20000000000002cc30000000000006b
:1035bc0065c30000000000009ec300000000000076
:1035cc00d6c30000000000000fc400000000000083
:1035dc0047c400000000000080c400000000000090
:1035ec00b8c4000000000000f1c40000000000009e
:1035fc0029c500000000000062c5000000000000aa
:10360c009ac5000000000000d2c5000000000000b8
:10361c000bc600000000000043c6000000000000c4
:10362c007bc6000000000000b3c6000000000000d4
:10363c00ebc600000000000023c7000000000000e3
:10364c005bc700000000000093c7000000000000f2
:10365c00cbc700000000000003c800000000000001
:10366c003bc800000000000073c800000000000010
:10367c00abc8000000000000e3c800000000000020
:10368c001ac900000000000052c900000000000030
:10369c008ac9000000000000c1c900000000000041
:1036ac00f9c900000000000030ca00000000000052
:1036bc0068ca0000000000009fca00000000000063
:1036cc00d7ca0000000000000ecb00000000000074
:1036dc0045cb0000000000007dcb00000000000086
:1036ec00b4cb000000000000ebcb00000000000099
:1036fc0023cc0000000000005acc000000000000a9
:10370c0091cc000000000000c8cc000000000000bc
:10371c00ffcc00000000000036cd000000000000cf
:10372c006dcd000000000000a4cd000000000000e2
:10373c00dbcd00000000000012ce000000000000f5
:10374c0049ce0000000000007fce00000000000009
:10375c00b6ce000000000000edce0000000000001e
:10376c0024cf0000000000005acf00000000000031
:10377c0091cf000000000000c7cf00000000000047
:10378c00fecf00000000000034d00000000000005c
:10379c006bd0000000000000a1d000000000000071
:1037ac00d8d00000000000000ed100000000000086
:1037bc0044d10000000000007bd10000000000009c
:1037cc00b1d1000000000000e7d1000000000000b3
:1037dc001dd200000000000053d2000000000000c9
:1037ec0089d2000000000000c0d2000000000000e0
:1037fc00f6d20000000000002cd3000000000000f6
:10380c0061d300000000000097d30000000000000e
:10381c00cdd300000000000003d400000000000025
:10382c0039d40000000000006fd40000000000003c
:10383c00a4d4000000000000dad400000000000056
:10384c0010d500000000000045d50000000000006d
:10385c007bd5000000000000b1d500000000000086
:10386c00e6d50000000000001cd60000000000009f
:10387c0051d600000000000086d6000000000000b9
:10388c00bcd6000000000000f1d6000000000000d3
:10389c0026d70000000000005cd7000000000000ec
:1038ac0091d7000000000000c6d700000000000007
:1038bc00fbd700000000000030d800000000000022
:1038cc0065d80000000000009ad80000000000003d
:1038dc00cfd800000000000004d900000000000058
:1038ec0039d90000000000006ed900000000000073
:1038fc00a3d9000000000000d8d90000000000008f
:10390c000dda00000000000042da000000000000a8
:10391c0076da000000000000abda000000000000c6
:10392c00e0da00000000000014db000000000000e2
:10393c0049db0000000000007ddb000000000000ff
:10394c00b2db000000000000e6db0000000000001d
:10395c001bdc0000000000004fdc00000000000039
:10396c0083dc000000000000b8dc00000000000058
:10397c00ecdc00000000000020dd00000000000076
:10398c0055dd00000000000089dd00000000000093
:10399c00bddd000000000000f1dd000000000000b3
:1039ac0025de00000000000059de000000000000d1
:1039bc008dde000000000000c1de000000000000f1
:1039cc00f5de00000000000029df00000000000010
:1039dc005ddf00000000000091df0000000000002f
:1039ec00c5df000000000000f8df00000000000050
:1039fc002ce000000000000060e00000000000006f
:103a0c0093e0000000000000c7e000000000000090
:103a1c00fbe00000000000002ee1000000000000b0
:103a2c0062e100000000000095e1000000000000d1
:103a3c00c9e1000000000000fce1000000000000f3
:103a4c002fe200000000000063e200000000000014
:103a5c0096e2000000000000c9e200000000000037
:103a6c00fde200000000000030e300000000000058
:103a7c0063e300000000000096e30000000000007b
:103a8c00c9e3000000000000fce30000000000009f
:103a9c002fe400000000000062e4000000000000c1
:103aac0095e4000000000000c8e4000000000000e5
:103abc00fbe40000000000002ee500000000000008
:103acc0061e500000000000094e50000000000002b
:103adc00c6e5000000000000f9e500000000000051
:103aec002ce60000000000005fe600000000000073
:103afc0091e6000000000000c4e600000000000099
:103b0c00f6e600000000000029e7000000000000bd
:103b1c005be70000000000008ee7000000000000e2
:103b2c00c0e7000000000000f3e700000000000008
:103b3c0025e800000000000057e80000000000002d
:103b4c0089e8000000000000bce800000000000054
:103b5c00eee800000000000020e90000000000007a
:103b6c0052e900000000000084e9000000000000a1
:103b7c00b6e9000000000000e9e9000000000000c8
:103b8c001bea0000000000004cea000000000000ee
:103b9c007eea000000000000b0ea00000000000017
:103bac00e2ea00000000000014eb0000000000003e
:103bbc0046eb00000000000078eb00000000000065
:103bcc00a9eb000000000000dbeb0000000000008f
:103bdc000dec0000000000003eec000000000000b6
:103bec0070ec000000000000a2ec000000000000df
:103bfc00d3ec00000000000005ed00000000000008
:103c0c0036ed00000000000068ed00000000000030
:103c1c0099ed000000000000caed0000000000005b
:103c2c00fced0000000000002dee00000000000084
:103c3c005eee0000000000008fee000000000000af
:103c4c00c1ee000000000000f2ee000000000000d9
:103c5c0023ef00000000000054ef00000000000003
:103c6c0085ef000000000000b6ef0000000000002f
:103c7c00e7ef00000000000018f00000000000005a
:103c8c0049f00000000000007af000000000000085
:103c9c00abf0000000000000dcf0000000000000b1
:103cac000df10000000000003df1000000000000dc
:103cbc006ef10000000000009ff100000000000009
:103ccc00cff100000000000000f200000000000036
:103cdc0031f200000000000061f200000000000062
:103cec0092f2000000000000c2f200000000000090
:103cfc00f3f200000000000023f3000000000000bd
:103d0c0054f300000000000084f3000000000000e9
:103d1c00b4f3000000000000e5f300000000000018
:103d2c0015f400000000000045f400000000000045
:103d3c0075f4000000000000a6f400000000000074
:103d4c00d6f400000000000006f5000000000000a2
:103d5c0036f500000000000066f5000000000000d1
:103d6c0096f5000000000000c6f500000000000001
:103d7c00f6f500000000000026f600000000000030
:103d8c0056f600000000000086f60000000000005f
:103d9c00b5f6000000000000e5f600000000000091
:103dac0015f700000000000045f7000000000000bf
:103dbc0074f7000000000000a4f7000000000000f1
:103dcc00d4f700000000000003f800000000000021
:103ddc0033f800000000000062f800000000000052
:103dec0092f8000000000000c1f800000000000084
:103dfc00f1f800000000000020f9000000000000b5
:103e0c0050f90000000000007ff9000000000000e5
:103e1c00aef9000000000000def900000000000018
:103e2c000dfa0000000000003cfa00000000000049
:103e3c006bfa0000000000009afa0000000000007d
:103e4c00c9fa000000000000f9fa000000000000b0
:103e5c0028fb00000000000057fb000000000000e1
:103e6c0086fb000000000000b5fb00000000000015
:103e7c00e3fb00000000000012fc0000000000004a
:103e8c0041fc00000000000070fc0000000000007d
:103e9c009ffc000000000000cefc000000000000b1
:103eac00fcfc0000000000002bfd000000000000e6
:103ebc005afd00000000000088fd0000000000001a
:103ecc00b7fd000000000000e6fd0000000000004f
:103edc0014fe00000000000043fe00000000000083
:103eec0071fe000000000000a0fe000000000000b9
:103efc00cefe000000000000fcfe000000000000f0
:103f0c002bff00000000000059ff00000000000023
:103f1c0087ff000000000000b6ff0000000000005a
:103f2c00e4ff00000000000012000000010000008f
:103f3c0040000000010000006e00000001000000c5
:103f4c009c00000001000000cb00000001000000fc
:103f5c00f900000001000000270100000100000032
:103f6c005501000001000000830100000100000069
:103f7c00b001000001000000de01000001000000a3
:103f8c000c020000010000003a02000001000000d9
:103f9c006802000001000000960200000100000011
:103fac00c302000001000000f1020000010000004b
:103fbc001f030000010000004c0300000100000082
:103fcc007a03000001000000a803000001000000bb
:103fdc00d5030000010000000304000001000000f4
:103fec0030040000010000005e040000010000002d
:103ffc008b04000001000000b80400000100000068
:10400c00e6040000010000001305000001000000a0
:10401c0040050000010000006e05000001000000da
:10402c009b05000001000000c80500000100000015
:10403c00f505000001000000220600000100000050
:10404c0050060000010000007d0600000100000089
:10405c00aa06000001000000d706000001000000c5
:10406c0004070000010000003107000001000000ff
:10407c005e070000010000008b070000010000003b
:10408c00b707000001000000e40700000100000079
:10409c0011080000010000003e08000001000000b3
:1040ac006b080000010000009708000001000000f0
:1040bc00c408000001000000f1080000010000002d
:1040cc001d090000010000004a0900000100000069
:1040dc007609000001000000a309000001000000a7
:1040ec00d009000001000000fc09000001000000e4
:1040fc00280a000001000000550a00000100000021
:10410c00810a000001000000ae0a0000010000005e
:10411c00da0a000001000000060b0000010000009c
:10412c00330b0000010000005f0b000001000000d9
:10413c008b0b000001000000b70b00000100000019
:10414c00e30b0000010000000f0c00000100000058
:10415c003c0c000001000000680c00000100000095
:10416c00940c000001000000c00c000001000000d5
:10417c00ec0c000001000000180d00000100000014
:10418c00430d0000010000006f0d00000100000055
:10419c009b0d000001000000c70d00000100000095
:1041ac00f30d0000010000001f0e000001000000d4
:1041bc004a0e000001000000760e00000100000015
:1041cc00a20e000001000000cd0e00000100000056
:1041dc00f90e000001000000250f00000100000096
:1041ec00500f0000010000007c0f000001000000d7
:1041fc00a70f000001000000d30f00000100000019
:10420c00fe0f0000010000002a1000000100000059
:10421c00551000000100000080100000010000009b
:10422c00ac10000001000000d710000001000000dd
:10423c0002110000010000002d110000010000001f
:10424c005911000001000000841100000100000061
:10425c00af11000001000000da11000001000000a5
:10426c0005120000010000003012000001000000e7
:10427c005b1200000100000086120000010000002b
:10428c00b112000001000000dc120000010000006f
:10429c0007130000010000003213000001000000b1
:1042ac005d130000010000008813000001000000f5
:1042bc00b213000001000000dd130000010000003b
:1042cc00081400000100000033140000010000007d
:1042dc005d140000010000008814000001000000c3
:1042ec00b314000001000000dd1400000100000008
:1042fc00081500000100000032150000010000004c
:10430c005d15000001000000871500000100000091
:10431c00b215000001000000dc15000001000000d7
:10432c00071600000100000031160000010000001b
:10433c005b16000001000000861600000100000062
:10434c00b016000001000000da16000001000000a9
:10435c0004170000010000002e17000001000000ef
:10436c005917000001000000831700000100000035
:10437c00ad17000001000000d7170000010000007d
:10438c0001180000010000002b18000001000000c3
:10439c0055180000010000007f180000010000000b
:1043ac00a918000001000000d31800000100000053
:1043bc00fd1800000100000027190000010000009a
:1043cc0050190000010000007a19000001000000e3
:1043dc00a419000001000000ce190000010000002b
:1043ec00f719000001000000211a00000100000074
:1043fc004b1a000001000000741a000001000000bc
:10440c009e1a000001000000c81a00000100000004
:10441c00f11a0000010000001b1b0000010000004d
:10442c00441b0000010000006e1b00000100000096
:10443c00971b000001000000c01b000001000000e1
:10444c00ea1b000001000000131c0000010000002a
:10445c003c1c000001000000661c00000100000074
:10446c008f1c000001000000b81c000001000000bf
:10447c00e11c0000010000000b1d00000100000009
:10448c00341d0000010000005d1d00000100000053
:10449c00861d000001000000af1d0000010000009f
:1044ac00d81d000001000000011e000001000000ea
:1044bc002a1e000001000000531e00000100000035
:1044cc007c1e000001000000a51e00000100000081
:1044dc00ce1e000001000000f71e000001000000cd
:1044ec001f1f000001000000481f00000100000019
:1044fc00711f0000010000009a1f00000100000065
:10450c00c21f000001000000eb1f000001000000b2
:10451c0014200000010000003c20000001000000fd
:10452c0065200000010000008e200000010000004a
:10453c00b620000001000000df2000000100000098
:10454c0007210000010000003021000001000000e4
:10455c005821000001000000802100000100000033
:10456c00a921000001000000d12100000100000081
:10457c00f9210000010000002222000001000000cf
:10458c004a2200000100000072220000010000001d
:10459c009a22000001000000c3220000010000006c
:1045ac00eb220000010000001323000001000000ba
:1045bc003b23000001000000632300000100000009
:1045cc008b23000001000000b32300000100000059
:1045dc00db230000010000000324000001000000a8
:1045ec002b240000010000005324000001000000f7
:1045fc007b24000001000000a32400000100000047
:10460c00cb24000001000000f22400000100000097
:10461c001a250000010000004225000001000000e6
:10462c006a25000001000000912500000100000037
:10463c00b925000001000000e12500000100000088
:10464c0008260000010000003026000001000000d8
:10465c0057260000010000007f260000010000002a
:10466c00a626000001000000ce260000010000007c
:10467c00f5260000010000001d27000001000000cd
:10468c0044270000010000006c270000010000001e
:10469c009327000001000000ba2700000100000071
:1046ac00e2270000010000000928000001000000c2
:1046bc003028000001000000572800000100000015
:1046cc007f28000001000000a62800000100000067
:1046dc00cd28000001000000f428000001000000bb
:1046ec001b2900000100000042290000010000000d
:1046fc006929000001000000902900000100000061
:10470c00b729000001000000de29000001000000b4
:10471c00052a0000010000002c2a00000100000006
:10472c00532a0000010000007a2a0000010000005a
:10473c00a02a000001000000c72a000001000000b0
:10474c00ee2a000001000000152b00000100000003
:10475c003b2b000001000000622b00000100000058
:10476c00892b000001000000af2b000001000000ad
:10477c00d62b000001000000fd2b00000100000002
:10478c00232c0000010000004a2c00000100000056
:10479c00702c000001000000972c000001000000ac
:1047ac00bd2c000001000000e42c00000100000002
:1047bc000a2d000001000000302d00000100000057
:1047cc00572d0000010000007d2d000001000000ad
:1047dc00a32d000001000000ca2d00000100000004
:1047ec00f02d000001000000162e0000010000005a
:1047fc003c2e000001000000632e000001000000b0
:10480c00892e000001000000af2e00000100000006
:10481c00d52e000001000000fb2e0000010000005e
:10482c00212f000001000000472f000001000000b4
:10483c006d2f000001000000932f0000010000000c
:10484c00b92f000001000000df2f00000100000064
:10485c0005300000010000002b30000001000000ba
:10486c005030000001000000763000000100000014
:10487c009c30000001000000c2300000010000006c
:10488c00e8300000010000000d31000001000000c4
:10489c00333100000100000059310000010000001c
:1048ac007e31000001000000a43100000100000076
:1048bc00c931000001000000ef31000001000000d0
:1048cc0014320000010000003a3200000100000028
:1048dc005f32000001000000853200000100000082
:1048ec00aa32000001000000d032000001000000dc
:1048fc00f5320000010000001a3300000100000036
:10490c00403300000100000065330000010000008e
:10491c008a33000001000000b033000001000000e9
:10492c00d533000001000000fa3300000100000044
:10493c001f3400000100000044340000010000009e
:10494c006a340000010000008f34000001000000f8
:10495c00b434000001000000d93400000100000054
:10496c00fe340000010000002335000001000000af
:10497c0048350000010000006d350000010000000a
:10498c009235000001000000b73500000100000066
:10499c00db350000010000000036000001000000c3
:1049ac0025360000010000004a360000010000001e
:1049bc006f3600000100000093360000010000007b
:1049cc00b836000001000000dd36000001000000d8
:1049dc000137000001000000263700000100000034
:1049ec004b370000010000006f3700000100000091
:1049fc009437000001000000b937000001000000ee
:104a0c00dd3700000100000002380000010000004a
:104a1c0026380000010000004a38000001000000a8
:104a2c006f38000001000000933800000100000006
:104a3c00b838000001000000dc3800000100000064
:104a4c0000390000010000002539000001000000c1
:104a5c0049390000010000006d3900000100000020
:104a6c009139000001000000b6390000010000007f
:104a7c00da39000001000000fe39000001000000de
:104a8c00223a000001000000463a0000010000003c
:104a9c006a3a0000010000008e3a0000010000009c
:104aac00b23a000001000000d63a000001000000fc
:104abc00fa3a0000010000001e3b0000010000005b
:104acc00423b000001000000663b000001000000ba
:104adc008a3b000001000000ae3b0000010000001a
:104aec00d23b000001000000f63b0000010000007a
:104afc00193c0000010000003d3c000001000000da
:104b0c00613c000001000000853c00000100000039
:104b1c00a83c000001000000cc3c0000010000009b
:104b2c00f03c000001000000133d000001000000fb
:104b3c00373d0000010000005a3d0000010000005c
:104b4c007e3d000001000000a23d000001000000bd
:104b5c00c53d000001000000e93d0000010000001f
:104b6c000c3e0000010000002f3e00000100000080
:104b7c00533e000001000000763e000001000000e2
:104b8c009a3e000001000000bd3e00000100000044
:104b9c00e03e000001000000043f000001000000a6
:104bac00273f0000010000004a3f00000100000008
:104bbc006d3f000001000000903f0000010000006c
:104bcc00b43f000001000000d73f000001000000ce
:104bdc00fa3f0000010000001d4000000100000031
:104bec004040000001000000634000000100000094
:104bfc008640000001000000a940000001000000f8
:104c0c00cc40000001000000ef400000010000005b
:104c1c0012410000010000003541000001000000bd
:104c2c0058410000010000007b4100000100000021
:104c3c009d41000001000000c04100000100000087
:104c4c00e3410000010000000642000001000000ea
:104c5c0029420000010000004b420000010000004e
:104c6c006e420000010000009142000001000000b3
:104c7c00b342000001000000d64200000100000019
:104c8c00f9420000010000001b430000010000007d
:104c9c003e430000010000006043000001000000e2
:104cac008343000001000000a54300000100000048
:104cbc00c843000001000000ea43000001000000ae
:104ccc000d440000010000002f4400000100000012
:104cdc005144000001000000744400000100000079
:104cec009644000001000000b844000001000000e0
:104cfc00db44000001000000fd4400000100000046
:104d0c001f450000010000004145000001000000ab
:104d1c006345000001000000864500000100000012
:104d2c00a845000001000000ca4500000100000079
:104d3c00ec450000010000000e46000001000000e0
:104d4c003046000001000000524600000100000047
:104d5c0074460000010000009646000001000000af
:104d6c00b846000001000000da4600000100000017
:104d7c00fc460000010000001e470000010000007e
:104d8c0040470000010000006147000001000000e6
:104d9c008347000001000000a5470000010000004f
:104dac00c747000001000000e847000001000000b8
:104dbc000a480000010000002c480000010000001f
:104dcc004e480000010000006f4800000100000088
:104ddc009148000001000000b248000001000000f2
:104dec00d448000001000000f6480000010000005b
:104dfc0017490000010000003949000001000000c3
:104e0c005a490000010000007c490000010000002c
:104e1c009d49000001000000bf4900000100000096
:104e2c00e049000001000000014a00000100000000
:104e3c00234a000001000000444a00000100000069
:104e4c00654a000001000000874a000001000000d4
:104e5c00a84a000001000000c94a0000010000003f
:104e6c00ea4a0000010000000c4b000001000000a9
:104e7c002d4b0000010000004e4b00000100000013
:104e8c006f4b000001000000904b0000010000007f
:104e9c00b14b000001000000d24b000001000000eb
:104eac00f34b000001000000144c00000100000056
:104ebc00354c000001000000564c000001000000c1
:104ecc00774c000001000000984c0000010000002d
:104edc00b94c000001000000da4c00000100000099
:104eec00fb4c0000010000001c4d00000100000004
:104efc003d4d0000010000005d4d00000100000070
:104f0c007e4d0000010000009f4d000001000000dc
:104f1c00c04d000001000000e04d00000100000049
:104f2c00014e000001000000224e000001000000b4
:104f3c00424e000001000000634e00000100000022
:104f4c00844e000001000000a44e0000010000008f
:104f5c00c54e000001000000e54e000001000000fd
:104f6c00064f000001000000264f00000100000069
:104f7c00474f000001000000674f000001000000d7
:104f8c00884f000001000000a84f00000100000045
:104f9c00c84f000001000000e94f000001000000b4
:104fac000950000001000000295000000100000021
:104fbc004a500000010000006a500000010000008f
:104fcc008a50000001000000aa50000001000000ff
:104fdc00cb50000001000000eb500000010000006d
:104fec000b510000010000002b51000001000000db
:104ffc004b510000010000006b510000010000004b
:10500c008b51000001000000ab51000001000000ba
:10501c00cb51000001000000eb510000010000002a
:10502c000b520000010000002b5200000100000098
:10503c004b520000010000006b5200000100000008
:10504c008b52000001000000ab5200000100000078
:10505c00cb52000001000000eb52000001000000e8
:10506c000b530000010000002a5300000100000057
:10507c004a530000010000006a53000001000000c8
:10508c008a53000001000000a95300000100000039
:10509c00c953000001000000e953000001000000aa
:1050ac00085400000100000028540000010000001a
:1050bc00485400000100000067540000010000008b
:1050cc008754000001000000a654000001000000fd
:1050dc00c654000001000000e5540000010000006f
:1050ec0005550000010000002455000001000000df
:1050fc004455000001000000635500000100000051
:10510c008255000001000000a255000001000000c3
:10511c00c155000001000000e05500000100000036
:10512c0000560000010000001f56000001000000a6
:10513c003e560000010000005e5600000100000019
:10514c007d560000010000009c560000010000008c
:10515c00bb56000001000000da5600000100000000
:10516c00f956000001000000185700000100000073
:10517c0038570000010000005757000001000000e4
:10518c007657000001000000955700000100000058
:10519c00b457000001000000d357000001000000cc
:1051ac00f25700000100000011580000010000003f
:1051bc0030580000010000004e58000001000000b3
:1051cc006d580000010000008c5800000100000028
:1051dc00ab58000001000000ca580000010000009c
:1051ec00e958000001000000075900000100000010
:1051fc002659000001000000455900000100000084
:10520c0064590000010000008259000001000000f8
:10521c00a159000001000000c0590000010000006d
:10522c00de59000001000000fd59000001000000e3
:10523c001b5a0000010000003a5a00000100000057
:10524c00595a000001000000775a000001000000cc
:10525c00965a000001000000b45a00000100000042
:10526c00d35a000001000000f15a000001000000b8
:10527c000f5b0000010000002e5b0000010000002d
:10528c004c5b0000010000006b5b000001000000a3
:10529c00895b000001000000a75b0000010000001a
:1052ac00c65b000001000000e45b00000100000090
:1052bc00025c000001000000205c00000100000006
:1052cc003f5c0000010000005d5c0000010000007c
:1052dc007b5c000001000000995c000001000000f4
:1052ec00b75c000001000000d55c0000010000006c
:1052fc00f35c000001000000125d000001000000e2
:10530c00305d0000010000004e5d00000100000057
:10531c006c5d0000010000008a5d000001000000cf
:10532c00a85d000001000000c65d00000100000047
:10533c00e45d000001000000015e000001000000bf
:10534c001f5e0000010000003d5e00000100000037
:10535c005b5e000001000000795e000001000000af
:10536c00975e000001000000b45e00000100000028
:10537c00d25e000001000000f05e000001000000a1
:10538c000e5f0000010000002b5f00000100000018
:10539c00495f000001000000675f00000100000091
:1053ac00845f000001000000a25f0000010000000b
:1053bc00c05f000001000000dd5f00000100000084
:1053cc00fb5f0000010000001860000001000000fd
:1053dc003660000001000000536000000100000076
:1053ec0071600000010000008e60000001000000f0
:1053fc00ac60000001000000c9600000010000006a
:10540c00e7600000010000000461000001000000e2
:10541c0022610000010000003f610000010000005b
:10542c005c610000010000007a61000001000000d6
:10543c009761000001000000b46100000100000051
:10544c00d161000001000000ef61000001000000cc
:10545c000c62000001000000296200000100000045
:10546c0046620000010000006362000001000000c1
:10547c0080620000010000009e620000010000003c
:10548c00bb62000001000000d862000001000000b7
:10549c00f562000001000000126300000100000032
:1054ac002f630000010000004c63000001000000ad
:1054bc006963000001000000866300000100000029
:1054cc00a363000001000000c063000001000000a5
:1054dc00dd63000001000000f96300000100000022
:1054ec00166400000100000033640000010000009d
:1054fc0050640000010000006d6400000100000019
:10550c008964000001000000a66400000100000096
:10551c00c364000001000000e06400000100000012
:10552c00fc6400000100000019650000010000008f
:10553c00366500000100000052650000010000000b
:10554c006f650000010000008c6500000100000088
:10555c00a865000001000000c56500000100000006
:10556c00e165000001000000fe6500000100000084
:10557c001a66000001000000376600000100000000
:10558c00536600000100000070660000010000007e
:10559c008c66000001000000a966000001000000fc
:1055ac00c566000001000000e1660000010000007b
:1055bc00fe660000010000001a67000001000000f8
