:020000040000fa
:080000000002040000000000f2
:020000040000fa
:04000800e002000012
:020000040000fa
:04000c00e00200000e
:020000040000fa
:04001000e00200000a
:020000040000fa
:04001400e002000006
:020000040000fa
:04001800e002000002
:020000040000fa
:04001c00e0020000fe
:020000040000fa
:04002000e0020000fa
:020000040000fa
:04002400e0020000f6
:020000040000fa
:04002800e0020000f2
:020000040000fa
:04002c00e0020000ee
:020000040000fa
:04003000e0020000ea
:020000040000fa
:04003400e0020000e6
:020000040000fa
:04003800c8020000fa
:020000040000fa
:04003c00e0020000de
:020000040000fa
:04004000e0020000da
:020000040000fa
:04004400e0020000d6
:020000040000fa
:04004800e0020000d2
:020000040000fa
:04004c00e0020000ce
:020000040000fa
:04005000e0020000ca
:020000040000fa
:04005400e0020000c6
:020000040000fa
:04005800e0020000c2
:020000040000fa
:04005c00e0020000be
:020000040000fa
:04006000d4020000c6
:020000040000fa
:04006400e0020000b6
:020000040000fa
:04006800e0020000b2
:020000040000fa
:04006c00e0020000ae
:020000040000fa
:04007000e0020000aa
:020000040000fa
:04007400e0020000a6
:020000040000fa
:04007800e0020000a2
:020000040000fa
:04007c00e00200009e
:020000040000fa
:04008000e00200009a
:020000040000fa
:04008400e002000096
:020000040000fa
:04008800e002000092
:020000040000fa
:04008c00e00200008e
:020000040000fa
:04009000e00200008a
:020000040000fa
:04009400e002000086
:020000040000fa
:04009800e002000082
:020000040000fa
:04009c00e00200007e
:020000040000fa
:0400a000e00200007a
:020000040000fa
:0400a400e002000076
:020000040000fa
:0400a800e002000072
:020000040000fa
:0400ac00e00200006e
:020000040000fa
:0400b000e00200006a
:020000040000fa
:0400b400e002000066
:020000040000fa
:0400b800e002000062
:020000040000fa
:0400bc00e00200005e
:020000040000fa
:0400c000e00200005a
:020000040000fa
:0400c400e002000056
:020000040000fa
:0400c800e002000052
:020000040000fa
:0400cc00e00200004e
:020000040000fa
:0400d000e00200004a
:020000040000fa
:0400d400e002000046
:020000040000fa
:0400d800e002000042
:020000040000fa
:0400dc00e00200003e
:020000040000fa
:0400e000e00200003a
:020000040000fa
:0400e400e002000036
:020000040000fa
:0400e800e002000032
:020000040000fa
:0400ec00e00200002e
:020000040000fa
:0400f000e00200002a
:020000040000fa
:0400f400e002000026
:020000040000fa
:0400f800e002000022
:020000040000fa
:0400fc00e00200001e
:020000040000fa
:04010000e002000019
:020000040000fa
:04010400e002000015
:020000040000fa
:04010800e002000011
:020000040000fa
:04010c00e00200000d
:020000040000fa
:04011000e002000009
:020000040000fa
:04011400e002000005
:020000040000fa
:04011800e002000001
:020000040000fa
:04011c00e0020000fd
:020000040000fa
:04012000e0020000f9
:020000040000fa
:04012400e0020000f5
:020000040000fa
:04012800e0020000f1
:020000040000fa
:04012c00e0020000ed
:020000040000fa
:04013000e0020000e9
:020000040000fa
:04013400e0020000e5
:020000040000fa
:04013800e0020000e1
:020000040000fa
:04013c00e0020000dd
:020000040000fa
:04014000e0020000d9
:020000040000fa
:04014400e0020000d5
:020000040000fa
:04014800e0020000d1
:020000040000fa
:04014c00e0020000cd
:020000040000fa
:04015000e0020000c9
:020000040000fa
:04015400e0020000c5
:020000040000fa
:04015800e0020000c1
:020000040000fa
:04015c00e0020000bd
:020000040000fa
:04016000e0020000b9
:020000040000fa
:04016400e0020000b5
:020000040000fa
:04020800e002000010
:020000040000fa
:04020c00e00200000c
:020000040000fa
:04021000e002000008
:020000040000fa
:04021400e002000004
:020000040000fa
:04021800e002000000
:020000040000fa
:04021c00e0020000fc
:020000040000fa
:04022000e0020000f8
:020000040000fa
:04022400e0020000f4
:020000040000fa
:04022800e0020000f0
:020000040000fa
:04022c00e0020000ec
:020000040000fa
:04023000e0020000e8
:020000040000fa
:04023400e0020000e4
:020000040000fa
:04023800e0020000e0
:020000040000fa
:04023c00e0020000dc
:020000040000fa
:04024000e0020000d8
:020000040000fa
:04024400e0020000d4
:020000040000fa
:04024800e0020000d0
:020000040000fa
:04024c00e0020000cc
:020000040000fa
:04025000e0020000c8
:020000040000fa
:04025400e0020000c4
:020000040000fa
:04025800e0020000c0
:020000040000fa
:04025c00e0020000bc
:020000040000fa
:04026000e0020000b8
:020000040000fa
:04026400e0020000b4
:020000040000fa
:04026800e0020000b0
:020000040000fa
:04026c00e0020000ac
:020000040000fa
:04027000e0020000a8
:020000040000fa
:04027400e0020000a4
:020000040000fa
:04027800e0020000a0
:020000040000fa
:04027c00e00200009c
:020000040000fa
:04028000e002000098
:020000040000fa
:04028400e002000094
:020000040000fa
:04028800e002000090
:020000040000fa
:04028c00e00200008c
:020000040000fa
:04029000e002000088
:020000040000fa
:04029400e002000084
:020000040000fa
:04029800e002000080
:020000040000fa
:04029c00e00200007c
:020000040000fa
:0402a000e002000078
:020000040000fa
:0402a400e002000074
:020000040000fa
:0402a800e002000070
:020000040000fa
:0402ac00e00200006c
:020000040000fa
:0402b000e002000068
:020000040000fa
:0402b400e002000064
:020000040000fa
:0402b800e002000060
:020000040000fa
:0402bc00e00200005c
:020000040000fa
:0402c000e002000058
:020000040000fa
:0402c400e002000054
:020000040000fa
:0402c800e002000050
:020000040000fa
:0402cc00e00200004c
:020000040000fa
:0402d000e002000048
:020000040000fa
:0402d400e002000044
:020000040000fa
:0402d800e002000040
:020000040000fa
:0402dc00e00200003c
:020000040000fa
:0402e000e002000038
:020000040000fa
:0402e400e002000034
:020000040000fa
:0402e800e002000030
:020000040000fa
:0402ec00e00200002c
:020000040000fa
:0402f000e002000028
:020000040000fa
:0402f400e002000024
:020000040000fa
:0402f800e002000020
:020000040000fa
:0402fc00e00200001c
:020000040000fa
:04030000e002000017
:020000040000fa
:04030400e002000013
:020000040000fa
:04030800e00200000f
:020000040000fa
:04030c00e00200000b
:020000040000fa
:04031000e002000007
:020000040000fa
:04031400e002000003
:020000040000fa
:04031800e0020000ff
:020000040000fa
:04031c00e0020000fb
:020000040000fa
:04032000e0020000f7
:020000040000fa
:04032400e0020000f3
:020000040000fa
:04032800e0020000ef
:020000040000fa
:04032c00e0020000eb
:020000040000fa
:04033000e0020000e7
:020000040000fa
:04033400e0020000e3
:020000040000fa
:04033800e0020000df
:020000040000fa
:04033c00e0020000db
:020000040000fa
:04034000e0020000d7
:020000040000fa
:04034400e0020000d3
:020000040000fa
:04034800e0020000cf
:020000040000fa
:04034c00e0020000cb
:020000040000fa
:04035000e0020000c7
:020000040000fa
:04035400e0020000c3
:020000040000fa
:04035800e0020000bf
:020000040000fa
:04035c00e0020000bb
:020000040000fa
:04036000e0020000b7
:020000040000fa
:04036400e0020000b3
:020000040000fa
:10040000cf2622000ebf23000e018800000000004e
:10041000000020000000e000020032000001200087
:100420002002880014000700460207000000e000d8
:1004300003003a00000e26000100200002003700f1
:100440000000200001002000810f70000100320038
:1004500014000700000020000000e000020032004d
:100460000000020000000000a65c02000000000086
:100470000040da000000fe004440a9004040240093
:100480000000e0000300320000002000a00188000e
:100490004440a800000006008a1f78008b1f7800e7
:1004a0000000060091018800800478000000eb0045
:1004b0001a003700e284440032a0b4009905ba0063
:1004c000e284440032a0b4009906ba00e2844400f9
:1004d00032a0b4000006eb00476fde00fd07b2005b
:1004e000636ce10003003a00ebff07000000eb0043
:1004f0000a003700606ce10004003a00005deb0088
:100500008b05e900fdff3e00040037006168e10053
:10051000010032000086eb000b00070019c7ba008b
:100520001905ba000e04e00003003a000a00e000da
:10053000e0ff3a0000000600fe07b2009e018800be
:100540008a047800f5ff3700395dba008b05e900b1
:100550000c003200295dba008b05e900080032006a
:100560000c00e00003003a00e284440032a0b40032
:10057000f5ff370019ddba008b05e900faff3a00f4
:100580008904e800e184440032a0b40000000600c1
:10059000801f78008480a9001000200070808800ef
:1005a0004f00780000400600801f780085c0a90039
:1005b00010002000608088004f0078000040060096
:1005c0000040da000000fe00889fbe008a9fbe0047
:1005d0008c9fbe0000057800810678000a00e900c3
:1005e000cf80de00ce0207000001be00b0fd20007b
:1005f000910c24003c020700800578000106780079
:100600000a00e000130034008d0478000004eb00c1
:100610006140b900c20207000b0178008c0178002c
:100620001f0307002e0207000200200003f02b002a
:100630001b0307000200200003f02300c301070092
:10064000f7000700801c78000804e800880f5500b8
:10065000efff3c000d0078004f06be004f05be00c6
:100660004f04be0000000600f6874700889fbe00ca
:100670008a9fbe008c9fbe008e1f7800f1af9f0046
:1006800082047800180020000040dd004f04de00e6
:10069000000044000084d1000000200001f8230085
:1006a000df000700ffa89700800878000000eb003b
:1006b000900098006140b900990207000001be0057
:1006c000b0fd200091042400070207008005780097
:1006d000010578000b0078008a007800000207000e
:1006e000b0b79f00a1b79f000900e000940032005e
:1006f0000a01be000300780082007800850307002d
:100700000006be000883e90086003300ffab9700b7
:10071000648543008c0478000d047800bfb5970011
:100720002fb797000b0078008e00780086bf9f00df
:10073000bb000700000d78000900780088007800f1
:10074000b70007001005980064054500bfb097008a
:100750002fb0970001017800800178000b0078002d
:100760008e007800ce0207000002be000c01be0021
:10077000c8b79f000900780088007800e4b79f00a0
:10078000f5b79f00c60207000001be006fb29700d8
:10079000ffb297000400be006b01070090b79f00f6
:1007a00081b79f00bfb097002fb09700010178007c
:1007b000800178000902780088007800040478003d
:1007c000810478000800be00b502070080047800ac
:1007d000010478000c01be000b0278008e00780046
:1007e000c4b79f00d1b79f004fb09700dfb097000c
:1007f000ab02070009027800880178000404780041
:10080000830478000801be005001070080047800ce
:10081000010478000fbb97000603e9004100330094
:100820009fb597000fb797000b0078008e007800f7
:1008300086bf9f007a000700000d7800090078004d
:1008400088007800760007001005980064054500d0
:10085000bfb097002fb097000101780080017800a9
:100860000b0078008e0078008d0207000002be00a9
:100870000c01be00c8b79f0009007800880078000e
:10088000e4b79f00f5b79f00850207000001be0096
:100890006fb29700ffb297000400be002a01070064
:1008a00090b79f0081b79f00bfb097002fb097000f
:1008b0000101780080017800090278008800780042
:1008c00004047800810478000800be007402070068
:1008d00080047800010478000c01be000b0278004f
:1008e0008e007800c4b79f00d1b79f004fb097002b
:1008f000dfb097006a0207000902780088017800db
:1009000004047800830478000801be000f0107008a
:1009100080047800010478000fbb97000603e9000b
:10092000bfff3b007fa897004f0778004f06be002f
:100930004f05be004f04be006f01b100000006006d
:100940000a01be000300780082007800f10207006f
:100950000006be000df0a2006aff3700810178009a
:100960000000e90000800900b21878000300780058
:10097000000006004400f800040f20002402880054
:10098000811f78000000e900030278000080080061
:1009900002000000b20278001301c0003100cd0057
:1009a0004f0078004400f900000006004400f80001
:1009b000040f200024028800010278000000e900f2
:1009c0000080080004000000b20278000500ca00a0
:1009d000b30278000500c9003100cc0004007800a3
:1009e0004400f900000006004400f800040f200055
:1009f00024028800811f78000000e90000800800c0
:100a00000300000032027800b30278001301c00036
:100a10003100cd004f0078004400f90000000600ce
:100a2000e8874700889fbe008a9fbe008c9fbe005b
:100a30008e1f78000005be00020020000370240015
:100a40001702070080047800010478006011b800e4
:100a50000a00be008f0107000000e00037003500eb
:100a60000900780088007800b00107008b010700ba
:100a70000005be000a00be00a90107000006be0076
:100a80000200200003f023000502070000077800a1
:100a900081bf9f00010178000e007800820078007d
:100aa000a2010700e0b79f00f1b79f000c01be0054
:100ab0000902780088007800040378008103780038
:100ac0000600be00a00007000004be0002002000d7
:100ad00003f023000800be006e0107000000e000e4
:100ae0007b0034000200200003f823000c00be004d
:100af00096000700690107000005be008a01780022
:100b00000b0178000300780082007800f3ff2700d3
:100b1000830f5000e08f580002003400f0ff2700e0
:100b2000010020004f0778004f06be004f05be00b1
:100b30004f04be008f00b1000000060009007800dd
:100b400088007800de000700540107000006be00a0
:100b50000c00be00720107000005be00090178000c
:100b6000880178000a00be00780107000000e0005c
:100b7000090032000200200003f823000a00be0032
:100b800071000700450107000006be000c00be0012
:100b9000630107000005be000200200003f02300ef
:100ba0000a00be00be0107000007780081bf9f0059
:100bb000010178000e007800820078005b010700d8
:100bc000e0b79f00f1b79f000a01be00090278005c
:100bd0008800780004037800810378000600be00d6
:100be000590007000004be000200200003f02300ab
:100bf0000800be00270107000000e00017003400d5
:100c00000200200003f823000a00be004f00070086
:100c1000220107000006be008c0178000d0178005b
:100c2000030078008200780002002800f3ff2f0004
:100c3000820f5000838f5800baff3d000200be00b3
:100c40004f0778004f06be004f05be004f04be00a0
:100c50008f00b10000000600b8ff3700020020003e
:100c600003f0230088007800090078000102780072
:100c7000800278000400be00040107000000e000cc
:100c8000e5ff3a006fb19700ffb197008e02780040
:100c90000fba970005007800840078002a0007004a
:100ca0000001be0029000700fc0007000000e00072
:100cb000d9ff32000200200003f823000a00be0022
:100cc00022000700f50007000006be00d2ff370033
:100cd0000200200003f0230088007800090078005b
:100ce00001027800800278000400be00e7000700df
:100cf0000000e00081ff3a006fb19700ffb197005c
:100d00008e0278000fba9700050078008400780002
:100d10000d0007000001be000c000700df00070007
:100d20000000e00075ff32000200200003f82300fd
:100d30000c00be0005000700d80007000005be003b
:100d40006eff37000000050003f0a200889fbe0080
:100d50008a9fbe008c1f78003901070040013300d4
:100d60006450e1004f0032006420e1005200320084
:100d700003826c0007003b000905d0000306d00089
:100d8000820f54000c065d000200390002003200a0
:100d900089017800030678008582550004003d0033
:100da0000003fd008103fd008502ea008b854200ff
:100db000840f720002003b0060001000e080180009
:100dc0006011b8000005eb007a28e1000a00390044
:100dd00006007800c75ddd00f707b2008780750068
:100de0002d003700828171000a01780061056000e2
:100df0008180d1000080d3008502e900f9ff3b002b
:100e0000060440008784480002003b006004140090
:100e1000e0841c000988a300070032008a81710069
:100e200082817100610164008904d1000884d300cb
:100e30008b05e800170037000978a30013003a007b
:100e40000b00e000130034008b05e90008044400a7
:100e500089844c000a4474000978a3000d003a000c
:100e60000b00e000070034008b05e9000804440093
:100e700089844c0001003a000b0020000978a3008f
:100e8000f7ff32000001eb000200370082817100a1
:100e90000a017800af0007000cf0a70001f0a000e5
:100ea000f80037006420e10002003a00838f6c00f4
:100eb000f80033000801be000200be00f100370058
:100ec0000001eb004a00070004003200020020008d
:100ed00003f8230001f0a6009cff070000000600b5
:100ee0000081eb0022013700889fbe008a9fbe0070
:100ef0008c1f7800d2000700d900330003866c00f5
:100f00006450e1002e0032006420e1003300320022
:100f10006150e1002f0032006120e1003100320019
:100f200085855500eb07b00009002000080420006b
:100f3000050037000804440089844c000a00310091
:100f40000603430087834b000001530081815b004f
:100f5000f8ff33000203be000800a00008044400ac
:100f600089844c00f6ff3900c639dd008301730027
:100f700001003200130020008904d1000884d3004e
:100f80000998a300050032000800a7000300a00094
:100f90008904d1000884d3008b05e8008904d100be
:100fa0000884d3000001eb000281d2006900070031
:100fb00001f0a1000cf0a70001f0a000b100370083
:100fc0006420e100b30032000801be000200be0050
:100fd000f7ff37006120e100ae0032006000b8008a
:100fe000f3ff37000000200001f82700f0ff370072
:100ff000889fbe008a9fbe000003be007b000700e2
:101000008505780082815200020020006220e10004
:1010100004003a00f307b100040035007718e1003e
:10102000040035000600be00140037006000b80060
:101030000f003700f50f2000faff2f008502d100c6
:101040000a85d3008301e900fcff3b008184620034
:1010500000046500890f7400f2ff32008582ea0007
:101060000a85ea00818462000004650039000700f7
:1010700007f0a70001f0a0000081eb000200e000f3
:101080004f05be004f04be00000006001400200003
:1010900022013700f4ff2f00200137000001be00bd
:1010a000520007000470a70003f0a1006509b10019
:1010b000160032000d0035006828e10006003500fa
:1010c000f0ff2f00f1ff27000300e00013003b00ba
:1010d0000100280000000500000040008180480059
:1010e0008502e900fcff3a0008003700f88f420053
:1010f00002003c008000eb00000005008100d100f0
:101100000080d3008502e800fcff3a000300e00005
:1011100002003b0060001000e080180000000600a4
:101120004f89de0082017800170137000001eb00d3
:10113000afff0700040032000200200003f8230084
:1011400001f0a70000ff07000000060004002000d7
:10115000f200370081002000618055000b003d0047
:101160000b00200061fe2f000100e1001d00340093
:1011700082817100610164008904d1000884d30078
:101180000000e800faff3a007100200061006400ee
:101190000300700002006000090032006104440096
:1011a000e0844c000988a500050032008b05e800aa
:1011b0006808e10002003a008904d1000884d300e5
:1011c000f20f20000258e10005003d00c75ddd0080
:1011d000f907b20089807500080078000000060059
:1011e0000bf827008b00780000000500c70ade001e
:1011f000f107b200f50fb20008003200e1cf420063
:10120000020032000170a00024000500810f700070
:10121000010032000408050044000500810f700041
:1012200002003a00140005008502e90000004000b9
:1012300081c04800fcff3b000170a00024000500b5
:101240000004be00e9ff07000003be000405be0065
:101250000200be00e5ff0700844f75000000060095
:101260000200be006450e100050036006420e10089
:10127000020036000968a30001003a000800be0021
:101280000160a0004f0678004f05be004f04be006d
:1012900000000600f0ff2f00f1ff2700f9ff3700e4
:1012a000889fbe008a9fbe008c1f7800e4ff070065
:1012b000ebff330003866c006450e1002400320031
:1012c0006420e100270032006150e100220032007a
:1012d0006120e100210032008b854200eb07b10064
:1012e0000134b800003ab8000804420089844a007a
:1012f000013ab8000030b8008880400009014a0077
:1013000004003300000040008180480002014900d1
:101310008b05e900c909dd0083017000010032007e
:1013200013002000c814de004814dd004709de0069
:101330001200b200c808de000884700085ff0700b4
:1013400001f0a1000cf0a70001f0a000cdff3700d4
:101350006120e100cfff32000801be000200be00a4
:10136000f7ff37006150e100fcff3a00c9ff37008a
:10137000889fbe008a9fbe008c9fbe0082057800b9
:101380000004be0099ff07000800be006420e100d1
:101390000700390002003a00f1ff2700f0ff2f009c
:1013a0000160a000120220000240880055003700b2
:1013b0006120e10003003a000b00a70001f82300c0
:1013c0005000370001f0a1000200210093642400c6
:1013d0002eff07000800be0004003500b2fd20000b
:1013e000930c2400a70007000004be000005eb00da
:1013f0000b00a6004f0dde0001f0a1000004be00ae
:1014000032982f0023ea2300a5ff07000001eb001c
:1014100003f023000b00a70003f823004bfe070096
:101420001eff07000000a7000a00a2003cff070003
:101430000b00e000030032000200200003f0230054
:1014400041fe070001f0a2000006be0002002000dd
:101450009304240092ff07000801be003bfe070032
:10146000809fbe000c00be0022a22a00d3a723004a
:101470008bff07004f01be0034fe07000004be00d2
:1014800001f0a1000200200003982300fffe0700e6
:101490000800be00190035000001be0080ff0700f3
:1014a0000006be00b2c52900e36223007cff0700ee
:1014b00022222b00f3942b0024fe07000c01be0017
:1014c00077ff0700e273280083c023001ffe070098
:1014d0000c01be0072ff070042aa2a00a3e22b0003
:1014e0001afe07000c01be006dff07000801be00d8
:1014f0006bff07000801be0014fe07000a00a700ea
:1015000001f0a2004f06be004f05be004f04be0012
:10151000000006000001eb0095ff3700889fbe0029
:101520008a9fbe00841f780045ff07004f007800a7
:1015300011003300f0ff2f00838f6c0006003b008a
:10154000040565000a00a7000800370009f0a6009e
:101550001000200008003700820f5400838f5c00c9
:10156000030039001000200001003e0000002000b0
:1015700009f0a7000000ea004f05be004f04be00be
:101580000000e00000000600881f780003047800d7
:101590000300e00007003d0060001000e08018003c
:1015a00060011900e081190002003b0001f02d00ec
:1015b000030037000400070008f0a70001f0a000b6
:1015c0004f04780000000600889fbe008a9fbe007e
:1015d0000082700004027100048271002600320053
:1015e0000004be000200be006011b8006b092000bc
:1015f000950220000182cf000a0039000541b100a8
:101600000082cf00070039000541b1000982cf00f8
:10161000040039000541b1000882cf000100390003
:101620000541b10005425200120032000a003b00a1
:1016300082817100610164008100d1000080d300cb
:101640008984d3000884d3008b05e8000442e800b5
:10165000f7ff3a00070037000804440089844c0073
:1016600000004800818048008b05e9000442e90041
:10167000f9ff3a00b7fe07004f05be004f04be0059
:10168000000006000400200000003700889fbe0014
:101690008a9fbe008c1f78004f26dd00e8fe070001
:1016a000effe33006120e100430032006250e100b0
:1016b00041003e003e0039006420e1003c00320061
:1016c000058255000f003b000402e80038003a0094
:1016d000800f5300818f5b00350034000800be008e
:1016e00003f0a10001f0a60003f0a0000cf0a70099
:1016f00096fd0700e3fe37000603430087834b0097
:101700000c4646000005530081855b000200330053
:101710000a03be000c00a0000402e900f6ff3b0033
:10172000850578000602430087824b0004003a00da
:101730006000b80009f0a70001f0a000d1fe37005a
:101740000002520081825a000704e00004003300c6
:101750000603430087834b008b05e900faff37003f
:10176000090578000604be000203be006011b8003f
:1017700078fe0700e00f5200e08f5a0007003500a6
:1017800002003c000c08a300040032000601be0069
:1017900003f0a0000cf0a7006cfd07000a856800ac
:1017a00001f0a1000af0a70001f0a000b5fe37008b
:1017b0000800be00b3fe3700100220000cf0a600a7
:0817c00000408800b3fe370071
:020000040000fa
:1017c800000000008100000001010000820100000b
:1017d80002020000830200000303000084030000eb
:1017e80004040000850400000505000086050000cb
:1017f80006060000870600000707000088070000ab
:101808000808000089080000090900008a0900008a
:101818000a0a00008b0a00000b0b00008c0b00006a
:101828000c0c00008d0c00000d0d00008e0d00004a
:101838000e0e00008f0e00000f0f0000900f00002a
:10184800101000009110000011110000921100000a
:1018580012120000931200001313000094130000ea
:1018680014140000951400001515000096150000ca
:1018780016160000971600001717000098170000aa
:101888001818000099180000191900009a1900008a
:101898001a1a00009b1a00001b1b00009c1b00006a
:1018a8001c1c00009d1c00001d1d00009e1d00004a
:1018b8001e1e00009f1e00001f1f0000a01f00002a
:1018c80020200000a120000021210000a22100000a
:1018d80022220000a322000023230000a4230000ea
:1018e80024240000a524000025250000a6250000ca
:1018f80026260000a726000027270000a8270000aa
:1019080028280000a928000029290000aa29000089
:101918002a2a0000ab2a00002b2b0000ac2b000069
:101928002c2c0000ad2c00002d2d0000ae2d000049
:101938002e2e0000af2e00002f2f0000b02f000029
:1019480030300000b130000031310000b231000009
:1019580032320000b332000033330000b4330000e9
:1019680034340000b534000035350000b6350000c9
:1019780036360000b736000037370000b8370000a9
:1019880038380000b938000039390000ba39000089
:101998003a3a0000bb3a00003b3b0000bc3b000069
:1019a8003c3c0000bd3c00003d3d0000be3d000049
:1019b8003e3e0000bf3e00003f3f0000c03f000029
:1019c80040400000c140000041410000c241000009
:1019d80042420000c342000043430000c4430000e9
:1019e80044440000c544000045450000c6450000c9
:1019f80046460000c746000047470000c8470000a9
:101a080048480000c948000049490000ca49000088
:101a18004a4a0000cb4a00004b4b0000cc4b000068
:101a28004c4c0000cd4c00004d4d0000ce4d000048
:101a38004e4e0000cf4e00004f4f0000d04f000028
:101a480050500000d150000051510000d251000008
:101a580052520000d352000053530000d4530000e8
:101a680054540000d554000055550000d6550000c8
:101a780056560000d756000057570000d8570000a8
:101a880058580000d958000059590000da59000088
:101a98005a5a0000db5a00005b5b0000dc5b000068
:101aa8005c5c0000dd5c00005d5d0000de5d000048
:101ab8005e5e0000df5e00005f5f0000e05f000028
:101ac80060600000e160000061610000e261000008
:101ad80062620000e362000063630000e4630000e8
:101ae80064640000e564000065650000e6650000c8
:101af80066660000e766000067670000e8670000a8
:101b080068680000e968000069690000ea69000087
:101b18006a6a0000eb6a00006b6b0000ec6b000067
:101b28006c6c0000ed6c00006d6d0000ee6d000047
:101b38006e6e0000ef6e00006f6f0000f06f000027
:101b480070700000f170000071710000f271000007
:101b580072720000f372000073730000f4730000e7
:101b680074740000f574000075750000f6750000c7
:101b780076760000f776000077770000f8770000a7
:101b880078780000f978000079790000fa79000087
:101b98007a7a0000fb7a00007b7b0000fc7b000067
:101ba8007c7c0000fd7c00007d7d0000fe7d000047
:101bb8007e7e0000ff7e00007f7f00000080000026
:101bc8000000000081000000010100008201000007
:101bd80002020000830200000303000084030000e7
:101be80004040000850400000505000086050000c7
:101bf80006060000870600000707000088070000a7
:101c08000808000089080000090900008a09000086
:101c18000a0a00008b0a00000b0b00008c0b000066
:101c28000c0c00008d0c00000d0d00008e0d000046
:101c38000e0e00008f0e00000f0f0000900f000026
:101c48001010000091100000111100009211000006
:101c580012120000931200001313000094130000e6
:101c680014140000951400001515000096150000c6
:101c780016160000971600001717000098170000a6
:101c88001818000099180000191900009a19000086
:101c98001a1a00009b1a00001b1b00009c1b000066
:101ca8001c1c00009d1c00001d1d00009e1d000046
:101cb8001e1e00009f1e00001f1f0000a01f000026
:101cc80020200000a120000021210000a221000006
:101cd80022220000a322000023230000a4230000e6
:101ce80024240000a524000025250000a6250000c6
:101cf80026260000a726000027270000a8270000a6
:101d080028280000a928000029290000aa29000085
:101d18002a2a0000ab2a00002b2b0000ac2b000065
:101d28002c2c0000ad2c00002d2d0000ae2d000045
:101d38002e2e0000af2e00002f2f0000b02f000025
:101d480030300000b130000031310000b231000005
:101d580032320000b332000033330000b4330000e5
:101d680034340000b534000035350000b6350000c5
:101d780036360000b736000037370000b8370000a5
:101d880038380000b938000039390000ba39000085
:101d98003a3a0000bb3a00003b3b0000bc3b000065
:101da8003c3c0000bd3c00003d3d0000be3d000045
:101db8003e3e0000bf3e00003f3f0000c03f000025
:101dc80040400000c140000041410000c241000005
:101dd80042420000c342000043430000c4430000e5
:101de80044440000c544000045450000c6450000c5
:101df80046460000c746000047470000c8470000a5
:101e080048480000c948000049490000ca49000084
:101e18004a4a0000cb4a00004b4b0000cc4b000064
:101e28004c4c0000cd4c00004d4d0000ce4d000044
:101e38004e4e0000cf4e00004f4f0000d04f000024
:101e480050500000d150000051510000d251000004
:101e580052520000d352000053530000d4530000e4
:101e680054540000d554000055550000d6550000c4
:101e780056560000d756000057570000d8570000a4
:101e880058580000d958000059590000da59000084
:101e98005a5a0000db5a00005b5b0000dc5b000064
:101ea8005c5c0000dd5c00005d5d0000de5d000044
:101eb8005e5e0000df5e00005f5f0000e05f000024
:101ec80060600000e160000061610000e261000004
:101ed80062620000e362000063630000e4630000e4
:101ee80064640000e564000065650000e6650000c4
:101ef80066660000e766000067670000e8670000a4
:101f080068680000e968000069690000ea69000083
:101f18006a6a0000eb6a00006b6b0000ec6b000063
:101f28006c6c0000ed6c00006d6d0000ee6d000043
:101f38006e6e0000ef6e00006f6f0000f06f000023
:101f480070700000f170000071710000f271000003
:101f580072720000f372000073730000f4730000e3
:101f680074740000f574000075750000f6750000c3
:101f780076760000f776000077770000f8770000a3
:101f880078780000f978000079790000fa79000083
:101f98007a7a0000fb7a00007b7b0000fc7b000063
:101fa8007c7c0000fd7c00007d7d0000fe7d000043
:101fb8007e7e0000ff7e00007f7f00000080000022
:101fc800003c0000000000001b3c00000000000076
:101fd800363c000000000000513c000000000000fa
:101fe8006c3c000000000000863c0000000000007f
:101ff800a13c000000000000bc3c00000000000004
:10200800d73c000000000000f23c00000000000087
:102018000d3d000000000000283d00000000000009
:10202800433d0000000000005d3d0000000000008e
:10203800783d000000000000933d00000000000013
:10204800ae3d000000000000c93d00000000000097
:10205800e43d000000000000ff3d0000000000001b
:102068001a3e000000000000343e0000000000009e
:102078004f3e0000000000006a3e00000000000023
:10208800853e000000000000a03e000000000000a7
:10209800bb3e000000000000d63e0000000000002b
:1020a800f13e0000000000000b3f000000000000af
:1020b800263f000000000000413f00000000000033
:1020c8005c3f000000000000773f000000000000b7
:1020d800923f000000000000ad3f0000000000003b
:1020e800c83f000000000000e23f000000000000c0
:1020f800fd3f000000000000184000000000000044
:1021080033400000000000004e40000000000000c6
:10211800694000000000000084400000000000004a
:102128009f40000000000000b940000000000000cf
:10213800d440000000000000ef4000000000000054
:102148000a410000000000002541000000000000d6
:1021580040410000000000005b410000000000005a
:1021680076410000000000009041000000000000df
:10217800ab41000000000000c64100000000000064
:10218800e141000000000000fc41000000000000e8
:10219800174200000000000032420000000000006a
:1021a8004d420000000000006742000000000000ef
:1021b80082420000000000009d4200000000000074
:1021c800b842000000000000d342000000000000f8
:1021d800ee4200000000000009430000000000007b
:1021e80024430000000000003e43000000000000ff
:1021f8005943000000000000744300000000000084
:102208008f43000000000000aa4300000000000007
:10221800c543000000000000e0430000000000008b
:10222800fb4300000000000015440000000000000f
:1022380030440000000000004b4400000000000093
:102248006644000000000000814400000000000017
:102258009c44000000000000b7440000000000009b
:10226800d244000000000000ec4400000000000020
:1022780007450000000000002245000000000000a3
:102288003d45000000000000584500000000000027
:1022980073450000000000008e45000000000000ab
:1022a800a945000000000000c34500000000000030
:1022b800de45000000000000f945000000000000b5
:1022c80014460000000000002f4600000000000037
:1022d8004a460000000000006546000000000000bb
:1022e80080460000000000009a4600000000000040
:1022f800b546000000000000d046000000000000c5
:10230800eb46000000000000064700000000000047
:1023180021470000000000003c47000000000000ca
:10232800574700000000000071470000000000004f
:102338008c47000000000000a747000000000000d4
:10234800c247000000000000dd4700000000000058
:10235800f8470000000000001348000000000000db
:102368002e4800000000000048480000000000005f
:1023780063480000000000007e48000000000000e4
:102388009948000000000000b44800000000000068
:10239800cf48000000000000ea48000000000000ec
:1023a80005490000000000001f490000000000006f
:1023b8003a490000000000005549000000000000f4
:1023c80070490000000000008b4900000000000078
:1023d800a649000000000000c149000000000000fc
:1023e800dc49000000000000f64900000000000081
:1023f800114a0000000000002c4a00000000000004
:10240800474a000000000000624a00000000000087
:102418007d4a000000000000984a0000000000000b
:10242800b34a000000000000cd4a00000000000090
:10243800e84a000000000000034b00000000000014
:102448001e4b000000000000394b00000000000097
:10245800544b0000000000006f4b0000000000001b
:102468008a4b000000000000a44b000000000000a0
:10247800bf4b000000000000da4b00000000000025
:10248800f54b000000000000104c000000000000a8
:102498002b4c000000000000464c0000000000002b
:1024a800614c0000000000007b4c000000000000b0
:1024b800964c000000000000b14c00000000000035
:1024c800cc4c000000000000e74c000000000000b9
:1024d800024d0000000000001d4d0000000000003b
:1024e800384d000000000000524d000000000000c0
:1024f8006d4d000000000000884d00000000000045
:10250800a34d000000000000be4d000000000000c8
:10251800d94d000000000000f44d0000000000004c
:102528000f4e000000000000294e000000000000cf
:10253800444e0000000000005f4e00000000000054
:102548007a4e000000000000954e000000000000d8
:10255800b04e000000000000cb4e0000000000005c
:10256800e64e000000000000004f000000000000e0
:102578001b4f000000000000364f00000000000064
:10258800514f0000000000006c4f000000000000e8
:10259800874f000000000000a24f0000000000006c
:1025a800bd4f000000000000d74f000000000000f1
:1025b800f24f0000000000000d5000000000000075
:1025c80028500000000000004350000000000000f8
:1025d8005e5000000000000079500000000000007c
:1025e8009450000000000000ae5000000000000001
:1025f800c950000000000000e45000000000000086
:10260800ff500000000000001a5100000000000008
:10261800355100000000000050510000000000008b
:102628006b51000000000000855100000000000010
:10263800a051000000000000bb5100000000000095
:10264800d651000000000000f15100000000000019
:102658000c5200000000000027520000000000009b
:1026680042520000000000005c5200000000000020
:1026780077520000000000009252000000000000a5
:10268800ad52000000000000c85200000000000029
:10269800e352000000000000fe52000000000000ad
:1026a8001953000000000000335300000000000030
:1026b8004e530000000000006953000000000000b5
:1026c80084530000000000009f5300000000000039
:1026d800ba53000000000000d553000000000000bd
:1026e800f0530000000000000a5400000000000041
:1026f80025540000000000004054000000000000c5
:102708005b54000000000000765400000000000048
:102718009154000000000000ac54000000000000cc
:10272800c754000000000000e15400000000000051
:10273800fc540000000000001755000000000000d5
:1027480032550000000000004d5500000000000058
:1027580068550000000000008355000000000000dc
:102768009e55000000000000b85500000000000061
:10277800d355000000000000ee55000000000000e6
:102788000956000000000000245600000000000068
:102798003f560000000000005a56000000000000ec
:1027a80075560000000000008f5600000000000071
:1027b800aa56000000000000c556000000000000f6
:1027c800e056000000000000fb560000000000007a
:1027d80016570000000000003157000000000000fc
:1027e8004c57000000000000665700000000000081
:1027f80081570000000000009c5700000000000006
:10280800b757000000000000d25700000000000089
:10281800ed5700000000000008580000000000000c
:1028280023580000000000003d5800000000000090
:102838005858000000000000735800000000000015
:102848008e58000000000000a95800000000000099
:10285800c458000000000000df580000000000001d
:10286800fa580000000000001459000000000000a1
:102878002f590000000000004a5900000000000025
:1028880065590000000000008059000000000000a9
:102898009b59000000000000b6590000000000002d
:1028a800d159000000000000eb59000000000000b2
:1028b800065a000000000000215a00000000000035
:1028c8003c5a000000000000575a000000000000b9
:1028d800725a0000000000008d5a0000000000003d
:1028e800a85a000000000000c25a000000000000c2
:1028f800dd5a000000000000f85a00000000000047
:10290800135b0000000000002e5b000000000000c8
:10291800495b000000000000645b0000000000004c
:102928007f5b000000000000995b000000000000d1
:10293800b45b000000000000cf5b00000000000056
:10294800ea5b000000000000055c000000000000d9
:10295800205c0000000000003b5c0000000000005c
:10296800565c000000000000705c000000000000e1
:102978008b5c000000000000a65c00000000000066
:10298800c15c000000000000dc5c000000000000ea
:10299800f75c000000000000125d0000000000006d
:1029a8002d5d000000000000475d000000000000f1
:1029b800625d0000000000007d5d00000000000076
:1029c800985d000000000000b35d000000000000fa
:1029d800ce5d000000000000e95d0000000000007e
:1029e800045e0000000000001e5e00000000000001
:1029f800395e000000000000545e00000000000086
:102a08006f5e0000000000008a5e00000000000009
:102a1800a55e000000000000c05e0000000000008d
:102a2800db5e000000000000f55e00000000000012
:102a3800105f0000000000002b5f00000000000095
:102a4800465f000000000000615f00000000000019
:102a58007c5f000000000000975f0000000000009d
:102a6800b25f000000000000cc5f00000000000022
:102a7800e75f0000000000000260000000000000a6
:102a88001d60000000000000386000000000000029
:102a980053600000000000006e60000000000000ad
:102aa8008960000000000000a36000000000000032
:102ab800be60000000000000d960000000000000b7
:102ac800f4600000000000000f610000000000003a
:102ad8002a610000000000004561000000000000bd
:102ae80060610000000000007a6100000000000042
:102af8009561000000000000b061000000000000c7
:102b0800cb61000000000000e6610000000000004a
:102b180001620000000000001c62000000000000cc
:102b28003762000000000000516200000000000051
:102b38006c620000000000008762000000000000d6
:102b4800a262000000000000bd620000000000005a
:102b5800d862000000000000f362000000000000de
:102b68000e63000000000000286300000000000061
:102b780043630000000000005e63000000000000e6
:102b8800796300000000000094630000000000006a
:102b9800af63000000000000ca63000000000000ee
:102ba800e563000000000000ff6300000000000073
:102bb8001a640000000000003564000000000000f6
:102bc80050640000000000006b640000000000007a
:102bd8008664000000000000a164000000000000fe
:102be800bc64000000000000d66400000000000083
:102bf800f1640000000000000c6500000000000007
:102c08002765000000000000426500000000000089
:102c18005d6500000000000078650000000000000d
:102c28009365000000000000ad6500000000000092
:102c3800c865000000000000e36500000000000017
:102c4800fe6500000000000019660000000000009a
:102c580034660000000000004f660000000000001d
:102c68006a660000000000008466000000000000a2
:102c78009f66000000000000ba6600000000000027
:102c8800d566000000000000f066000000000000ab
:102c98000b6700000000000026670000000000002d
:102ca80041670000000000005b67000000000000b2
:102cb8007667000000000000916700000000000037
:102cc800ac67000000000000c767000000000000bb
:102cd800e267000000000000fd670000000000003f
:102ce80018680000000000003268000000000000c2
:102cf8004d68000000000000686800000000000047
:102d080083680000000000009e68000000000000ca
:102d1800b968000000000000d4680000000000004e
:102d2800ef680000000000000969000000000000d2
:102d380024690000000000003f6900000000000056
:102d48005a690000000000007569000000000000da
:102d58009069000000000000ab690000000000005e
:102d6800c669000000000000e069000000000000e3
:102d7800fb69000000000000166a00000000000067
:102d8800316a0000000000004c6a000000000000ea
:102d9800676a000000000000826a0000000000006e
:102da8009d6a000000000000b76a000000000000f3
:102db800d26a000000000000ed6a00000000000078
:102dc800086b000000000000236b000000000000fa
:102dd8003e6b000000000000596b0000000000007e
:102de800746b0000000000008e6b00000000000003
:102df800a96b000000000000c46b00000000000088
:102e0800df6b000000000000fa6b0000000000000b
:102e1800156c000000000000306c0000000000008d
:102e28004b6c000000000000656c00000000000012
:102e3800806c0000000000009b6c00000000000097
:102e4800b66c000000000000d16c0000000000001b
:102e5800ec6c000000000000076d0000000000009e
:102e6800226d0000000000003c6d00000000000022
:102e7800576d000000000000726d000000000000a7
:102e88008d6d000000000000a86d0000000000002b
:102e9800c36d000000000000de6d000000000000af
:102ea800f96d000000000000136e00000000000033
:102eb8002e6e000000000000496e000000000000b7
:102ec800646e0000000000007f6e0000000000003b
:102ed8009a6e000000000000b56e000000000000bf
:102ee800d06e000000000000ea6e00000000000044
:102ef800056f000000000000206f000000000000c7
:102f08003b6f000000000000566f0000000000004a
:102f1800716f0000000000008c6f000000000000ce
:102f2800a76f000000000000c16f00000000000053
:102f3800dc6f000000000000f76f000000000000d8
:102f480012700000000000002d700000000000005a
:102f580048700000000000006370000000000000de
:102f68007e70000000000000987000000000000063
:102f7800b370000000000000ce70000000000000e8
:102f8800e97000000000000004710000000000006b
:102f98001f710000000000003a71000000000000ee
:102fa80055710000000000006f7100000000000073
:102fb8008a71000000000000a571000000000000f8
:102fc800c071000000000000db710000000000007c
:102fd800f6710000000000001172000000000000ff
:102fe8002c72000000000000467200000000000083
:102ff80061720000000000007c7200000000000008
:103008009772000000000000b2720000000000008b
:10301800cd72000000000000e8720000000000000f
:1030280003730000000000001d7300000000000092
:103038003873000000000000537300000000000017
:103048006e7300000000000089730000000000009b
:10305800a473000000000000bf730000000000001f
:10306800da73000000000000f473000000000000a4
:103078000f740000000000002a7400000000000027
:1030880045740000000000006074000000000000ab
:103098007b7400000000000096740000000000002f
:1030a800b174000000000000cb74000000000000b4
:1030b800e674000000000000017500000000000038
:1030c8001c750000000000003775000000000000bb
:1030d80052750000000000006d750000000000003f
:1030e8008875000000000000a275000000000000c4
:1030f800bd75000000000000d87500000000000049
:10310800f3750000000000000e76000000000000cb
:10311800297600000000000044760000000000004e
:103128005f760000000000007976000000000000d3
:103138009476000000000000af7600000000000058
:10314800ca76000000000000e576000000000000dc
:1031580000770000000000001b770000000000005e
:1031680036770000000000005077000000000000e3
:103178006b77000000000000867700000000000068
:10318800a177000000000000bc77000000000000ec
:10319800d777000000000000f27700000000000070
:1031a8000d780000000000002778000000000000f3
:1031b80042780000000000005d7800000000000078
:1031c80078780000000000009378000000000000fc
:1031d800ae78000000000000c97800000000000080
:1031e800e478000000000000fe7800000000000005
:1031f8001979000000000000347900000000000088
:103208004f790000000000006a790000000000000b
:103218008579000000000000a0790000000000008f
:10322800bb79000000000000d57900000000000014
:10323800f0790000000000000b7a00000000000098
:10324800267a000000000000417a0000000000001b
:103258005c7a000000000000777a0000000000009f
:10326800927a000000000000ac7a00000000000024
:10327800c77a000000000000e27a000000000000a9
:10328800fd7a000000000000187b0000000000002c
:10329800337b0000000000004e7b000000000000af
:1032a800697b000000000000837b00000000000034
:1032b8009e7b000000000000b97b000000000000b9
:1032c800d47b000000000000ef7b0000000000003d
:1032d8000a7c000000000000257c000000000000bf
:1032e800407c0000000000005a7c00000000000044
:1032f800757c000000000000907c000000000000c9
:10330800ab7c000000000000c67c0000000000004c
:10331800e17c000000000000fc7c000000000000d0
:10332800177d000000000000317d00000000000053
:103338004c7d000000000000677d000000000000d8
:10334800827d0000000000009d7d0000000000005c
:10335800b87d000000000000d37d000000000000e0
:10336800ee7d000000000000087e00000000000064
:10337800237e0000000000003e7e000000000000e8
:10338800597e000000000000747e0000000000006c
:103398008f7e000000000000aa7e000000000000f0
:1033a800c57e000000000000df7e00000000000075
:1033b800fa7e000000000000157f000000000000f9
:1033c800307f0000000000004b7f0000000000007c
:1033d800667f000000000000817f00000000000000
:1033e8009c7f000000000000b67f00000000000085
:1033f800d17f000000000000ec7f0000000000000a
:10340800078000000000000022800000000000008b
:103418003d8000000000000058800000000000000f
:1034280073800000000000008d8000000000000094
:10343800a880000000000000c38000000000000019
:10344800de80000000000000f9800000000000009d
:1034580014810000000000002f810000000000001f
:103468004a810000000000006481000000000000a4
:103478007f810000000000009a8100000000000029
:10348800b581000000000000d081000000000000ad
:10349800eb81000000000000068200000000000030
:1034a80021820000000000003b82000000000000b4
:1034b8005682000000000000718200000000000039
:1034c8008c82000000000000a782000000000000bd
:1034d800c282000000000000dd8200000000000041
:1034e800f8820000000000001283000000000000c5
:1034f8002d83000000000000488300000000000049
:1035080063830000000000007e83000000000000cc
:103518009983000000000000b48300000000000050
:10352800cf83000000000000e983000000000000d5
:1035380004840000000000001f8400000000000058
:103548003a840000000000005584000000000000dc
:1035580070840000000000008b8400000000000060
:10356800a684000000000000c084000000000000e5
:10357800db84000000000000f6840000000000006a
:1035880011850000000000002c85000000000000ec
:103598004785000000000000628500000000000070
:1035a8007d850000000000009785000000000000f5
:1035b800b285000000000000cd850000000000007a
:1035c800e8850000000000000386000000000000fd
:1035d8001e86000000000000398600000000000080
:1035e80054860000000000006e8600000000000005
:1035f8008986000000000000a4860000000000008a
:10360800bf86000000000000da860000000000000d
:10361800f586000000000000108700000000000090
:103628002b87000000000000458700000000000014
:1036380060870000000000007b8700000000000099
:103648009687000000000000b1870000000000001d
:10365800cc87000000000000e787000000000000a1
:1036680002880000000000001c8800000000000024
:1036780037880000000000005288000000000000a9
:103688006d8800000000000088880000000000002d
:10369800a388000000000000be88000000000000b1
:1036a800d988000000000000f38800000000000036
:1036b8000e890000000000002989000000000000b9
:1036c80044890000000000005f890000000000003d
:1036d8007a890000000000009589000000000000c1
:1036e800b089000000000000ca8900000000000046
:1036f800e589000000000000008a000000000000ca
:103708001b8a000000000000368a0000000000004c
:10371800518a0000000000006c8a000000000000d0
:10372800878a000000000000a18a00000000000055
:10373800bc8a000000000000d78a000000000000da
:10374800f28a0000000000000d8b0000000000005d
:10375800288b000000000000438b000000000000e0
:103768005e8b000000000000788b00000000000065
:10377800938b000000000000ae8b000000000000ea
:10378800c98b000000000000e48b0000000000006e
:10379800ff8b0000000000001a8c000000000000f1
:1037a800358c0000000000004f8c00000000000075
:1037b8006a8c000000000000858c000000000000fa
:1037c800a08c000000000000bb8c0000000000007e
:1037d800d68c000000000000f18c00000000000002
:1037e8000c8d000000000000268d00000000000085
:1037f800418d0000000000005c8d0000000000000a
:10380800778d000000000000928d0000000000008d
:10381800ad8d000000000000c88d00000000000011
:10382800e38d000000000000fd8d00000000000096
:10383800188e000000000000338e00000000000019
:103848004e8e000000000000698e0000000000009d
:10385800848e0000000000009f8e00000000000021
:10386800ba8e000000000000d48e000000000000a6
:10387800ef8e0000000000000a8f0000000000002a
:10388800258f000000000000408f000000000000ad
:103898005b8f000000000000768f00000000000031
:1038a800918f000000000000ab8f000000000000b6
:1038b800c68f000000000000e18f0000000000003b
:1038c800fc8f0000000000001790000000000000be
:1038d80032900000000000004d9000000000000041
:1038e80068900000000000008290000000000000c6
:1038f8009d90000000000000b8900000000000004b
:10390800d390000000000000ee90000000000000ce
:103918000991000000000000249100000000000050
:103928003f910000000000005991000000000000d5
:1039380074910000000000008f910000000000005a
:10394800aa91000000000000c591000000000000de
:10395800e091000000000000fb9100000000000062
:1039680016920000000000003092000000000000e5
:103978004b9200000000000066920000000000006a
:1039880081920000000000009c92000000000000ee
:10399800b792000000000000d29200000000000072
:1039a800ed920000000000000793000000000000f6
:1039b80022930000000000003d930000000000007a
:1039c80058930000000000007393000000000000fe
:1039d8008e93000000000000a99300000000000082
:1039e800c493000000000000de9300000000000007
:1039f800f99300000000000014940000000000008b
:103a08002f940000000000004a940000000000000d
:103a18006594000000000000809400000000000091
:103a28009b94000000000000b59400000000000016
:103a3800d094000000000000eb940000000000009b
:103a4800069500000000000021950000000000001d
:103a58003c950000000000005795000000000000a1
:103a680072950000000000008c9500000000000026
:103a7800a795000000000000c295000000000000ab
:103a8800dd95000000000000f8950000000000002f
:103a980013960000000000002e96000000000000b1
:103aa8004996000000000000639600000000000036
:103ab8007e960000000000009996000000000000bb
:103ac800b496000000000000cf960000000000003f
:103ad800ea960000000000000597000000000000c2
:103ae80020970000000000003a9700000000000046
:103af80055970000000000007097000000000000cb
:103b08008b97000000000000a6970000000000004e
:103b1800c197000000000000dc97000000000000d2
:103b2800f797000000000000119800000000000056
:103b38002c980000000000004798000000000000da
:103b480062980000000000007d980000000000005e
:103b58009898000000000000b398000000000000e2
:103b6800ce98000000000000e89800000000000067
:103b780003990000000000001e99000000000000ea
:103b8800399900000000000054990000000000006e
:103b98006f990000000000008a99000000000000f2
:103ba800a599000000000000bf9900000000000077
:103bb800da99000000000000f599000000000000fc
:103bc800109a0000000000002b9a0000000000007e
:103bd800469a000000000000619a00000000000002
:103be8007c9a000000000000969a00000000000087
:103bf800b19a000000000000cc9a0000000000000c
:103c0800e79a000000000000029b0000000000008e
:103c18001d9b000000000000389b00000000000011
:103c2800539b0000000000006d9b00000000000096
:103c3800889b000000000000a39b0000000000001b
:103c4800be9b000000000000d99b0000000000009f
:103c5800f49b0000000000000f9c00000000000022
:103c68002a9c000000000000449c000000000000a6
:103c78005f9c0000000000007a9c0000000000002b
:103c8800959c000000000000b09c000000000000af
:103c9800cb9c000000000000e69c00000000000033
:103ca800019d0000000000001b9d000000000000b6
:103cb800369d000000000000519d0000000000003b
:103cc8006c9d000000000000879d000000000000bf
:103cd800a29d000000000000bd9d00000000000043
:103ce800d89d000000000000f29d000000000000c8
:103cf8000d9e000000000000289e0000000000004b
:103d0800439e0000000000005e9e000000000000ce
:103d1800799e000000000000949e00000000000052
:103d2800af9e000000000000c99e000000000000d7
:103d3800e49e000000000000ff9e0000000000005c
:103d48001a9f000000000000359f000000000000de
:103d5800509f0000000000006b9f00000000000062
:103d6800869f000000000000a09f000000000000e7
:103d7800bb9f000000000000d69f0000000000006c
:103d8800f19f0000000000000ca0000000000000ef
:103d980027a000000000000042a000000000000072
:103da8005da000000000000077a0000000000000f7
:103db80092a0000000000000ada00000000000007c
:103dc800c8a0000000000000e3a000000000000000
:103dd800fea000000000000019a100000000000083
:103de80034a10000000000004ea100000000000007
:103df80069a100000000000084a10000000000008c
:103e08009fa1000000000000baa10000000000000f
:103e1800d5a1000000000000f0a100000000000093
:103e28000ba200000000000025a200000000000016
:103e380040a20000000000005ba20000000000009b
:103e480076a200000000000091a20000000000001f
:103e5800aca2000000000000c7a2000000000000a3
:103e6800e2a2000000000000fca200000000000028
:103e780017a300000000000032a3000000000000ab
:103e88004da300000000000068a30000000000002f
:103e980083a30000000000009ea3000000000000b3
:103ea800b9a3000000000000d3a300000000000038
:103eb800eea300000000000009a4000000000000bc
:103ec80024a40000000000003fa40000000000003f
:103ed8005aa400000000000075a4000000000000c3
:103ee80090a4000000000000aaa400000000000048
:103ef800c5a4000000000000e0a4000000000000cd
:103f0800fba400000000000016a50000000000004f
:103f180031a50000000000004ca5000000000000d2
:103f280067a500000000000081a500000000000057
:103f38009ca5000000000000b7a5000000000000dc
:103f4800d2a5000000000000eda500000000000060
:103f580008a600000000000023a6000000000000e2
:103f68003ea600000000000058a600000000000067
:103f780073a60000000000008ea6000000000000ec
:103f8800a9a6000000000000c4a600000000000070
:103f9800dfa6000000000000faa6000000000000f4
:103fa80015a70000000000002fa700000000000077
:103fb8004aa700000000000065a7000000000000fc
:103fc80080a70000000000009ba700000000000080
:103fd800b6a7000000000000d1a700000000000004
:103fe800eca700000000000006a800000000000088
:103ff80021a80000000000003ca80000000000000c
:1040080057a800000000000072a80000000000008f
:104018008da8000000000000a8a800000000000013
:10402800c3a8000000000000dda800000000000098
:10403800f8a800000000000013a90000000000001c
:104048002ea900000000000049a90000000000009f
:1040580064a90000000000007fa900000000000023
:104068009aa9000000000000b4a9000000000000a8
:10407800cfa9000000000000eaa90000000000002d
:1040880005aa00000000000020aa000000000000af
:104098003baa00000000000056aa00000000000033
:1040a80071aa0000000000008baa000000000000b8
:1040b800a6aa000000000000c1aa0000000000003d
:1040c800dcaa000000000000f7aa000000000000c1
:1040d80012ab0000000000002dab00000000000043
:1040e80048ab00000000000062ab000000000000c8
:1040f8007dab00000000000098ab0000000000004d
:10410800b3ab000000000000ceab000000000000d0
:10411800e9ab00000000000004ac00000000000053
:104128001fac00000000000039ac000000000000d7
:1041380054ac0000000000006fac0000000000005c
:104148008aac000000000000a5ac000000000000e0
:10415800c0ac000000000000dbac00000000000064
:10416800f6ac00000000000010ad000000000000e8
:104178002bad00000000000046ad0000000000006c
:1041880061ad0000000000007cad000000000000f0
:1041980097ad000000000000b2ad00000000000074
:1041a800cdad000000000000e7ad000000000000f9
:1041b80002ae0000000000001dae0000000000007c
:1041c80038ae00000000000053ae00000000000000
:1041d8006eae00000000000089ae00000000000084
:1041e800a4ae000000000000beae00000000000009
:1041f800d9ae000000000000f4ae0000000000008e
:104208000faf0000000000002aaf0000000000000f
:1042180045af00000000000060af00000000000093
:104228007baf00000000000095af00000000000018
:10423800b0af000000000000cbaf0000000000009d
:10424800e6af00000000000001b000000000000020
:104258001cb000000000000037b0000000000000a3
:1042680052b00000000000006cb000000000000028
:1042780087b0000000000000a2b0000000000000ad
:10428800bdb0000000000000d8b000000000000031
:10429800f3b00000000000000eb1000000000000b4
:1042a80029b100000000000043b100000000000038
:1042b8005eb100000000000079b1000000000000bd
:1042c80094b1000000000000afb100000000000041
:1042d800cab1000000000000e5b1000000000000c5
:1042e80000b20000000000001ab200000000000048
:1042f80035b200000000000050b2000000000000cd
:104308006bb200000000000086b200000000000050
:10431800a1b2000000000000bcb2000000000000d4
:10432800d7b2000000000000f1b200000000000059
:104338000cb300000000000027b3000000000000dc
:1043480042b30000000000005db300000000000060
:1043580078b300000000000093b3000000000000e4
:10436800aeb3000000000000c8b300000000000069
:10437800e3b3000000000000feb3000000000000ee
:1043880019b400000000000034b400000000000070
:104398004fb40000000000006ab4000000000000f4
:1043a80085b40000000000009fb400000000000079
:1043b800bab4000000000000d5b4000000000000fe
:1043c800f0b40000000000000bb500000000000081
:1043d80026b500000000000041b500000000000004
:1043e8005cb500000000000076b500000000000089
:1043f80091b5000000000000acb50000000000000e
:10440800c7b5000000000000e2b500000000000091
:10441800fdb500000000000018b600000000000014
:1044280033b60000000000004db600000000000098
:1044380068b600000000000083b60000000000001d
:104448009eb6000000000000b9b6000000000000a1
:10445800d4b6000000000000efb600000000000025
:104468000ab700000000000024b7000000000000a8
:104478003fb70000000000005ab70000000000002d
:1044880075b700000000000090b7000000000000b1
:10449800abb7000000000000c6b700000000000035
:1044a800e1b7000000000000fbb7000000000000ba
:1044b80016b800000000000031b80000000000003d
:1044c8004cb800000000000067b8000000000000c1
:1044d80082b80000000000009db800000000000045
:1044e800b8b8000000000000d2b8000000000000ca
:1044f800edb800000000000008b90000000000004e
:1045080023b90000000000003eb9000000000000d0
:1045180059b900000000000074b900000000000054
:104528008fb9000000000000a9b9000000000000d9
:10453800c4b9000000000000dfb90000000000005e
:10454800fab900000000000015ba000000000000e1
:1045580030ba0000000000004bba00000000000064
:1045680066ba00000000000080ba000000000000e9
:104578009bba000000000000b6ba0000000000006e
:10458800d1ba000000000000ecba000000000000f2
:1045980007bb00000000000022bb00000000000074
:1045a8003dbb00000000000057bb000000000000f9
:1045b80072bb0000000000008dbb0000000000007e
:1045c800a8bb000000000000c3bb00000000000002
:1045d800debb000000000000f9bb00000000000086
:1045e80014bc0000000000002ebc00000000000009
:1045f80049bc00000000000064bc0000000000008e
:104608007fbc0000000000009abc00000000000011
:10461800b5bc000000000000d0bc00000000000095
:10462800ebbc00000000000005bd00000000000019
:1046380020bd0000000000003bbd0000000000009d
:1046480056bd00000000000071bd00000000000021
:104658008cbd000000000000a7bd000000000000a5
:10466800c2bd000000000000dcbd0000000000002a
:10467800f7bd00000000000012be000000000000ae
:104688002dbe00000000000048be00000000000031
:1046980063be0000000000007ebe000000000000b5
:1046a80099be000000000000b3be0000000000003a
:1046b800cebe000000000000e9be000000000000bf
:1046c80004bf0000000000001fbf00000000000041
:1046d8003abf00000000000055bf000000000000c5
:1046e80070bf0000000000008abf0000000000004a
:1046f800a5bf000000000000c0bf000000000000cf
:10470800dbbf000000000000f6bf00000000000052
:1047180011c00000000000002cc0000000000000d4
:1047280047c000000000000061c000000000000059
:104738007cc000000000000097c0000000000000de
:10474800b2c0000000000000cdc000000000000062
:10475800e8c000000000000003c1000000000000e5
:104768001ec100000000000038c100000000000069
:1047780053c10000000000006ec1000000000000ee
:1047880089c1000000000000a4c100000000000072
:10479800bfc1000000000000dac1000000000000f6
:1047a800f5c10000000000000fc20000000000007a
:1047b8002ac200000000000045c2000000000000fe
:1047c80060c20000000000007bc200000000000082
:1047d80096c2000000000000b1c200000000000006
:1047e800ccc2000000000000e6c20000000000008b
:1047f80001c30000000000001cc30000000000000e
:1048080037c300000000000052c300000000000091
:104818006dc300000000000088c300000000000015
:10482800a3c3000000000000bdc30000000000009a
:10483800d8c3000000000000f3c30000000000001f
:104848000ec400000000000029c4000000000000a1
:1048580044c40000000000005fc400000000000025
:104868007ac400000000000094c4000000000000aa
:10487800afc4000000000000cac40000000000002f
:10488800e5c400000000000000c5000000000000b2
:104898001bc500000000000036c500000000000035
:1048a80051c50000000000006bc5000000000000ba
:1048b80086c5000000000000a1c50000000000003f
:1048c800bcc5000000000000d7c5000000000000c3
:1048d800f2c50000000000000dc600000000000046
:1048e80028c600000000000042c6000000000000ca
:1048f8005dc600000000000078c60000000000004f
:1049080093c6000000000000aec6000000000000d2
:10491800c9c6000000000000e4c600000000000056
:10492800ffc600000000000019c7000000000000da
:1049380034c70000000000004fc70000000000005e
:104948006ac700000000000085c7000000000000e2
:10495800a0c7000000000000bbc700000000000066
:10496800d6c7000000000000f0c7000000000000eb
:104978000bc800000000000026c80000000000006e
:1049880041c80000000000005cc8000000000000f2
:1049980077c800000000000092c800000000000076
:1049a800adc8000000000000c7c8000000000000fb
:1049b800e2c8000000000000fdc800000000000080
:1049c80018c900000000000033c900000000000002
:1049d8004ec900000000000069c900000000000086
:1049e80084c90000000000009ec90000000000000b
:1049f800b9c9000000000000d4c900000000000090
:104a0800efc90000000000000aca00000000000012
:104a180025ca00000000000040ca00000000000095
:104a28005bca00000000000075ca0000000000001a
:104a380090ca000000000000abca0000000000009f
:104a4800c6ca000000000000e1ca00000000000023
:104a5800fcca00000000000017cb000000000000a6
:104a680032cb0000000000004ccb0000000000002a
:104a780067cb00000000000082cb000000000000af
:104a88009dcb000000000000b8cb00000000000033
:104a9800d3cb000000000000eecb000000000000b7
:104aa80009cc00000000000023cc0000000000003a
:104ab8003ecc00000000000059cc000000000000bf
:104ac80074cc0000000000008fcc00000000000043
:104ad800aacc000000000000c5cc000000000000c7
:104ae800e0cc000000000000facc0000000000004c
:104af80015cd00000000000030cd000000000000cf
:104b08004bcd00000000000066cd00000000000052
:104b180081cd0000000000009ccd000000000000d6
:104b2800b7cd000000000000d1cd0000000000005b
:104b3800eccd00000000000007ce000000000000df
:104b480022ce0000000000003dce00000000000062
:104b580058ce00000000000073ce000000000000e6
:104b68008ece000000000000a8ce0000000000006b
:104b7800c3ce000000000000dece000000000000f0
:104b8800f9ce00000000000014cf00000000000073
:104b98002fcf0000000000004acf000000000000f6
:104ba80065cf0000000000007fcf0000000000007b
:104bb8009acf000000000000b5cf00000000000000
:104bc800d0cf000000000000ebcf00000000000084
:104bd80006d000000000000021d000000000000006
:104be8003cd000000000000056d00000000000008b
:104bf80071d00000000000008cd000000000000010
:104c0800a7d0000000000000c2d000000000000093
:104c1800ddd0000000000000f8d000000000000017
:104c280013d10000000000002dd10000000000009a
:104c380048d100000000000063d10000000000001f
:104c48007ed100000000000099d1000000000000a3
:104c5800b4d1000000000000cfd100000000000027
:104c6800ead100000000000004d2000000000000ab
:104c78001fd20000000000003ad20000000000002f
:104c880055d200000000000070d2000000000000b3
:104c98008bd2000000000000a6d200000000000037
:104ca800c1d2000000000000dbd2000000000000bc
:104cb800f6d200000000000011d300000000000040
:104cc8002cd300000000000047d3000000000000c3
:104cd80062d30000000000007dd300000000000047
:104ce80098d3000000000000b2d3000000000000cc
:104cf800cdd3000000000000e8d300000000000051
:104d080003d40000000000001ed4000000000000d2
:104d180039d400000000000054d400000000000056
:104d28006fd400000000000089d4000000000000db
:104d3800a4d4000000000000bfd400000000000060
:104d4800dad4000000000000f5d4000000000000e4
:104d580010d50000000000002bd500000000000066
:104d680046d500000000000060d5000000000000eb
:104d78007bd500000000000096d500000000000070
:104d8800b1d5000000000000ccd5000000000000f4
:104d9800e7d500000000000002d600000000000077
:104da8001dd600000000000037d6000000000000fb
:104db80052d60000000000006dd600000000000080
:104dc80088d6000000000000a3d600000000000004
:104dd800bed6000000000000d9d600000000000088
:104de800f4d60000000000000ed70000000000000c
:104df80029d700000000000044d700000000000090
:104e08005fd70000000000007ad700000000000013
:104e180095d7000000000000b0d700000000000097
:104e2800cbd7000000000000e5d70000000000001c
:104e380000d80000000000001bd80000000000009f
:104e480036d800000000000051d800000000000023
:104e58006cd800000000000087d8000000000000a7
:104e6800a2d8000000000000bcd80000000000002c
:104e7800d7d8000000000000f2d8000000000000b1
:104e88000dd900000000000028d900000000000033
:104e980043d90000000000005ed9000000000000b7
:104ea80079d900000000000093d90000000000003c
:104eb800aed9000000000000c9d9000000000000c1
:104ec800e4d9000000000000ffd900000000000045
:104ed8001ada00000000000035da000000000000c7
:104ee80050da0000000000006ada0000000000004c
:104ef80085da000000000000a0da000000000000d1
:104f0800bbda000000000000d6da00000000000054
:104f1800f1da0000000000000cdb000000000000d7
:104f280027db00000000000041db0000000000005b
:104f38005cdb00000000000077db000000000000e0
:104f480092db000000000000addb00000000000064
:104f5800c8db000000000000e3db000000000000e8
:104f6800fedb00000000000018dc0000000000006c
:104f780033dc0000000000004edc000000000000f0
:104f880069dc00000000000084dc00000000000074
:104f98009fdc000000000000badc000000000000f8
:104fa800d5dc000000000000efdc0000000000007d
:104fb8000add00000000000025dd00000000000000
:104fc80040dd0000000000005bdd00000000000084
:104fd80076dd00000000000091dd00000000000008
:104fe800acdd000000000000c6dd0000000000008d
:104ff800e1dd000000000000fcdd00000000000012
:1050080017de00000000000032de00000000000093
:105018004dde00000000000068de00000000000017
:1050280083de0000000000009dde0000000000009c
:10503800b8de000000000000d3de00000000000021
:10504800eede00000000000009df000000000000a4
:1050580024df0000000000003fdf00000000000027
:105068005adf00000000000074df000000000000ac
:105078008fdf000000000000aadf00000000000031
:10508800c5df000000000000e0df000000000000b5
:10509800fbdf00000000000016e000000000000038
:1050a80031e00000000000004be0000000000000bc
:1050b80066e000000000000081e000000000000041
:1050c8009ce0000000000000b7e0000000000000c5
:1050d800d2e0000000000000ede000000000000049
:1050e80008e100000000000022e1000000000000cc
:1050f8003de100000000000058e100000000000051
:1051080073e10000000000008ee1000000000000d4
:10511800a9e1000000000000c4e100000000000058
:10512800dfe1000000000000f9e1000000000000dd
:1051380014e20000000000002fe200000000000060
:105148004ae200000000000065e2000000000000e4
:1051580080e20000000000009be200000000000068
:10516800b6e2000000000000d0e2000000000000ed
:10517800ebe200000000000006e300000000000071
:1051880021e30000000000003ce3000000000000f4
:1051980057e300000000000072e300000000000078
:1051a8008de3000000000000a7e3000000000000fd
:1051b800c2e3000000000000dde300000000000082
:1051c800f8e300000000000013e400000000000005
:1051d8002ee400000000000049e400000000000088
:1051e80064e40000000000007ee40000000000000d
:1051f80099e4000000000000b4e400000000000092
:10520800cfe4000000000000eae400000000000015
:1052180005e500000000000020e500000000000097
:105228003be500000000000055e50000000000001c
:1052380070e50000000000008be5000000000000a1
:10524800a6e5000000000000c1e500000000000025
:10525800dce5000000000000f7e5000000000000a9
:1052680012e60000000000002ce60000000000002c
:1052780047e600000000000062e6000000000000b1
:105288007de600000000000098e600000000000035
:10529800b3e6000000000000cee6000000000000b9
:1052a800e9e600000000000003e70000000000003d
:1052b8001ee700000000000039e7000000000000c1
:1052c80054e70000000000006fe700000000000045
:1052d8008ae7000000000000a5e7000000000000c9
:1052e800c0e7000000000000dae70000000000004e
:1052f800f5e700000000000010e8000000000000d2
:105308002be800000000000046e800000000000054
:1053180061e80000000000007ce8000000000000d8
:1053280097e8000000000000b1e80000000000005d
:10533800cce8000000000000e7e8000000000000e2
:1053480002e90000000000001de900000000000064
:1053580038e900000000000053e9000000000000e8
:105368006ee900000000000088e90000000000006d
:10537800a3e9000000000000bee9000000000000f2
:10538800d9e9000000000000f4e900000000000076
:105398000fea0000000000002aea000000000000f8
:1053a80045ea0000000000005fea0000000000007d
:1053b8007aea00000000000095ea00000000000002
:1053c800b0ea000000000000cbea00000000000086
:1053d800e6ea00000000000001eb00000000000009
:1053e8001ceb00000000000036eb0000000000008d
:1053f80051eb0000000000006ceb00000000000012
:1054080087eb000000000000a2eb00000000000095
:10541800bdeb000000000000d8eb00000000000019
:10542800f3eb0000000000000dec0000000000009d
:1054380028ec00000000000043ec00000000000021
:105448005eec00000000000079ec000000000000a5
:1054580094ec000000000000afec00000000000029
:10546800caec000000000000e4ec000000000000ae
:10547800ffec0000000000001aed00000000000032
:1054880035ed00000000000050ed000000000000b5
:105498006bed00000000000086ed00000000000039
:1054a800a1ed000000000000bbed000000000000be
:1054b800d6ed000000000000f1ed00000000000043
:1054c8000cee00000000000027ee000000000000c5
:1054d80042ee0000000000005dee00000000000049
:1054e80078ee00000000000092ee000000000000ce
:1054f800adee000000000000c8ee00000000000053
:10550800e3ee000000000000feee000000000000d6
:1055180019ef00000000000034ef00000000000058
:105528004fef00000000000069ef000000000000dd
:1055380084ef0000000000009fef00000000000062
:10554800baef000000000000d5ef000000000000e6
:10555800f0ef0000000000000bf000000000000069
:1055680026f000000000000040f0000000000000ed
:105578005bf000000000000076f000000000000072
:1055880091f0000000000000acf0000000000000f6
:10559800c7f0000000000000e2f00000000000007a
:1055a800fdf000000000000017f1000000000000fe
:1055b80032f10000000000004df100000000000082
