:020000040000fa
:080000000002040000000000f2
:020000040000fa
:0400080000030000f1
:020000040000fa
:04000c0000030000ed
:020000040000fa
:0400100000030000e9
:020000040000fa
:0400140000030000e5
:020000040000fa
:0400180000030000e1
:020000040000fa
:04001c0000030000dd
:020000040000fa
:0400200000030000d9
:020000040000fa
:0400240000030000d5
:020000040000fa
:0400280000030000d1
:020000040000fa
:04002c0000030000cd
:020000040000fa
:0400300000030000c9
:020000040000fa
:04003400c8020000fe
:020000040000fa
:04003800cc020000f6
:020000040000fa
:04003c0000030000bd
:020000040000fa
:0400400000030000b9
:020000040000fa
:0400440000030000b5
:020000040000fa
:0400480000030000b1
:020000040000fa
:04004c0000030000ad
:020000040000fa
:0400500000030000a9
:020000040000fa
:0400540000030000a5
:020000040000fa
:0400580000030000a1
:020000040000fa
:04005c00000300009d
:020000040000fa
:04006000d8020000c2
:020000040000fa
:040064000003000095
:020000040000fa
:040068000003000091
:020000040000fa
:04006c00000300008d
:020000040000fa
:040070000003000089
:020000040000fa
:040074000003000085
:020000040000fa
:040078000003000081
:020000040000fa
:04007c00000300007d
:020000040000fa
:040080000003000079
:020000040000fa
:040084000003000075
:020000040000fa
:040088000003000071
:020000040000fa
:04008c00000300006d
:020000040000fa
:040090000003000069
:020000040000fa
:040094000003000065
:020000040000fa
:040098000003000061
:020000040000fa
:04009c00000300005d
:020000040000fa
:0400a0000003000059
:020000040000fa
:0400a4000003000055
:020000040000fa
:0400a8000003000051
:020000040000fa
:0400ac00000300004d
:020000040000fa
:0400b0000003000049
:020000040000fa
:0400b4000003000045
:020000040000fa
:0400b8000003000041
:020000040000fa
:0400bc00000300003d
:020000040000fa
:0400c0000003000039
:020000040000fa
:0400c4000003000035
:020000040000fa
:0400c8000003000031
:020000040000fa
:0400cc00000300002d
:020000040000fa
:0400d0000003000029
:020000040000fa
:0400d4000003000025
:020000040000fa
:0400d8000003000021
:020000040000fa
:0400dc00000300001d
:020000040000fa
:0400e0000003000019
:020000040000fa
:0400e4000003000015
:020000040000fa
:0400e8000003000011
:020000040000fa
:0400ec00000300000d
:020000040000fa
:0400f0000003000009
:020000040000fa
:0400f4000003000005
:020000040000fa
:0400f8000003000001
:020000040000fa
:0400fc0000030000fd
:020000040000fa
:0401000000030000f8
:020000040000fa
:0401040000030000f4
:020000040000fa
:0401080000030000f0
:020000040000fa
:04010c0000030000ec
:020000040000fa
:0401100000030000e8
:020000040000fa
:0401140000030000e4
:020000040000fa
:0401180000030000e0
:020000040000fa
:04011c0000030000dc
:020000040000fa
:0401200000030000d8
:020000040000fa
:0401240000030000d4
:020000040000fa
:0401280000030000d0
:020000040000fa
:04012c0000030000cc
:020000040000fa
:0401300000030000c8
:020000040000fa
:0401340000030000c4
:020000040000fa
:0401380000030000c0
:020000040000fa
:04013c0000030000bc
:020000040000fa
:0401400000030000b8
:020000040000fa
:0401440000030000b4
:020000040000fa
:0401480000030000b0
:020000040000fa
:04014c0000030000ac
:020000040000fa
:0401500000030000a8
:020000040000fa
:0401540000030000a4
:020000040000fa
:0401580000030000a0
:020000040000fa
:04015c00000300009c
:020000040000fa
:040160000003000098
:020000040000fa
:040164000003000094
:020000040000fa
:0402080000030000ef
:020000040000fa
:04020c0000030000eb
:020000040000fa
:0402100000030000e7
:020000040000fa
:0402140000030000e3
:020000040000fa
:0402180000030000df
:020000040000fa
:04021c0000030000db
:020000040000fa
:0402200000030000d7
:020000040000fa
:0402240000030000d3
:020000040000fa
:0402280000030000cf
:020000040000fa
:04022c0000030000cb
:020000040000fa
:0402300000030000c7
:020000040000fa
:0402340000030000c3
:020000040000fa
:0402380000030000bf
:020000040000fa
:04023c0000030000bb
:020000040000fa
:0402400000030000b7
:020000040000fa
:0402440000030000b3
:020000040000fa
:0402480000030000af
:020000040000fa
:04024c0000030000ab
:020000040000fa
:0402500000030000a7
:020000040000fa
:0402540000030000a3
:020000040000fa
:04025800000300009f
:020000040000fa
:04025c00000300009b
:020000040000fa
:040260000003000097
:020000040000fa
:040264000003000093
:020000040000fa
:04026800000300008f
:020000040000fa
:04026c00000300008b
:020000040000fa
:040270000003000087
:020000040000fa
:040274000003000083
:020000040000fa
:04027800000300007f
:020000040000fa
:04027c00000300007b
:020000040000fa
:040280000003000077
:020000040000fa
:040284000003000073
:020000040000fa
:04028800000300006f
:020000040000fa
:04028c00000300006b
:020000040000fa
:040290000003000067
:020000040000fa
:040294000003000063
:020000040000fa
:04029800000300005f
:020000040000fa
:04029c00000300005b
:020000040000fa
:0402a0000003000057
:020000040000fa
:0402a4000003000053
:020000040000fa
:0402a800000300004f
:020000040000fa
:0402ac00000300004b
:020000040000fa
:0402b0000003000047
:020000040000fa
:0402b4000003000043
:020000040000fa
:0402b800000300003f
:020000040000fa
:0402bc00000300003b
:020000040000fa
:0402c0000003000037
:020000040000fa
:0402c4000003000033
:020000040000fa
:0402c800000300002f
:020000040000fa
:0402cc00000300002b
:020000040000fa
:0402d0000003000027
:020000040000fa
:0402d4000003000023
:020000040000fa
:0402d800000300001f
:020000040000fa
:0402dc00000300001b
:020000040000fa
:0402e0000003000017
:020000040000fa
:0402e4000003000013
:020000040000fa
:0402e800000300000f
:020000040000fa
:0402ec00000300000b
:020000040000fa
:0402f0000003000007
:020000040000fa
:0402f4000003000003
:020000040000fa
:0402f80000030000ff
:020000040000fa
:0402fc0000030000fb
:020000040000fa
:0403000000030000f6
:020000040000fa
:0403040000030000f2
:020000040000fa
:0403080000030000ee
:020000040000fa
:04030c0000030000ea
:020000040000fa
:0403100000030000e6
:020000040000fa
:0403140000030000e2
:020000040000fa
:0403180000030000de
:020000040000fa
:04031c0000030000da
:020000040000fa
:0403200000030000d6
:020000040000fa
:0403240000030000d2
:020000040000fa
:0403280000030000ce
:020000040000fa
:04032c0000030000ca
:020000040000fa
:0403300000030000c6
:020000040000fa
:0403340000030000c2
:020000040000fa
:0403380000030000be
:020000040000fa
:04033c0000030000ba
:020000040000fa
:0403400000030000b6
:020000040000fa
:0403440000030000b2
:020000040000fa
:0403480000030000ae
:020000040000fa
:04034c0000030000aa
:020000040000fa
:0403500000030000a6
:020000040000fa
:0403540000030000a2
:020000040000fa
:04035800000300009e
:020000040000fa
:04035c00000300009a
:020000040000fa
:040360000003000096
:020000040000fa
:040364000003000092
:020000040000fa
:10040000cf2623000e7f23000e018800000000008d
:10041000000020000000e000020032000001200087
:100420002002880014000700d50207000000e00049
:1004300003003a0020d02000010020000200370015
:100440000000200001002000810f70000100320038
:1004500014000700000020000000e000020032004d
:100460000000020000000000402402000000000024
:100470000040da000000fe004440a9000000200017
:100480000000e0000300320000002000a00188000e
:100490004440a800000006008a1f78008b1f7800e7
:1004a0000000060091018800800478000000eb0045
:1004b0001a003700e284440032a0b4009905ba0063
:1004c000e284440032a0b4009906ba00e2844400f9
:1004d00032a0b4000006eb00476fde00fd07b2005b
:1004e000636ce10003003a00ebff07000000eb0043
:1004f0000a003700606ce10004003a00005deb0088
:100500008b05e900fdff3e00040037006168e10053
:10051000010032000086eb000b00070019c7ba008b
:100520001905ba000e04e00003003a000a00e000da
:10053000e0ff3a0000000600fe07b2009e018800be
:100540008a047800f5ff3700395dba008b05e900b1
:100550000c003200295dba008b05e900080032006a
:100560000c00e00003003a00e284440032a0b40032
:10057000f5ff370019ddba008b05e900faff3a00f4
:100580008904e800e184440032a0b40000000600c1
:100590008460a90000400600801f78008480a900c4
:1005a0001000200030a088004f00780000400600b6
:1005b000809fbe00821f780085c0a90020168000a1
:1005c00000407800614060000004a20061406000cb
:1005d0000080fb006100600022168000e1ff2f0018
:1005e00081006100010070002016880010002000ca
:1005f00020a088004f0178004f00be000040060098
:100600000040da000000fe00889fbe008a9fbe0006
:100610008c9fbe0000057800810678000a00e90082
:10062000cf80de004d0307000001be00b0fd2000ba
:10063000910c2400bb0207008005780001067800b9
:100640000a00e000130034008d0478000004eb0081
:100650006140b900410307000b0178008c0178006c
:100660009e030700ad0207000200200003f02b00ec
:100670009a0307000200200003f023004202070053
:1006800076010700801c78000804e800880f5500f8
:10069000efff3c000d0078004f06be004f05be0086
:1006a0004f04be0000000600f6874700889fbe008a
:1006b0008a9fbe008c9fbe008e1f7800f1af9f0006
:1006c00082047800180020000040dd004f04de00a6
:1006d000000044000084d1000000200001f8230045
:1006e0005e010700ffa89700800878000000eb007b
:1006f000900098006140b900180307000001be0097
:10070000b0fd2000910424008602070080057800d7
:10071000010578000b0078008a0078007f0207004e
:10072000b0b79f00a1b79f000900e000940032001d
:100730000a01be000300780082007800040407006c
:100740000006be000883e90086003300ffab970077
:10075000648543008c0478000d047800bfb59700d1
:100760002fb797000b0078008e00780086bf9f009f
:100770003a010700000d7800090078008800780031
:10078000360107001005980064054500bfb09700ca
:100790002fb0970001017800800178000b007800ed
:1007a0008e0078004d0307000002be000c01be0061
:1007b000c8b79f000900780088007800e4b79f0060
:1007c000f5b79f00450307000001be006fb2970018
:1007d000ffb297000400be00ea01070090b79f0037
:1007e00081b79f00bfb097002fb09700010178003c
:1007f00080017800090278008800780004047800fd
:10080000810478000800be003403070080047800eb
:10081000010478000c01be000b0278008e00780005
:10082000c4b79f00d1b79f004fb09700dfb09700cb
:100830002a03070009027800880178000404780080
:10084000830478000801be00cf010700800478000f
:10085000010478000fbb97000603e9004100330054
:100860009fb597000fb797000b0078008e007800b7
:1008700086bf9f00f9000700000d7800090078008e
:1008800088007800f5000700100598006405450011
:10089000bfb097002fb09700010178008001780069
:1008a0000b0078008e0078000c0307000002be00e9
:1008b0000c01be00c8b79f000900780088007800ce
:1008c000e4b79f00f5b79f00040307000001be00d6
:1008d0006fb29700ffb297000400be00a9010700a5
:1008e00090b79f0081b79f00bfb097002fb09700cf
:1008f0000101780080017800090278008800780002
:1009000004047800810478000800be00f3020700a8
:1009100080047800010478000c01be000b0278000e
:100920008e007800c4b79f00d1b79f004fb09700ea
:10093000dfb09700e902070009027800880178001b
:1009400004047800830478000801be008e010700cb
:1009500080047800010478000fbb97000603e900cb
:10096000bfff3b007fa897004f0778004f06be00ef
:100970004f05be004f04be006f01b100000006002d
:100980000a01be00030078008200780070030700af
:100990000006be000df0a2006aff3700b102780029
:1009a0000009eb000002e90007003400b101780003
:1009b0000328e10002003c00830278000409500093
:1009c0000402e900f9ff3c00050078000000060081
:1009d000810178000000e90000800900b218780069
:1009e00003007800000006004400f800040f200017
:1009f00024028800811f78000000e90003027800cb
:100a00000080080002000000b20278001301c0005c
:100a10003100cd004f0078004400f90000000600ce
:100a20004400f800040f200024028800010278002e
:100a30000000e9000080080004000000b202780015
:100a40000500ca00b30278000500c9003100cc00df
:100a5000040078004400f900000006004400f8009b
:100a6000040f200024028800811f78000000e900a4
:100a7000008008000300000032027800b302780012
:100a80001301c0003100cd004f0078004400f90090
:100a900000000600889fbe008a9fbe008c9fbe009b
:100aa0008e1f78004400f800070f200027028800fe
:100ab0003400f800811f78000f07780007f02f003e
:100ac0000338e10004003200270280004700b30031
:100ad00027028800a301880019002000804cdd0057
:100ae0001300200002047800800678008904d100f9
:100af000424edd00010578000302e9000480080091
:100b0000170000008a0546004218dd000902e900ce
:100b10000480080010000000000000004620c30010
:100b20003b025200df35c100080440001381c200bf
:100b3000ab825200264dc5003e85c400bb00cd00ef
:100b4000bb80cd003a00ca002a80ca000700c90055
:100b50000580c900ba00cd00ba80cd000a05460064
:100b6000020478008301d0008d06e900dfff3c001d
:100b70008e0778004f0078003400f9004400f90037
:100b80004f0778004f06be004f05be004f04be0061
:100b9000000006004600f8005000f8000220200087
:100ba0003202880002002800130020008019dd00b6
:100bb0000281710082028800010078000101780042
:100bc00026002000470020008301e9000380080080
:100bd000070000000110e100040034001102be0013
:100be00092087800e2307b000489be0087804000d4
:100bf000121978005000f9004600f90000000600c4
:100c0000821f7800849fbe008a1f78004400f8008d
:100c1000040f200024028800010578000601c300ab
:100c20000080e900008008000300000000000000d0
:100c30000505f0000401f1003200cd000505f000cb
:100c40001001f1003200cd004400f9004f0578009a
:100c50004f02be004f00780000000600e887470002
:100c6000889fbe008a9fbe008c9fbe008e1f7800aa
:100c70000005be00020020000370240017020700d8
:100c800080047800010478006011b8000a00be00fa
:100c90008f0107000000e0003700350009007800f0
:100ca00088007800b00107008b0107000005be0036
:100cb0000a00be00a90107000006be0002002000d5
:100cc00003f02300050207000007780081bf9f00a2
:100cd000010178000e00780082007800a201070070
:100ce000e0b79f00f1b79f000c01be000902780039
:100cf0008800780004037800810378000600be00b5
:100d0000a00007000004be000200200003f0230042
:100d10000800be006e0107000000e0007b00340008
:100d20000200200003f823000c00be00960007001c
:100d3000690107000005be008a0178000b017800f8
:100d40000300780082007800f3ff2700830f500033
:100d5000e08f580002003400f0ff2700010020005f
:100d60004f0778004f06be004f05be004f04be007f
:100d70008f00b100000006000900780088007800ac
:100d8000de000700540107000006be000c00be0094
:100d9000720107000005be00090178008801780093
:100da0000a00be00780107000000e00009003200e0
:100db0000200200003f823000a00be0071000700b3
:100dc000450107000006be000c00be0063010700dd
:100dd0000005be000200200003f023000a00be0050
:100de000be0107000007780081bf9f000101780065
:100df0000e007800820078005b010700e0b79f00da
:100e0000f1b79f000a01be0009027800880078004f
:100e100004037800810378000600be005900070033
:100e20000004be000200200003f023000800be0002
:100e3000270107000000e000170034000200200036
:100e400003f823000a00be004f000700220107003c
:100e50000006be008c0178000d01780003007800c8
:100e60008200780002002800f3ff2f00820f50005c
:100e7000838f5800baff3d000200be004f07780084
:100e80004f06be004f05be004f04be008f00b100ec
:100e900000000600b8ff37000200200003f0230026
:100ea000880078000900780001027800800278004c
:100eb0000400be00040107000000e000e5ff3a0066
:100ec0006fb19700ffb197008e0278000fba9700bc
:100ed00005007800840078002a0007000001be00a9
:100ee00029000700fc0007000000e000d9ff3200e5
:100ef0000200200003f823000a00be0022000700c1
:100f0000f50007000006be00d2ff370002002000f7
:100f100003f02300880078000900780001027800bf
:100f2000800278000400be00e70007000000e00037
:100f300081ff3a006fb19700ffb197008e027800f1
:100f40000fba970005007800840078000d000700b4
:100f50000001be000c000700df0007000000e000f9
:100f600075ff32000200200003f823000c00be00d1
:100f700005000700d80007000005be006eff37001f
:100f80000000050003f0a200889fbe008a9fbe00fb
:100f90008c1f780039010700400133006450e100e4
:100fa0004f0032006420e1005200320003826c00e6
:100fb00007003b000905d0000306d000820f540053
:100fc0000c065d0002003900020032008901780041
:100fd000030678008582550004003d000003fd00f3
:100fe0008103fd008502ea008b854200840f7200b8
:100ff00002003b0060001000e08018006011b800a3
:101000000005eb007a28e1000a00390006007800ac
:10101000c75ddd00f707b200878075002d0037003f
:10102000828171000a017800610560008180d10031
:101030000080d3008502e900f9ff3b000604400070
:101040008784480002003b0060041400e0841c0018
:101050000988a300070032008a8171008281710033
:10106000610164008904d1000884d3008b05e80085
:10107000170037000978a30013003a000b00e000c6
:10108000130034008b05e9000804440089844c00f7
:101090000a4474000978a3000d003a000b00e00038
:1010a000070034008b05e9000804440089844c00e3
:1010b00001003a000b0020000978a300f7ff32007e
:1010c0000001eb0002003700828171000a01780004
:1010d000af0007000cf0a70001f0a000f8003700f7
:1010e0006420e10002003a00838f6c00f8003300b6
:1010f0000801be000200be00f10037000001eb0055
:101100004a000700040032000200200003f8230018
:1011100001f0a6009cff0700000006000081eb0024
:1011200022013700889fbe008a9fbe008c1f780076
:10113000d2000700d900330003866c006450e10040
:101140002e0032006420e100330032006150e100e3
:101150002f0032006120e10031003200858555000a
:10116000eb07b0000900200008042000050037004c
:101170000804440089844c000a003100060343003f
:1011800087834b000001530081815b00f8ff33002f
:101190000203be000800a0000804440089844c003b
:1011a000f6ff3900c639dd0083017300010032000b
:1011b000130020008904d1000884d3000998a300fb
:1011c000050032000800a7000300a0008904d10038
:1011d0000884d3008b05e8008904d1000884d3007b
:1011e0000001eb000281d2006900070001f0a100bc
:1011f0000cf0a70001f0a000b10037006420e1006e
:10120000b30032000801be000200be00f7ff370045
:101210006120e100ae0032006000b800f3ff37004b
:101220000000200001f82700f0ff3700889fbe0073
:101230008a9fbe000003be007b0007008505780082
:1012400082815200020020006220e10004003a0086
:10125000f307b100040035007718e1000400350001
:101260000600be00140037006000b8000f00370011
:10127000f50f2000faff2f008502d1000a85d30068
:101280008301e900fcff3b008184620000046500eb
:10129000890f7400f2ff32008582ea000a85ea00b5
:1012a00081846200000465003900070007f0a70090
:1012b00001f0a0000081eb000200e0004f05be003d
:1012c0004f04be0000000600140020002201370079
:1012d000f4ff2f00200137000001be00520007007c
:1012e0000470a70003f0a1006509b10016003200e8
:1012f0000d0035006828e10006003500f0ff2f00e2
:10130000f1ff27000300e00013003b00010028006c
:101310000000050000004000818048008502e900cf
:10132000fcff3a0008003700f88f420002003c0042
:101330008000eb00000005008100d1000080d30098
:101340008502e800fcff3a000300e00002003b00d9
:1013500060001000e0801800000006004f89de00e9
:1013600082017800170137000001eb00afff070092
:10137000040032000200200003f8230001f0a7005f
:1013800000ff07000000060004002000f200370004
:1013900081002000618055000b003d000b00200003
:1013a00061fe2f000100e1001d0034008281710008
:1013b000610164008904d1000884d3000000e800c2
:1013c000faff3a0071002000610064000300700021
:1013d000020060000900320061044400e0844c0017
:1013e0000988a500050032008b05e8006808e100c7
:1013f00002003a008904d1000884d300f20f2000d3
:101400000258e10005003d00c75ddd00f907b200ac
:101410008980750008007800000006000bf827009e
:101420008b00780000000500c70ade00f107b2005b
:10143000f50fb20008003200e1cf42000200320096
:101440000170a00024000500810f7000010032002f
:101450000408050044000500810f700002003a00f6
:10146000140005008502e9000000400081c048002a
:10147000fcff3b000170a000240005000004be003a
:10148000e9ff07000003be000405be000200be0025
:10149000e5ff0700844f7500000006000200be0053
:1014a0006450e100050036006420e10002003600cf
:1014b0000968a30001003a000800be000160a00016
:1014c0004f0678004f05be004f04be000000060026
:1014d000f0ff2f00f1ff2700f9ff3700889fbe00c3
:1014e0008a9fbe008c1f7800e4ff0700ebff3300eb
:1014f00003866c006450e100240032006420e100a7
:10150000270032006150e100220032006120e1003a
:10151000210032008b854200eb07b1000134b80096
:10152000003ab8000804420089844a00013ab80031
:101530000030b8008880400009014a0004003300f0
:101540000000400081804800020149008b05e9004d
:10155000c909dd0083017000010032001300200082
:10156000c814de004814dd004709de001200b20096
:10157000c808de000884700085ff070001f0a100a4
:101580000cf0a70001f0a000cdff37006120e100c2
:10159000cfff32000801be000200be00f7ff370097
:1015a0006150e100fcff3a00c9ff3700889fbe0090
:1015b0008a9fbe008c9fbe00820578000004be009a
:1015c00099ff07000800be006420e1000700390011
:1015d00002003a00f1ff2700f0ff2f000160a00099
:1015e0001202200002408800550037006120e1000f
:1015f00003003a000b00a70001f823005000370059
:1016000001f0a10002002100936424002eff0700d6
:101610000800be0004003500b2fd2000930c240039
:10162000a70007000004be000005eb000b00a600a9
:101630004f0dde0001f0a1000004be0032982f0023
:1016400023ea2300a5ff07000001eb0003f02300bd
:101650000b00a70003f823004bfe07001eff070046
:101660000000a7000a00a2003cff07000b00e000fa
:10167000030032000200200003f0230041fe0700b7
:1016800001f0a2000006be00020020009304240026
:1016900092ff07000801be003bfe0700809fbe00ce
:1016a0000c00be0022a22a00d3a723008bff070054
:1016b0004f01be0034fe07000004be0001f0a1008f
:1016c0000200200003982300fffe07000800be0070
:1016d000190035000001be0080ff07000006be00b3
:1016e000b2c52900e36223007cff070022222b0001
:1016f000f3942b0024fe07000c01be0077ff0700c7
:10170000e273280083c023001ffe07000c01be0007
:1017100072ff070042aa2a00a3e22b001afe07006c
:101720000c01be006dff07000801be006bff070043
:101730000801be0014fe07000a00a70001f0a20085
:101740004f06be004f05be004f04be00000006005d
:101750000001eb0095ff3700889fbe008a9fbe0006
:10176000841f780045ff07004f0078001100330008
:10177000f0ff2f00838f6c0006003b00040565001e
:101780000a00a7000800370009f0a600100020009a
:1017900008003700820f5400838f5c00030039007b
:1017a0001000200001003e000000200009f0a7000a
:1017b0000000ea004f05be004f04be000000e0003c
:1017c00000000600881f7800030478000300e00092
:1017d00007003d0060001000e08018006001190063
:1017e000e081190002003b0001f02d0003003700ea
:1017f0000400070008f0a70001f0a0004f047800e3
:1018000000000600889fbe008a9fbe000082700014
:101810000402710004827100260032000004be0040
:101820000200be006011b8006b0920009502200084
:101830000182cf000a0039000541b1000082cf00cb
:10184000070039000541b1000982cf0004003900ca
:101850000541b1000882cf00010039000541b10007
:1018600005425200120032000a003b0082817100e2
:10187000610164008100d1000080d3008984d3001d
:101880000884d3008b05e8000442e800f7ff3a0023
:10189000070037000804440089844c000000480019
:1018a000818048008b05e9000442e900f9ff3a0015
:1018b000b7fe07004f05be004f04be000000060043
:1018c0000400200000003700889fbe008a9fbe00f1
:1018d0008c1f78004f26dd00e8fe0700effe330086
:1018e0006120e100430032006250e10041003e000f
:1018f0003e0039006420e1003c00320005825500c2
:101900000f003b000402e80038003a00800f53004b
:10191000818f5b00350034000800be0003f0a10099
:1019200001f0a60003f0a0000cf0a70096fd070050
:10193000e3fe37000603430087834b000c46460056
:101940000005530081855b00020033000a03be00de
:101950000c00a0000402e900f6ff3b0085057800ba
:101960000602430087824b0004003a006000b80082
:1019700009f0a70001f0a000d1fe370000025200dc
:1019800081825a000704e00004003300060343008c
:1019900087834b008b05e900faff370009057800c3
:1019a0000604be000203be006011b80078fe070006
:1019b000e00f5200e08f5a000700350002003c00a3
:1019c0000c08a300040032000601be0003f0a000d2
:1019d0000cf0a7006cfd07000a85680001f0a1006b
:1019e0000af0a70001f0a000b5fe37000800be0015
:1019f000b3fe3700100220000cf0a6000040880063
:041a0000b3fe3700fa
:020000040000fa
:101a04003e2c00002e060000020000000000020030
:101a14000104020006030800040a05000c060e0077
:101a240007100800120914000a160b00180c1a00fb
:101a34000d1c0e001e0f200010221100241226007f
:101a4400132814002a152c00162e17003018320003
:101a540019341a00361b38001c3a1d003c1e3e0087
:101a64001f402000422144002246230048244a000b
:101a7400254c26004e27500028522900542a56008f
:101a84002b582c005a2d5c002e5e2f006030620013
:101a94003164320066336800346a35006c366e0097
:101aa40037703800723974003a763b00783c7b001a
:101ab4003d7d3e007f3f8100408341008542870099
:101ac400438944008b458d00468f4700914893001d
:101ad40049954a00974b99004c9b4d009d4e9f00a1
:101ae4004fa15000a351a50052a75300a954ab0025
:101af40055ad5600af57b10058b35900b55ab700a9
:101b04005bb95c00bb5dbd005ebf5f00c160c3002c
:101b140061c56200c763c90064cb6500cd66cf00b0
:101b240067d16800d369d5006ad76b00d96cdb0034
:101b34006ddd6e00df6fe10070e37100e572e700b8
:101b440073e97400eb75ed0076ef7700f178f3003c
:101b540079f57a00f77bfa007cfc7d00fe7e0000bc
:101b640080000000020104000206030008040a00c9
:101b7400050c06000e07100008120900140a1600ce
:101b84000b180c001a0d1c000e1e0f002010220052
:101b94001124120026132800142a15002c162e00d6
:101ba40017301800321934001a361b00381c3a005a
:101bb4001d3c1e003e1f40002042210044224600de
:101bc400234824004a254c00264e27005028520062
:101bd40029542a00562b58002c5a2d005c2e5e00e6
:101be4002f603000623164003266330068346a006a
:101bf400356c36006e37700038723900743a7600ee
:101c04003b783c007b3d7d003e7f3f00814083006c
:101c14004185420087438900448b45008d468f00ef
:101c240047914800934995004a974b00994c9b0073
:101c34004d9d4e009f4fa10050a35100a552a700f7
:101c440053a95400ab55ad0056af5700b158b3007b
:101c540059b55a00b75bb9005cbb5d00bd5ebf00ff
:101c64005fc16000c361c50062c76300c964cb0083
:101c740065cd6600cf67d10068d36900d56ad70007
:101c84006bd96c00db6ddd006edf6f00e170e3008b
:101c940071e57200e773e90074eb7500ed76ef000f
:101ca40077f17800f379f5007af77b00fa7cfc0091
:101cb4007dfe7e000080000002000000000600009f
:101cc40000000a00000000001000000000160000e0
:101cd40000001a00000000002000000000240000a2
:101ce40000002a0000000000300000000034000062
:101cf40000003a0000000000400000000044000022
:101d040000004a00000000005000000000540000e1
:101d140000005a00000000005e00000000640000a3
:101d240000006a00000000006e0000000074000063
:101d340000007a00000000007e0000000084000023
:101d440000008a00000000008e00000000940000e3
:101d540000009800000000009e00000000a40000a5
:101d64000000a80000000000ae00000000b4000065
:101d74000000b80000000000be00000000c4000025
:101d84000000c80000000000ce00000000d40000e5
:101d94000000d80000000000de00000000e20000a7
:101da4000000e80000000000ee00000000f2000067
:101db4000000f80000000000fe0000000002010026
:101dc40000000800010000000e01000000120100e4
:101dd40000001800010000001c01000000220100a6
:101de40000002800010000002c0100000032010066
:101df40000003800010000003c0100000042010026
:101e040000004800010000004c01000000520100e5
:101e140000005600010000005c01000000620100a7
:101e240000006600010000006c0100000072010067
:101e340000007600010000007c0100000082010027
:101e440000008600010000008c01000000900100e9
:101e540000009600010000009c01000000a00100a9
:101e64000000a60001000000ac01000000b0010069
:101e74000000b60001000000bc01000000c0010029
:101e84000000c60001000000ca01000000d00100eb
:101e94000000d60001000000da01000000e00100ab
:101ea4000000e60001000000ea01000000f001006b
:101eb4000000f60001000000fa010000000002002a
:101ec40000000600020000000a02000000100200e8
:101ed40000001400020000001a02000000200200aa
:101ee40000002400020000002a020000003002006a
:101ef40000003400020000003a020000004002002a
:101f040000004400020000004a020000004e0200eb
:101f140000005400020000005a020000005e0200ab
:101f240000006400020000006a020000006e02006b
:101f340000007400020000007a020000007e02002b
:101f4400000084000200000088020000008e0200ed
:101f5400000094000200000098020000009e0200ad
:101f640000010000004000004000800000800000ec
:101f7400ea01000000100000400060000070000052
:101f840070006000004000001001000000320000fa
:101f940000003c00000002000002000093cbda00c5
:101fa400cca12f000234ee003163d1003fcdcd002f
:101fb400c8a531009b312900c886ce00f4cb7c0033
:101fc40036bb310041cd7000cec2cf008d35de006e
:101fd40030320a0094ca1e00d01d2e001f395b0047
:101fe40031b33100a9cac000cf51d0008738ce0028
:101ff4002f70e000f1ca5e00cf4b30008d34f90041
:102004003019ce0022ce6900cfb234002731ab00a4
:1020140010bcc40087ce2600cd73380092319100e5
:102024003199ca00bacf8b00d0793800e42f63000d
:10203400e4aeca0012cffa00cbf037005a31e40004
:10204400321ece008fced600cbc33500d33026004f
:10205400c674d10043cc8500cc1e310077339b007d
:1020640032b9d10025cd6300c7fcfe00d336b400dd
:102074002f52d3008ccb7e00cdab2f00ea3312005d
:10208400302a3200b5ca4e00cf5b2a002c35360008
:10209400316acb0035ced200cd1935008731260008
:1020a4002e4ec900f3cf1000fad73600c8317e0097
:1020b40033b4c8008fcf5400cdb936008030a800a7
:1020c4003170ca0062cf330033c73000f7cfaa00a3
:1020d400cc5dcc00e9313d0033ee320096d13800be
:1020e400cd6ac7001932d9003161c3005dcf110038
:1020f400cc0639000831a4003204cd00f9ce2c00fe
:10210400cd95360083308d00c984cd0061313d000a
:1021140034b632001bd25e00cc63cc00b02fe20098
:102124003233350055cf2600ce153f0020303c0019
:10213400d081cc00bccdb90031053300ca2ec30018
:10214400cb25cf00b5e14300350e300013cfb600e8
:10215400cc6639002231ea0031dcca00b2cfee008d
:10216400cf543800e52f2200da7acb000bcfac0035
:10217400311b340004315300cd65cc006b31470072
:10218400321b3700dace1400cef43f00cc315d00b0
:10219400339cc80093cf6000cd0f34005e3036000e
:1021a400cf03ce00d5d0ee0032e0300004cfe900fa
:1021b400cc4acc00833249003109cb007acfad0040
:1021c400d0ce37001a302c00f323ca0000d0af0061
:1021d4002d77350031319f00d002cd000acef700b3
:1021e400311a3200a1218d00cc4e3600c6330c00ca
:1021f4003248c90017cfbc00cd6c3600cd30b800d2
:102204002edfc8001dc8b30031c83100c5c6d000d8
:10221400cef5cb005637760031ed3200a8ce600003
:10222400ce9b34002731630010efca0007d0eb00c7
:102234002eed340031327f00d23ecc00a1cc990087
:102244002f52300084c90200000000000012000078
:102254003e120000000000000038000000040000ee
:1022640002000000ff7fff007fff7f00ff7fff0071
:102274007f01800001800100800180000180ff0057
:102284007fff7f00ff7fff007fff7f000180010051
:10229400800180000180010080ff7f00ff7fff003c
:1022a4007fff7f00ff7f010080018000018001002b
:1022b40080018000ff7fff007fff7f00ff7fff0022
:1022c4007f01800001800100800180000180ff0007
:1022d4007fff7f00ff7fff007fff7f000180010001
:1022e400800180000180010080ff7f00ff7fff00ec
:1022f4007fff7f00ff7f01008001800001800100db
:1023040080018000ff7fff007fff7f00ff7fff00d1
:102314007f01800001800100800180000180ff00b6
:102324007fff7f00ff7fff007fff7f0001800100b0
:10233400800180000180010080ff7f00ff7fff009b
:102344007fff7f00ff7f010080018000018001008a
:1023540080018000ff7fff007fff7f00ff7fff0081
:102364007f01800001800100800180000180ff0066
:102374007fff7f00ff7fff007fff7f000180010060
:10238400800180000180010080ff7f00ff7fff004b
:102394007fff7f00ff7f010080018000018001003a
:1023a40080018000ff7fff007fff7f00ff7fff0031
:1023b4007f01800001800100800180000180ff0016
:1023c4007fff7f00ff7fff007fff7f000180010010
:1023d400800180000180010080ff7f00ff7fff00fb
:1023e4007fff7f00ff7f01008001800001800100ea
:1023f40080018000ff7fff007fff7f00ff7fff00e1
:102404007f01800001800100800180000180ff00c5
:102414007fff7f00ff7fff007fff7f0001800100bf
:10242400800180000180010080ff7f00ff7fff00aa
:102434007fff7f00ff7f0100800180000180010099
:1024440080018000ff7fff007fff7f00ff7fff0090
:102454007f01800001800100800180000180ff0075
:102464007fff7f00ff7fff007fff7f00018001006f
:10247400800180000180010080ff7f00ff7fff005a
:102484007fff7f00ff7f0100800180000180010049
:1024940080018000ff7fff007fff7f00ff7fff0040
:1024a4007f01800001800100800180000180ff0025
:1024b4007fff7f00ff7fff007fff7f00018001001f
:1024c400800180000180010080ff7f00ff7fff000a
:1024d4007fff7f00ff7f01008001800001800100f9
:1024e40080018000ff7fff007fff7f00ff7fff00f0
:1024f4007f01800001800100800180000180ff00d5
:102504007fff7f00ff7fff007fff7f0001800000cf
:1025140000000000000000000000000000000000b7
:1025240000000000000000000000000000000000a7
:102534000000000000000000000000000000000097
:102544000000000000000000000000000000000087
:1027b40000000000000000000000000000460000cf
:1027c40000020000000000000044000000020000bd
:1027d40000000000004200000002000000000000b1
:1027e400004000000002000000000000003c000067
:1027f4000002000000000000000c000000020000c5
:1028040000000000001000000002000000000000b2
:102814003e240000000800000200000000008100c7
:10282400000101008201020002830200030384000c
:1028340003040400850405000586050006068700d8
:1028440006070700880708000889080009098a00a4
:10285400090a0a008b0a0b000b8c0b000c0c8d0070
:102864000c0d0d008e0d0e000e8f0e000f0f90003c
:102874000f10100091101100119211001212930008
:1028840012131300941314001495140015159600d4
:1028940015161600971617001798170018189900a0
:1028a400181919009a191a001a9b1a001b1b9c006c
:1028b4001b1c1c009d1c1d001d9e1d001e1e9f0038
:1028c4001e1f1f00a01f200020a120002121a20004
:1028d40021222200a322230023a423002424a500d0
:1028e40024252500a625260026a726002727a8009c
:1028f40027282800a928290029aa29002a2aab0068
:102904002a2c2b00ac2b2d002cad2c002e2dae0030
:102914002d2f2e00af2e30002fb02f003130b100fc
:1029240030323100b231330032b332003433b400c8
:1029340033353400b534360035b635003736b70094
:1029440036383700b837390038b938003a39ba0060
:10295400393b3a00bb3a3c003bbc3b003d3cbd002c
:102964003c3e3d00be3d3f003ebf3e00403fc000f8
:102974003f414000c140420041c241004342c300c4
:1029840042444300c443450044c544004645c60090
:1029940045474600c746480047c847004948c9005c
:1029a400484a4900ca494b004acb4a004c4bcc0028
:1029b4004b4d4c00cd4c4e004dce4d004f4ecf00f4
:1029c4004e504f00d04f510050d150005251d200c0
:1029d40051535200d352540053d453005554d5008c
:1029e40054565500d755570056d856005857d90055
:1029f40057595800da585a0059db59005b5adc0021
:102a04005a5c5b00dd5b5d005cde5c005e5ddf00ec
:102a14005d5f5e00e05e60005fe15f006160e200b8
:102a240060626100e361630062e462006463e50084
:102a340063656400e664660065e765006766e80050
:102a440066686700e967690068ea68006a69eb001c
:102a5400696b6a00ec6a6c006bed6b006d6cee00e8
:102a64006c6e6d00ef6d6f006ef06e00706ff100b4
:102a74006f717000f270720071f371007372f40080
:102a840072747300f573750074f674007675f7004c
:102a940075777600f876780077f977007978fa0018
:102aa400787a7900fb797b007afc7a007c7bfd00e4
:102ab4007b7d7c00fe7c7e007dff7d007f7e0000b0
:102ac4007f807f0000800000800080000080000084
:102ad40080008000008000008000800000800000f2
:102ae40080008000008000008000800000800000e2
:102af40080008000008000008000800000800000d2
:102b040080008000008000008000800000800000c1
:102b140080008000008000008000800000800000b1
:102b240080008000008000008000800000800000a1
:102b34008000800000800000800080000080000091
:102b44008000800000800000800080000080000081
:102b54008000800000800000800080000080000071
:102b64008000800000800000800080000080000061
:102b74008000800000800000800080000080000051
:102b84008000800000800000800080000080000041
:102b94008000800000800000800080000080000031
:102ba4008000800000800000800080000080000021
:102bb4008000800000800000800080000080000011
:102bc4008000800000800000800080000080000001
:102bd40080008000008000008000800000800000f1
:102be40080008000008000008000800000800000e1
:102bf40080008000008000008000800000800000d1
:102c040080008000008000008000800000800000c0
:102c140080008000008000008000800000800000b0
:102c240080008000008000008000800000800000a0
:102c34008000800000800000800080000080000090
:102c44008000800000800000800080000080000080
:102c54008000800000800000800080000080000070
:102c64008000800000800000800080000080000060
:102c74008000800000800000800080000080000050
:102c84008000800000800000800080000080000040
:102c94008000800000800000800080000080000030
:102ca4008000800000800000800080000080000020
:102cb4008000800000800000800080000080000010
:102cc4008000800000800000800080000080000000
:102cd40080008000008000008000800000800000f0
:102ce40080008000008000008000800000800000e0
:102cf40080008000008000008000800000800000d0
:102d040080008000008000008000800000800000bf
:102d140080008000008000008000800000800000af
:102d2400800080000080000080008000008000009f
:102d3400800080000080000080008000008000008f
:102d4400800080000080000080008000008000007f
:102d5400800080000080000080008000008000006f
:102d6400800080000080000080008000008000005f
:102d7400800040000040000040004000004000008f
:102d840040004000004000004000400000400000bf
:102d940040004000004000004000400000400000af
:102da400400040000040000040004000004000009f
:102db400400040000040000040004000004000008f
:102dc400400040000040000040004000004000007f
:102dd400400040000040000040004000004000006f
:102de400400040000040000040004000004000005f
:102df400400040000040000040004000004000004f
:102e0400400040000040000040004000004000003e
:102e1400400040000040000040004000004000002e
:102e2400400040000040000040004000004000001e
:102e3400400040000040000040004000004000000e
:102e440040004000004000004000400000400000fe
:102e540040004000004000004000400000400000ee
:102e6400400040000080000040004000004000009e
:102e7400400040000040000040008000004000008e
:102e840040004000004000004000400000400000be
:102e940040004000004000004000400000400000ae
:102ea400400040000040000040004000004000009e
:102eb400400040000040000040004000004000008e
:102ec400400040000040000040004000004000007e
:102ed400400040000040000040004000004000006e
:102ee400200040000040000040004000004000007e
:102ef400400040000040000040004000004000004e
:102f0400400040000040000040004000004000003d
:102f1400400040000040000040004000004000002d
:102f2400400040000040000040004000004000001d
:102f3400400040000040000040004000004000000d
:102f440040004000004000004000400000400000fd
:102f540040004000004000004000400000400000ed
:102f640070004000004000004000400000400000ad
:102f7400000040000040000040004000004000000d
:102f840040004000004000004000400000400000bd
:102f940040004000004000004000400000400000ad
:102fa400400040000040000040004000004000009d
:102fb400400040000040000040004000004000008d
:102fc400400040000040000040004000004000007d
:102fd400400040000040000040004000004000006d
:102fe400400040000040000040004000004000005d
:102ff400400040000040000040004000004000004d
:10300400400040000040000040004000004000003c
:10301400400040000040000040004000008080006c
:103024007f007f007f7eff007d7e7d00fe7c7d0033
:103034007cfd7b007c7bfc007a7b7a00fb797a0048
:1030440079fa78007978f90077787700f87677005c
:1030540076f775007675f60074757400f573740070
:1030640073f472007372f30071727100f270710084
:1030740070f16f00706ff0006e6f6e00ef6d6e0098
:103084006dee6c006d6ced006b6c6b00ec6a6b00ac
:103094006aeb69006a69ea0068696800e9676800c0
:1030a40067e866006766e70065666500e6646500d4
:1030b40064e563006463e40062636200e3616200e8
:1030c40061e260006160e1005f605f00e05e5f00fc
:1030d4005edf5d005e5dde005c5d5c00dd5b5c0010
:1030e4005bdc5a005b5adb00595a5900da58590024
:1030f40058d957005857d80056575600d755560038
:1031040055d554005554d40053545300d35253004e
:1031140052d251005251d10050515000d04f500062
:103124004fcf4e004f4ece004d4e4d00cd4c4d0076
:103134004ccc4b004c4bcb004a4b4a00ca494a008a
:1031440049c948004948c80047484700c74647009e
:1031540046c645004645c50044454400c4434400b2
:1031640043c342004342c20041424100c1404100c6
:1031740040c03f00403fbf003e3f3e00be3d3e00da
:103184003dbd3c003d3cbc003b3c3b00bb3a3b00ee
:103194003aba39003a39b90038393800b837380002
:1031a40037b736003736b60035363500b534350016
:1031b40034b433003433b30032333200b23132002a
:1031c40031b130003130b0002f302f00af2e2f003e
:1031d4002eae2d002e2dad002c2d2c00ac2b2c0052
:1031e4002bab2a002a2aaa0029292900a928280069
:1031f40028a827002727a70026262600a62525007d
:1032040025a524002424a40023232300a322220090
:1032140022a221002121a10020202000a01f1f00a4
:103224001f9f1e001e1e9e001d1d1d009d1c1c00b8
:103234001c9c1b001b1b9b001a1a1a009a191900cc
:1032440019991800181898001717170097161600e0
:1032540016961500151595001414140094131300f4
:103264001393120012129200111111009110100008
:1032740010900f000f0f8f000e0e0e008e0d0d001c
:103284000d8d0c000c0c8c000b0b0b008b0a0a0030
:103294000a8a090009098900080808008807070044
:1032a4000787060006068600050505008504040058
:1032b400048403000303830002020200820101006c
:1032c400018100000000000000080000020000006e
:0832d4000000000000000000f2
:020000040000fa
:1032dc004382a9004362a9004342a9004302a8000b
:1032ec0042e2a90042c2a90042a2a8004322a900be
:1032fc001112800030fe2f00008060000040a00002
:10330c0010128800101280003000b30010128800d8
:10331c004422ef00000006000400fa0000c4b300d1
:10332c00c0ff9f00cc62a9002000200001002000fb
:10333c008607070040c2a90041e2a80040128000a5
:10334c00f0bf9f0010002000401288000000000019
:10335c0000128000610060000000e000fcff320001
:10336c00cff897000180fb0040128800000000009d
:10337c0000128000610060000000e000fcff3200e1
:10338c0040128000f0bf9f005000200040128800c7
:10339c000000000000128000610060000000e000ee
:1033ac00fcff32004822ef000000000000128000f9
:1033bc00610060000000e000fcff32004012800061
:1033cc00f0bf9f00cc62a8000080fa00000006004d
:1033dc001200fa00c0bf9f00d2bf9f00e3bf9f0046
:1033ec00f1bf9f000040eb00e0ef9f000040eb00be
:1033fc00f0ef9f000040eb0080f79f007fb8970034
:10340c004880de0090bf9f00ffb89700f00f2000af
:10341c0000806000a0bf9f000000eb00b0bf9f00c9
:10342c005fb89700efb897004008de00e0ef9f0010
:10343c005fb89700efb897004809dd004800de0040
:10344c0000007100c808de00f0ef9f005fb8970025
:10345c0080f79f004fb897000000e00002003a0090
:10346c00cc62a8000b0037004fb89700e10f50005a
:10347c0002003a00cc82a800060037004fb8970033
:10348c00e20f500002003a00c482a800010037008d
:10349c00cca2a80040c2a90041e2a80040128000c2
:1034ac00b0bf9f00200020004012880000000000e8
:1034bc0000128000610060000000e000fcff3200a0
:1034cc0040c2a90040128000b0bf9f00efe89700f7
:1034dc000100fb0040128800000000000012800078
:1034ec00610060000000e000fcff320040c2a90057
:1034fc0040128000b0bf9f007fe897000000fb00e7
:10350c004012880000000000001280006100600082
:10351c000000e000fcff320040c2a9004012800015
:10352c00b0bf9f000ff097000000fb004012880016
:10353c000000000000128000610060000000e0004c
:10354c00fcff320040c2a90040128000b0bf9f00b7
:10355c001fb8970040128800000000000012800085
:10356c00610060000000e000fcff320040c2a900d6
:10357c0040128000b0bf9f002fb897004012880007
:10358c000000000000128000610060000000e000fc
:10359c00fcff32004fb897000000e00002003a0038
:1035ac00cc62a8000b0037004fb89700e10f500019
:1035bc0002003a00cc82a800060037004fb89700f2
:1035cc00e20f500002003a00c482a800010037004c
:1035dc00cca2a8000080fa00000006001400fa003b
:1035ec00c0bf9f00d2bf9f00e3bf9f00f1bf9f00f1
:1035fc000040eb00e0ef9f000040eb00f0ef9f007d
:10360c000040eb0080f79f000000eb0090bf9f0094
:10361c000000eb00a0bf9f000000eb00b0bf9f00bc
:10362c005fb89700efb897004008de00e0ef9f000e
:10363c005fb89700efb897004809dd004800de003e
:10364c0000007100c808de00f0ef9f005fb8970023
:10365c0080f79f004fb897000000e00002003a008e
:10366c00cc62a9000b0037004fb89700e10f500057
:10367c0002003a00cc82a900060037004fb8970030
:10368c00e20f500002003a00c482a900010037008a
:10369c00cca2a90040c2a90041e2a80040128000bf
:1036ac00b0bf9f00200020004012880000000000e6
:1036bc0000128000610060000000e000fcff32009e
:1036cc0040c2a90040128000b0bf9f006fe8970075
:1036dc000000fb0040128800000000000012800077
:1036ec00610060000000e000fcff320040c2a90055
:1036fc0040128000b0bf9f007fe897000000fb00e5
:10370c004012880000000000001280006100600080
:10371c000000e000fcff320040c2a9004012800013
:10372c00b0bf9f000ff097000000fb004012880014
:10373c000000000000128000610060000000e0004a
:10374c00fcff32000000eb00e0b79f0026003700c2
:10375c006fb0970000004000ffb897000080400059
:10376c00100078004880de0090bf9f006fb097007b
:10377c0000004000ffb897000080400090007800e7
:10378c00f00f200000806000a0bf9f0040c2a90085
:10379c0040128000b0bf9f001fb8970040128800f5
:1037ac000000000000128000610060000000e000da
:1037bc00fcff320040c2a90040128000b0bf9f0045
:1037cc002fb8970040128800000000000012800003
:1037dc00610060000000e000fcff3200efb09700d9
:1037ec008100e800e1b79f00f00f2000efb09700d8
:1037fc00808f5000d6ff34004fb897000000e000d7
:10380c0002003a00cc62a8000b0037004fb89700ba
:10381c00e10f500002003a00cc82a80006003700ed
:10382c004fb89700e20f500002003a00c482a80083
:10383c0001003700cca2a8000080fa0000000600ae
:10384c001000fa00d0bf9f00e2bf9f00f3bf9f00a3
:10385c000040eb0080f79f000040eb0090f79f00ca
:10386c000040eb00a0f79f000000eb00a0bf9f0002
:10387c000000eb00b0bf9f000000eb00c0bf9f003a
:10388c006fb89700ffb897004008de0080f79f00e4
:10389c006fb89700ffb897004809dd004800de00bc
:1038ac0000007100c808de0090f79f006fb8970009
:1038bc00a0f79f005fb897000000e00002003a00fc
:1038cc00cc62a9000b0037005fb89700e10f5000e5
:1038dc0002003a00cc82a900060037005fb89700be
:1038ec00e20f500002003a00c482a9000100370028
:1038fc00cca2a90040c2a90041e2a800401280005d
:10390c00a0bf9f0030002000401288000000000083
:10391c0000128000610060000000e000fcff32003b
:10392c0040c2a90040128000a0bf9f008ff09700fa
:10393c000100fb0040128800000000000012800013
:10394c00610060000000e000fcff320040c2a900f2
:10395c0040128000a0bf9f001ff097000000fb00ea
:10396c00401288000000000000128000610060001e
:10397c000000e000fcff320040c2a90040128000b1
:10398c00a0bf9f002ff097000000fb0040128800a2
:10399c000000000000128000610060000000e000e8
:1039ac00fcff320040128000a0bf9f004822ef00b5
:1039bc000000000000128000610060000000e000c8
:1039cc00fcff320040128000b0bf9f004822ef0085
:1039dc000000000000128000610060000000e000a8
:1039ec00fcff320040128000c0bf9f005fb8970000
:1039fc000000e00002003a00cc62a8000b00370087
:103a0c005fb89700e10f500002003a00cc82a8008a
:103a1c00060037005fb89700e20f500002003a0032
:103a2c00c482a80001003700cca2a8003fb89700c0
:103a3c00c800dd004fb8970001007000a0bf9f00c8
:103a4c002fb897000080fa00000006001400fa005e
:103a5c00c0bf9f00d2bf9f00e3bf9f00f1bf9f007c
:103a6c000040eb00e0ef9f000040eb00f0ef9f0008
:103a7c000040eb0080f79f000000eb0090bf9f0020
:103a8c000000eb00a0bf9f000000eb00b0bf9f0048
:103a9c005fb89700efb897004008de00e0ef9f009a
:103aac005fb89700efb897004809dd004800de00ca
:103abc0000007100c808de00f0ef9f005fb89700af
:103acc0080f79f004fb897000000e00002003a001a
:103adc00cc62a9000b0037004fb89700e10f5000e3
:103aec0002003a00cc82a900060037004fb89700bc
:103afc00e20f500002003a00c482a9000100370016
:103b0c00cca2a90040c2a90041e2a800401280004a
:103b1c0090bf9f0030002000401288000000000081
:103b2c0000128000610060000000e000fcff320029
:103b3c0040c2a9004012800090bf9f006fe8970020
:103b4c000000fb0040128800000000000012800002
:103b5c00610060000000e000fcff320040c2a900e0
:103b6c004012800090bf9f007fe897000000fb0090
:103b7c00401288000000000000128000610060000c
:103b8c000000e000fcff320040c2a900401280009f
:103b9c0090bf9f000ff097000000fb0040128800c0
:103bac000000000000128000610060000000e000d6
:103bbc00fcff32000000eb00e0b79f001e00370056
:103bcc004012800090bf9f004822ef0000000000d0
:103bdc0000128000610060000000e000fcff320079
:103bec0040128000a0bf9f004822ef0000000000a0
:103bfc0000128000610060000000e000fcff320059
:103c0c0040128000b0bf9f006fb0970000004000d2
:103c1c00ffb8970000804000afb897004809dd005e
:103c2c00bfb897008280700001087800efb0970051
:103c3c008100e800e1b79f00f00f2000efb0970083
:103c4c00808f5000deff34004fb897000000e0007a
:103c5c0002003a00cc62a8000b0037004fb8970066
:103c6c00e10f500002003a00cc82a8000600370099
:103c7c004fb89700e20f500002003a00c482a8002f
:103c8c0001003700cca2a8000080fa00000006005a
:103c9c000600fa00c0ff9f00d1ff9f00f2bf9f00fb
:103cac004ff897000000fb0000004000a0ff9f00b1
:103cbc004ff897000000fb00000040000040780027
:103ccc000004a000b0ff9f000602a8000000000046
:103cdc0030108000610060000000e000fcff3a0042
:103cec003ff897000000fb00101088000000000057
:103cfc004110800000002400008060000000e00003
:103d0c00fbff3a004110800000002800008060009a
:103d1c000000e000080032000642a800000000008d
:103d2c0030108000640060000000e000fcff3a00ee
:103d3c000080eb00210037005ff897000000fb00cb
:103d4c0010108800000000004110800000002400ca
:103d5c00008060000000e000fbff3a004110800092
:103d6c0000002800008060000000e0000800320025
:103d7c000642a800000000003010800064006000c3
:103d8c000000e000fcff3a000080eb000b00370065
:103d9c0000108000804078007fb8970001487800c0
:103dac000642a80000000000301080006400600093
:103dbc000000e000fcff3a00100020000080fa0038
:103dcc000000060007e2a90007a2a9000762a900eb
:103ddc000742a9000722a8000702a9001000200032
:103dec00030007002010880007e2a800000006006e
:103dfc000200fa00f0bf9f007fb897000000e000bf
:103e0c0002003200b016200001003700f003200041
:103e1c000080fa00000006000600fa00c0ff9f00b8
:103e2c00d1ff9f00e2ff9f004ff897000000fb00be
:103e3c0000004000a0ff9f000602a8000000000048
:103e4c0030108000610060000000e000fcff3a00d0
:103e5c00aff897000100fb00101088000000000074
:103e6c004110800000002400008060000000e00091
:103e7c00fbff3a0041108000000028000080600029
:103e8c000000e000080032000642a800000000001c
:103e9c0030108000640060000000e000fcff3a007d
:103eac000080eb00330037005ff897000000fb0048
:103ebc001010880000000000411080000000240059
:103ecc00008060000000e000fbff3a004110800021
:103edc0000002800008060000000e00008003200b4
:103eec000642a80000000000301080006400600052
:103efc000000e000fcff3a000080eb001d003700e2
:103f0c006ff897000000fb00101088000000000004
:103f1c004110800000002400008060000000e000e0
:103f2c00fbff3a0041108000000028000080600078
:103f3c000000e000080032000642a800000000006b
:103f4c0030108000640060000000e000fcff3a00cc
:103f5c000080eb00070037000642a80000000000bc
:103f6c0030108000640060000000e000fcff3a00ac
:103f7c00100020000080fa00000006000600fa0085
:103f8c00c0ff9f00d1ff9f00f2bf9f004ff897002a
:103f9c000000fb0000004000a0ff9f004ff89700be
:103fac000000fb0000004000004078000004a0006e
:103fbc00b0ff9f000602a800000000003010800037
:103fcc00610060000000e000fcff3a00aff89700d1
:103fdc000100fb0010108800000000004110800060
:103fec0000002400008060000000e000fbff3a00ad
:103ffc004110800000002800008060000000e000fc
:10400c00080032000642a8000000000030108000ba
:10401c00640060000000e000fcff3a000080eb0050
:10402c00430037005ff897000000fb001010880079
:10403c00000000004110800000002400008060009f
:10404c000000e000fbff3a00411080000000280057
:10405c00008060000000e000080032000642a8006a
:10406c000000000030108000640060000000e000e0
:10407c00fcff3a000080eb002d0037000622a80060
:10408c000000000030108000620060000000e000c2
:10409c00fcff3a003ff897000000fb00101088006e
:1040ac00000000004110800000002400008060002f
:1040bc000000e000fbff3a004110800000002800e7
:1040cc00008060000000e000080032000642a800fa
:1040dc000000000030108000640060000000e00070
:1040ec00fcff3a000080eb00110037000662a800cc
:1040fc000000000040108000620060000000e00042
:10410c00fcff320000108000804078007fb89700e0
:10411c00014878000642a800000000003010800022
:10412c00640060000000e000fcff3a00100020007a
:10413c000080fa00000006000400fa00c0ff9f0097
:10414c00f1bf9f00cff897000104a000c1ff9f00b2
:10415c000602a80000000000301080006100600022
:10416c000000e000fcff3a00cff897000100fb00d4
:10417c001010880000000000411080000000240096
:10418c00008060000000e000fbff3a00411080005e
:10419c0000002800008060000000e00008003200f1
:1041ac000642a8000000000030108000640060008f
:1041bc000000e000fcff3a000080eb00110037002b
:1041cc000662a80000000000401080006200600041
:1041dc000000e000fcff32000010800080407800fe
:1041ec007fb89700014878000642a8000000000044
:1041fc0030108000640060000000e000fcff3a001a
:10420c00100020000080fa00000006000400fa00f4
:10421c000000200011002000e0bf9f00f1bf9f00b4
:10422c00b0e08000c1e080000020b0000180b00050
:10423c00b0e08800c1e08800e1e0800050a0800080
:10424c00808f50000e003a00b0e08000c1e080008a
:10425c000001be004082810051828100800f51001c
:10426c00818f5900140039006000b800b0e088005c
:10427c00c1e088000000eb00e0e088000e00370091
:10428c00b0e08000c1e080000001be00f09f2e0075
:10429c0011002000800f5100818f5900060036005c
:1042ac006000b800b0e08800c1e08800e0e0800069
:1042bc000000e800e0e08800f082810001838100ca
:1042cc000020b0000180b000f082890001838900d9
:1042dc00d1e0800050a08000808f50000e003a008a
:1042ec00f0828100018381000001be0040828100c8
:1042fc0051828100800f5100818f590014003900c8
:10430c006000b800f0828900018389000000eb0096
:10431c00d0e088000e003700f0828100018381001c
:10432c000001be00f09f2e0011002000800f5100f4
:10433c00818f5900060036006000b800f0828900b9
:10434c0001838900d0e080000000e800d0e0880004
:10435c0010838100218381000020b0000180b00017
:10436c0010838900218389003183810050a0800053
:10437c00808f50000e003a00108381002183810051
:10438c000001be004082810051828100800f5100eb
:10439c00818f5900140039006000b8001083890027
:1043ac00218389000000eb00308389000e00370068
:1043bc0010838100218381000001be00f09f2e003c
:1043cc0011002000800f5100818f5900060036002b
:1043dc006000b8001083890021838900308381003c
:1043ec000000e80030838900f0e0800001e18000eb
:1043fc000020b0000180b000f0e0880001e18800ee
:10440c004183810050a08000808f50000e003a0044
:10441c00f0e0800001e180000001be0040828100dc
:10442c0051828100800f5100818f59001400390096
:10443c006000b800f0e0880001e188000000eb00ab
:10444c00408389000e003700f0e0800001e180001d
:10445c000001be00f09f2e0011002000800f5100c3
:10446c00818f5900060036006000b800f0e088002b
:10447c0001e18800408381000000e800408389004e
:10448c000080fa00000006001000fa00e0bf9f0058
:10449c00f1bf9f000000eb00d0bf9f006000b80090
:1044ac00b0bf9f00c1bf9f000080230090bf9f0042
:1044bc0000802300a0bf9f000001eb0001c0200082
:1044cc008000200075f007000000eb0080bf9f000b
:1044dc000b0037001fb89700100078008080d100c7
:1044ec001fb89700010878001fb897000080e800fb
:1044fc0090bf9f008fb897008100e80081bf9f009c
:10450c00f00f20008fb89700808f5000f1ff34001f
:10451c00c09f230090bf9f00c0bf2300a0bf9f007f
:10452c000010200080bf9f00100037001fb89700bc
:10453c00900078002fb89700010878001fb89700fa
:10454c000080e90090bf9f002fb897008000eb001f
:10455c00110098002fb8970064005000a0bf9f0076
:10456c008fb897008100e90081bf9f000fb89700ba
:10457c000000e000edff3c0003f02f0002c0200023
:10458c0001802300800020003ff107000180230000
:10459c00800020007cf107000280230001802300b2
:1045ac000010200093f1070066805700000178008e
:1045bc000180230000082000f5f00700dfb8970009
:1045cc00700220000088b90000007800cf80de0067
:1045dc00b0bf9f00c1bf9f000080fa000000060022
:1045ec00881f780011a08000703e2000808f500042
:1045fc0004003c0010a080000000e80010a088001f
:10460c0035003700f08181000000e0001900320015
:10461c0005828100b2e08000c3e08000f08281005e
:10462c0001838100e4e08000d8e08000829fbe001e
:10463c000003be008801780002a121000141210085
:10464c00002024009e010700e4875700208281008f
:10465c00066024008002eb000002eb008001780071
:10466c0022c221000161210000412100f901070053
:10467c001800370005828100b2e08000c3e08000a2
:10468c00f082810001838100e4e08000d8e08000aa
:10469c00829fbe000003be008801780002a12100a9
:1046ac00014121000000240085010700e487570028
:1046bc0020828100064024008002eb000002eb0007
:1046cc008001780022c221000161210000412100fb
:1046dc00e0010700cdfe07004f0478000000060043
:1046ec000001eb0001c0200080002000ebef070070
:1046fc00120020000100210080002000e7ef0700dd
:10470c0001c0230000102000bcef070000000600d1
:10471c0071000700df000700f1ff0700920007009f
:10472c00f8000700a7fd0700fe0007003f02070086
:10473c00f4010700e6fa07001e0107001202070049
:10474c002a0207000000060001402100000a200098
:10475c0079fe070000a080000080d10000a0880036
:10476c0000a0800080004000e0c3220000804000d8
:10477c00100078000082890001402100400a2000ce
:10478c006dfe070000a080000080d10000a0880012
:10479c0000a0800080004000e0d322000080400098
:1047ac00100078002082890001402100800a20003e
:1047bc0061fe070000a080000080d10000a08800ee
:1047cc0000a08000c200dd00e0e322000080400079
:1047dc001000be0040828900518289004282810013
:1047ec0053828100f09f2e0011002000800f510099
:1047fc00818f59001c003600428281005382810057
:10480c0000602100e1ff2f0002004000838048007f
:10481c0040828900518289001000200050a088003d
:10482c004282810053828100f09f2e0011002000f3
:10483c00800f5100818f59000d003600428281009b
:10484c005382810000602100e1ff2f000200400034
:10485c00838048004082890051828900200020001a
:10486c0050a08800020037000000eb0050a0880028
:10487c0000000600a6ff0700c422a900c402a9007c
:10488c000000eb0020a088000000eb0030a08800a6
:10489c00010037000000000021a0800030a0800043
:1048ac00008060000000e000faff3200c422a80083
:1048bc004bff0700c422a900f08181000000a20078
:1048cc00f08189000000eb0020a088000000eb00c4
:1048dc0030a08800f0ff3700213a800000fe2f0046
:1048ec00008060000010a000203a8800313a80005f
:1048fc0000e02f0000806000e001b300303a880037
:10490c00213a8000f0f32f0000806000203a8800ec
:10491c003200200080072000a10920003374200001
:10492c008049780081497800824978001200200083
:10493c006004200071052000237420008049780059
:10494c00814978008249780000000000113a80000b
:10495c00000027008080600000002300808f500042
:10496c00faff3a00000006000080eb006019880096
:10497c002c63a8002c83a800c002a900c022a900a7
:10498c00c082a900c862a900c882a900c8a2a90057
:10499c00c8c2a900c8e2a900c402a800c422a90088
:1049ac00c482a800cc62a800cc82a800cca2a8002b
:1049bc00ccc2a900cce2a900113a8000f00d200075
:1049cc000081600060042000710520002374200029
:1049dc00804978008149780082497800013680004e
:1049ec0000fe2f00008060000030a0000036880020
:1049fc004135800000fe2f00008060000000a00008
:104a0c00403588001136800000fe2f0000806000c9
:104a1c007000b300103688009135800000fe2f0026
:104a2c0000806000f000b300903588008135800074
:104a3c00f00f2e008080600000e02000010070006c
:104a4c00803588008135800000fe2f0000806000da
:104a5c00d000b300803588006136800000fe2f0046
:104a6c0000806000d000b30060368800103a8000ef
:104a7c00000178000260a000600420007105200095
:104a8c00237420008049780081497800824978009d
:104a9c00000006008420ef008620ef008820ef0045
:104aac008a20ef008c20ef009420ef009620ef007e
:104abc009820ef009a20ef009c20ef0000000600e9
:104acc000421a900210880000003200001007000cf
:104adc002008880004c1a90005a1a90021058000b7
:104aec00f0ff2800808060000000250001007000ad
:104afc00200588008460a9009460a80005e1a80046
:104b0c000000060081e0a9008b80a9008b60a90041
:104b1c0011028000f0f12f0000806000100288006c
:104b2c000000060000a8210061002000870107009a
:104b3c00ccc2a80000982a00310020008301070095
:104b4c00320020007100200000012000b2fc0700a0
:104b5c00920420001100200000012000aefc070090
:104b6c00020620002100200000012000aafc070002
:104b7c00420320006100200000012000a6fc070079
:104b8c00220020007100200000012000a2fc070080
:104b9c0000a82100610020006c01070007e2a900b9
:104bac000000eb0092fc07002010880007e2a80030
:104bbc00000006000600fa000000eb00d0bf9f00ca
:104bcc000000eb00e0bf9f000000eb00f0bf9f0077
:104bdc000000eb00d0bf9f00110037000000eb007d
:104bec00e0bf9f00080037006fb897006101b90063
:104bfc00ffb897005fb89700f5f907006fb89700fa
:104c0c000000e800e0bf9f006fb897000000e000d4
:104c1c00f5ff3d00dfb897008100e800d1bf9f0091
:104c2c005fb89700e20f5000ecff34000080fa00f0
:104c3c00000006001002fa0080bf9f0091bf9f0089
:104c4c00a2bf9f00b3bf9f00c4bf9f00d5bf9f00f2
:104c5c00e6bf9f00f7bf9f004fb99700dfb99700e1
:104c6c009fb897002fb8970078fb0700cfb195003d
:104c7c001fb9970001df2f008f804000001020002b
:104c8c0056ef070003df2f008f8141000fb997000b
:104c9c0001df2f008f804000001020005def070027
:104cac006fb99700ffb9970001df2f008f8040008c
:104cbc003fb8970049fa07000080fa000000060090
:104ccc001004fa00889fbe0008402000c9be2f00c7
:104cdc008f84440008844400000c7800204020009d
:104cec00c8be2f000f0444000000440001087800e7
:104cfc0040402000c9be2f008f8444000080440037
:104d0c000208780060402000c1be2f008f80400058
:104d1c00008040000308780080402000c2be2f00b5
:104d2c000f0141000000410004087800a040200061
:104d3c00c4be2f000f024200000042000688be00d5
:104d4c00e0402000c6be2f000f03430000004300cc
:104d5c0005087800a0402000c8be2f000f044400b6
:104d6c00000044001001be0060402000c9be2f00ae
:104d7c008f84440000804400c1be2f008f8040000f
:104d8c001000780031fb070020402000c1be2f002e
:104d9c008f80400000804000e3832200c2be2f00c1
:104dac000f014100900078000010200028ef070050
:104dbc00e0402000c2be2f000f01410080004100e6
:104dcc0020402000c4be2f000f0242000000420011
:104ddc009101780010017800c1be2f008f80400037
:104dec0000102000fdee070000402000c5be2f0083
:104dfc008f82420000804200c3be2f008f81410091
:104e0c0010017800c1be2f008f80400000102000e0
:104e1c0000ef070021be2f008f8040003104780086
:104e2c00a10478000801be0080402000c5be2f0000
:104e3c008f82420000804200c1be2f008f80400054
:104e4c0010007800e5f907004f04be000080fa005e
:104e5c00000006000e00fa0090bf9f00a1bf9f004b
:104e6c00b2bf9f00c3bf9f00d4bf9f00e5bf9f0090
:104e7c00f6bf9f00cfb997001fb997009fb8970056
:104e8c0000102000d5ee0700dfb997002fb997006e
:104e9c00afb8970000102000d0ee0700efb99700d4
:104eac003fb99700bfb8970000102000cbee070069
:104ebc00afb997001fb99700ffb8970000102000fa
:104ecc00d4ee0700bfb997007fb99700ffb89700e1
:104edc0000102000cfee07000080fa000000060052
:104eec000400fa00e0bf9f00f1bf9f006fb997006c
:104efc00ffb8970000102000b2ee07000080fa0007
:104f0c000000060081e2a90081a2a9008162a9002b
:104f1c008142a8008122a8008102a80080e2a90099
:104f2c0080c2a90080a2a90001148000c0ff2f003c
:104f3c00008060000000a0000014880011148000a4
:104f4c00f03f2f00008060001014880011148000c6
:104f5c00f0e12f008080600000062000010070004e
:104f6c001014880010148000f000b3001014880096
:104f7c008422ef008822ef008c22ef008842a800e8
:104f8c008c42a800000006000200fa000000eb00b2
:104f9c00f0bf9f000f0037007fb8970080004000e3
:104fac0000602400008040008000eb0001087800c5
:104fbc007fb8970080004000004024000080400033
:104fcc008000eb0001087800ffb897008100e80032
:104fdc00f1bf9f00f00f2000ffb89700808f5000aa
:104fec00edff36000080fa000000060083e3a80005
:104ffc0000000000111c80000000280000806000f0
:10500c000000e000fbff3a0083e3a8000000000072
:10501c00111c800000002800008060000000e000ef
:10502c00fbff3a0081e2a8000000060081c3a90042
:10503c0081a3a800011c8000f0fc2f000080600000
:10504c00001c8800011c8000c0ff2f000080600045
:10505c000010a000001c88008183a9008163a900b6
:10506c0083e3a900111c800000f82f0080806000f1
:10507c00c003200001007000101c8800006020009c
:10508c00201c880000402000301c88008029200053
:10509c00401c8800f00f2000501c88008480a90060
:1050ac003105800080ff2f00008060006000b3009d
:1050bc00300588009480a8008dc3a9008da3a90099
:1050cc008d83a9008d63a900611c8000f0fc2f006a
:1050dc0000806000601c8800611c8000c0ff2f00f5
:1050ec00008060000010a000601c88008fe3a90005
:1050fc00711c800000f82f0080806000c00320002d
:10510c0001007000701c880000202000801c8800aa
:10511c0000002000901c880000292000a01c8800a2
:10512c00f00f2000b01c880085c0a900510580003c
:10513c0000702000010070005005880095c0a80088
:0c514c0081e3a8008de3a800000006002d
:020000040000fa
:10515800f03fb1000180b10006003500ee03090000
:1051680000000000403fb1000180b100fbff3d009e
:105178001000b000203fb000020035000080090098
:08518800000000000000060019
:020000040000fa
:0200000401f009
:04000000ffff0000fe
:020000040000fa
:0200000401f009
:04000400ffff0000fa
:020000040000fa
:0200000401f009
:04000800ffff0000f6
:020000040000fa
:0200000401f009
:04000c0000000000f0
:020000040000fa
:0200000401f009
:0400100046000000a6
:020000040000fa
:0200000401f009
:040014005f00000089
:020000040000fa
:0200000401f009
:04001800f7000000ed
:020000040000fa
:0200000401f009
:04001c00deff000003
:00000001FF
